:100000000C9465000C948D000C948D000C948D0064
:100010000C948D000C948D000C948D000C941A039C
:100020000C948D000C948D000C948D000C94C602E1
:100030000C948D000C948D000C9472020C948D0025
:100040000C948F0E0C948D000C941F0F0C948D004B
:100050000C948D000C948D000C948D000C948D00EC
:100060000C943B060C948D0002010000000000245B
:100070000027002A0000000000250028002B0000B7
:1000800000000023002600290004040404040404E2
:100090000402020202020203030303030301020437
:1000A00008102040800102040810200102040810FA
:1000B0002000000007000201000003040600000009
:1000C0000000000000003505681011241FBECFEFAE
:1000D000D4E0DEBFCDBF12E0A0E0B1E0EAEBF9E290
:1000E00002C005900D92A032B107D9F714E0A0E24A
:1000F000B2E001C01D92A035B107E1F710E0CAECF3
:10010000D0E004C02297FE010E94D714C63CD1075C
:10011000C9F70E94CC0D0C94DB140C9400000F93D3
:100120001F93CF93DF93689F8001699F100D789F85
:10013000100D1124C8010E94AB00EC01009729F0BA
:1001400060E070E0A8010E94AD01CE01DF91CF9187
:100150001F910F910895CF93DF93BC0182309105D9
:1001600010F462E070E0A0914E04B0914F04ED01F4
:10017000E0E0F0E040E050E021C0888199818617FE
:10018000970769F48A819B81309719F09383828362
:1001900004C090934F0480934E04FE0134C068174E
:1001A000790738F44115510519F08417950708F4BB
:1001B000AC01FE018A819B819C01E9012097E9F64F
:1001C00041155105A9F1CA01861B970B049708F444
:1001D000BA01E0E0F0E02AC08D919C91119784175C
:1001E0009507F9F46417750781F412968D919C9127
:1001F0001397309719F09383828304C090934F0430
:1002000080934E04FD0132964CC0CA01861B970BA9
:10021000FD01E80FF91F6193719302978D939C93F1
:1002200040C0FD01828193819C01D9011097A1F604
:1002300080914C0490914D04892B41F480912701C9
:100240009091280190934D0480934C044091290192
:1002500050912A014115510541F44DB75EB7809187
:10026000250190912601481B590B20914C04309197
:100270004D04CA01821B930B8617970780F0AB01D0
:100280004E5F5F4F8417950750F0420F531F5093F6
:100290004D0440934C04F9016193719302C0E0E076
:1002A000F0E0CF01DF91CF910895CF93DF930097D6
:1002B00009F450C0EC0122971B821A82A0914E04CF
:1002C000B0914F04109709F140E050E0AC17BD0722
:1002D00008F1BB83AA83FE0121913191E20FF31F44
:1002E000AE17BF0779F48D919C911197280F391F94
:1002F0002E5F3F4F3983288312968D919C911397DF
:100300009B838A834115510571F4D0934F04C093A8
:100310004E0420C012968D919C911397AD010097C9
:1003200011F0DC01D3CFFA01D383C2832191319143
:10033000E20FF31FCE17DF0769F488819981280F38
:10034000391F2E5F3F4FFA01318320838A819B81C1
:1003500093838283DF91CF910895DC0101C06D9377
:1003600041505040E0F70895FB019F01E89442306E
:10037000C4F04532B4F44A3029F497FB1EF490954A
:1003800081959F4F642F77270E94C114805D8A3327
:100390000CF0895D8193CB010097A1F716F45DE223
:1003A00051931082C9010C94D501DC01FC01672F27
:1003B00071917723E1F7329704C07C916D9370833C
:1003C0006291AE17BF07C8F30895DC019091350222
:1003D000933008F083C06C93E92FF0E0E859FF4FA9
:1003E000849111968C9311979F5F90933502813081
:1003F00039F1823009F44BC0882309F072C014BC73
:1004000015BC84B5826084BD85B5816085BD8C9145
:10041000282F30E0F901E757FF4FE491F0E0EE0FAD
:10042000FF1FEB58FF4F8591949190932502809385
:10043000240223563F4FF9018491809326020895A8
:1004400010928000109281008091810088608093DA
:100450008100809181008160809381008C91282FA0
:1004600030E0F901E757FF4FE491F0E0EE0FFF1F96
:10047000EB58FF4F8591949190932C0280932B021F
:1004800023563F4FF901849180932D0208951092D5
:10049000B0001092B1008091B00082608093B000F3
:1004A0008091B10081608093B1008C91282F30E061
:1004B000F901E757FF4FE491F0E0EE0FFF1FEB5813
:1004C000FF4F85919491909333028093320223568B
:1004D0003F4FF90184918093340208958FEF119674
:1004E0008C9308951F920F920FB60F9211248F9341
:1004F0009F93AF93BF93EF93FF93809120029091CE
:100500002102A0912202B0912302E0912402F091F5
:1005100025020097A105B10531F180819091260255
:10052000892780838091200290912102A09122024C
:10053000B0912302181619061A061B06E4F48091DE
:10054000200290912102A0912202B09123020197F2
:10055000A109B1098093200290932102A093220265
:10056000B093230208C010926E0090818091260201
:10057000809589238083FF91EF91BF91AF919F91E7
:100580008F910F900FBE0F901F9018951F920F9292
:100590000FB60F9211248F939F93AF93BF93EF9356
:1005A000FF938091270290912802A0912902B09197
:1005B0002A02E0912B02F0912C020097A105B105CF
:1005C00031F1808190912D028927808380912702CB
:1005D00090912802A0912902B0912A0218161906BA
:1005E0001A061B06E4F48091270290912802A0913C
:1005F0002902B0912A020197A109B109809327022B
:1006000090932802A0932902B0932A0208C0109266
:100610006F00908180912D02809589238083FF91C6
:10062000EF91BF91AF919F918F910F900FBE0F905F
:100630001F9018951F920F920FB60F9211248F934F
:100640009F93AF93BF93EF93FF9380912E0290916E
:100650002F02A0913002B0913102E0913202F0916C
:1006600033020097A105B10531F1808190913402E8
:100670008927808380912E0290912F02A0913002D1
:10068000B0913102181619061A061B06E4F480917F
:100690002E0290912F02A0913002B0913102019769
:1006A000A109B10980932E0290932F02A0933002EA
:1006B000B093310208C01092700090818091340292
:1006C000809589238083FF91EF91BF91AF919F9196
:1006D0008F910F900FBE0F901F901895FC01818194
:1006E000813039F0823041F0882341F410926E005D
:1006F00005C010926F0002C010927000808160E00F
:100700000E94F30D08952F923F925F926F927F9215
:100710008F929F92AF92BF92CF92DF92EF92FF9211
:100720000F931F93DF93CF9300D000D0CDB7DEB7E8
:100730008C011B0129833A834B835C83DC01119676
:100740008C91119787FD58C18C9161E00E94D30D67
:10075000F8015180552021F0F2E05F1609F0BEC08B
:1007600031018824992460E072E18AE790E0A401D5
:1007700093010E94A61459016A018601750108942B
:10078000E108F108010911092FEFE216F104010552
:10079000110509F008F499C060E472E48FE090E07C
:1007A000A40193010E94A61479018A010894E1082A
:1007B000F1080109110982E05816C9F49FEFE91602
:1007C000F1040105110509F010F482E084C060E92C
:1007D00070ED83E090E0A40193010E94A6147901DA
:1007E0008A010894E108F1080109110983E0AFEFDB
:1007F000EA16F1040105110509F008F467C068E480
:1008000078EE81E090E0A40193010E94A6147901A2
:100810008A010894E108F10801091109552011F431
:1008200083E01EC0B2E05B1611F084E019C0EFEF68
:10083000EE16F1040105110509F010F484E04BC037
:1008400064E274EF80E090E0A40193010E94A6149A
:1008500079018A010894E108F1080109110985E08C
:10086000FFEFEF16F1040105110581F178F162E166
:100870007AE780E090E0A40193010E94A614790138
:100880008A010894E108F10801091109552011F0C5
:1008900086E001C084E02FEFE216F10401051105A6
:1008A000A9F0A0F0C601B50120E034E040E050E03E
:1008B0000E94A61479018A010894E108F10801094F
:1008C0001109552039F485E003C081E0552019F461
:1008D00085BD3AC087E08093B10036C05101CC2479
:1008E000DD2460E072E18AE790E0A60195010E94B4
:1008F000A61479018A010894E108F1080109110997
:1009000080E0E81680E0F80681E0080780E018073C
:1009100010F491E010C068E478EE81E090E0A60168
:1009200095010E94A61479018A010894E108F10852
:100930000109110993E0A1E05A1631F48091810078
:10094000887F982B9093810089819A81AB81BC81AB
:100950000097A105B10529F48FEF9FEFAFEFBFEF2F
:1009600013C0220C331CB10180E090E029813A8150
:100970004B815C810E94521428EE33E040E050E04D
:100980000E948414C901DA01E1E05E16A1F0F2E0F0
:100990005F1619F1552081F5E7BC809320029093F2
:1009A0002102A0932202B093230280916E00826004
:1009B00080936E0021C0F0928900E09288008093BD
:1009C000270290932802A0932902B0932A028091D3
:1009D0006F00826080936F000FC0E092B30080933D
:1009E0002E0290932F02A0933002B0933102809197
:1009F00070008260809370000F900F900F900F90A6
:100A0000CF91DF911F910F91FF90EF90DF90CF90EA
:100A1000BF90AF909F908F907F906F905F903F902E
:100A20002F90089581E080933F0260933A021092E4
:100A30003D0210923E020895809139029091380251
:100A4000891B08959091380280913902981710F00F
:100A500080E00895E0913602F0913702E90FF11D30
:100A600080819F5F9093380208950895DF93CF931C
:100A70000F92CDB7DEB7698380913F028823A9F03A
:100A800080913E028032B0F480913D02E0913B02C1
:100A9000F0913C02E80FF11D608380913D028F5F71
:100AA00080933D0280933E0205C0CE01019661E035
:100AB0000E941E060F90CF91DF91089560913B0236
:100AC00070913C0280913A0240913E0221E00E94E6
:100AD000D90510923D0210923E0210923F020895F5
:100AE000862F6091360270913702413208F040E261
:100AF0000E94A105109238028093390208950E9445
:100B00007005089580E290E061E070E00E948F003F
:100B10008093360290933702109238021092390275
:100B200080E290E061E070E00E948F0080933B02E1
:100B300090933C0210923D0210923E020E94BD072B
:100B40000895982F413210F040E031C08091410269
:100B50008823E1F781E0809341028FEF8093520276
:100B600010924902415040934A024F5F990F9160A1
:100B70009093420285EE8093BC00809141028130C7
:100B8000E1F380914902841710F440914902A09149
:100B90004702B091480220E030E007C0FB01E20FBD
:100BA000F31F8D9180832F5F3F4F2417B8F3842F5D
:100BB00008951F93582F122F413210F081E03CC04E
:100BC000809141028823E1F782E0809341028FEF18
:100BD000809352021092490240934A02A091470228
:100BE000B0914802FB0102C081918D938E2F861B2C
:100BF0008417D0F3852F90E0880F991F80934202CD
:100C000085EE8093BC00112321F080914102823057
:100C1000E1F3809152028F3F11F480E00DC080918A
:100C20005202803211F482E007C080915202803378
:100C300011F084E001C083E01F910895482F6132D4
:100C400010F081E0089580914102843011F082E03B
:100C5000089560934E02A0914B02B0914C02842FF4
:100C60009C01F90102C081918D938E2F841B861700
:100C7000D0F380E008951F920F920FB60F921124C7
:100C80002F933F934F935F936F937F938F939F9394
:100C9000AF93BF93EF93FF938091B90090E0887F6B
:100CA00090708036910509F4E2C081369105CCF54B
:100CB0008832910509F47BC089329105B4F4803102
:100CC000910509F46FC0813191053CF4009709F456
:100CD00038C1089709F040C165C08831910509F411
:100CE00066C0809709F038C17FC08034910509F44F
:100CF000A3C08134910544F48033910509F47FC089
:100D0000C89709F029C186C08035910509F486C0CD
:100D10008835910509F495C08834910509F01CC106
:100D20009EC08839910509F404C189399105ECF414
:100D30008837910509F49BC0893791054CF48836B2
:100D4000910509F494C08037910509F005C18FC061
:100D50008838910509F4EDC08039910509F48DC0FA
:100D60008038910509F0F8C088C0803B910509F4EE
:100D7000B2C0813B91054CF4803A910509F491C0D1
:100D8000883A910509F0E8C0A6C0803C910509F4B5
:100D9000D4C0883C910509F4D0C0883B910509F086
:100DA000DBC0B1C0809142028093BB00C0C0909173
:100DB000490280914A02981778F490914902E09193
:100DC0004702F0914802E90FF11D80818093BB003A
:100DD0009F5F90934902ABC085ED8093BC008091EA
:100DE000BC0084FDFCCFB6C080E28093520285ED4A
:100DF0008093BC008091BC0084FDFCCFABC080E33D
:100E00008093520285ED8093BC008091BC0084FDEC
:100E1000FCCFA0C088E3809352028FC0809149022A
:100E20009091BB00E0914702F0914802E80FF11D5C
:100E300090838F5F809349029091490280914A028A
:100E400074C0809149029091BB00E0914702F091FB
:100E50004802E80FF11D90838F5F8093490285ED72
:100E60008093BC008091BC0084FDFCCF73C083E004
:100E700080934102109251025AC0809151028032F7
:100E800008F057C0809151029091BB00E0914F0251
:100E9000F0915002E80FF11D90838F5F8093510213
:100EA00046C080915102803248F480915102E09115
:100EB0004F02F0915002E80FF11D10826091510233
:100EC000E0914502F091460280914F0290915002CC
:100ED00070E0099532C084E08093410210924D0287
:100EE00010924E02E0914302F091440209958091E4
:100EF0004E02882341F481E080934E02E0914B0240
:100F0000F0914C02108290914D02E0914B02F091D1
:100F10004C02E90FF11D80818093BB009F5F90938D
:100F20004D0290914D0280914E02981710F485EC7D
:100F300001C085E88093BC000FC085EC8093BC00A5
:100F400009C01092520285ED8093BC008091BC00D4
:100F500084FDFCCF10924102FF91EF91BF91AF91C0
:100F60009F918F917F916F915F914F913F912F91C1
:100F70000F900FBE0F901F90189510924102449A47
:100F8000459AE9EBF0E080818E7F808380818D7FC0
:100F9000808388E48093B80085E48093BC0080E27D
:100FA00090E061E070E00E948F0080934702909390
:100FB000480280E290E061E070E00E948F00809340
:100FC0004B0290934C0280E290E061E070E00E945E
:100FD0008F0080934F02909350020895EF92FF92FA
:100FE0000F931F939C01F62EE42E00E412E0C8013B
:100FF000B9010E941205C8016F2D0E943605C80173
:101000006E2D0E943605C8010E945E051F910F914A
:10101000FF90EF900895BF92CF92DF92EF92FF92F0
:101020000F931F93CF93DF938C01F62E6A01E22E6C
:10103000B32E80E492E0B8010E94120580E492E0B1
:101040006F2D0E94360580E492E00E945E0580E4E8
:1010500092E0B8010E94120580E492E0B801A60176
:101060000E947F052E2D3B2DC901EC0105C080E4B7
:1010700092E00E942205899380E492E00E941C0580
:101080008823A9F780E492E00E945E05DF91CF916A
:101090001F910F91FF90EF90DF90CF90BF90089538
:1010A0004F925F926F927F928F929F92AF92BF9278
:1010B000CF92DF92EF92FF920F931F93DF93CF9324
:1010C000CDB7DEB7A4970FB6F894DEBF0FBECDBF85
:1010D000582E492E3A014B015901DE011196E1EFDC
:1010E000F1E084E201900D928150E1F7C401B30177
:1010F0000E94A3127B018C01CB01652D742D4AE067
:1011000050E00E94B401852D942D9C01690103C01B
:101110000894C11CD11CF60180818823C9F78EE296
:101120008083C801B7010E94D6129B01AC01C401A3
:10113000B3010E94D2117B018C01AA0CBB1CAA0C2A
:10114000BB1CAC0EBD1EF50161817281838194814F
:101150000E94D6129B01AC01C801B7010E948A13FC
:101160000E94A31297FF07C0909580957095619596
:101170007F4F8F4F9F4F0894C11CD11CCB01B601EC
:101180004AE050E00E94B401852D942DA4960FB63C
:10119000F894DEBF0FBECDBFCF91DF911F910F91AD
:1011A000FF90EF90DF90CF90BF90AF909F908F9087
:1011B0007F906F905F904F90089580918F02882369
:1011C00051F48DE892E06AE570E122E330E040E01E
:1011D00050E00E94830308954F925F926F927F9236
:1011E0008F929F92AF92BF92CF92DF92EF92FF9237
:1011F0000F931F93CF93DF93EC012B016E847F84B9
:101200008A859B85AC85BD858F5F9F4FAF4FBF4F54
:10121000A9F00E94D70E2A853B854C855D85621B0F
:10122000730B840B950B2E813F81488559852617BA
:1012300037074807590710F080E0DCC0882499245C
:10124000AA24BB242FC0EC89FD89EA0DFB1DE28096
:10125000F3800481158180819181A901481B590B7C
:10126000CA01B3010E94711497FF02C0860D971D39
:10127000880F991FC80ED91ED6018D919C91AA275F
:1012800097FDA095BA2FE81AF90A0A0B1B0BE28208
:10129000F382048315830894811C911CEAE0F0E03A
:1012A000AE0EBF1E8A899B89C888D988288139815A
:1012B0008816990644F2220F331FC20ED31ED601A0
:1012C0004D925C92EE24FF2400E010E022C06C8975
:1012D0007D89600F711F220F331FE889F989E20FA2
:1012E000F31F20813181442737FD4095542FFB01A6
:1012F00082819381A481B581820F931FA41FB51FA2
:1013000082839383A483B5830894E11CF11C065F58
:101310001F4F8A899B8928813981E816F906BCF21A
:10132000C9010196B3010E94711497FF02C0860D96
:10133000971D99838883EA80FB800C811D819C0125
:10134000442737FD4095542F2E153F054007510780
:1013500014F4A80197012A833B834C835D8388247E
:101360009924AA24BB243AC00C891D890A0D1B1D8F
:10137000D80112966D917D918D919C9115970E9447
:10138000D6126B017C01F801808191819C01442778
:1013900037FD4095542F8A819B81AC81BD81821796
:1013A0009307A407B50714F49C01AD01CA01B90164
:1013B0000E94D6129B01AC01C701B6010E943B12EC
:1013C000D80116966D937D938D939C9319970894ED
:1013D000811C911CEAE0F0E0AE0EBF1E8A899B8959
:1013E000881699060CF20E94D70E6A877B878C8735
:1013F0009D8781E0DF91CF911F910F91FF90EF903A
:10140000DF90CF90BF90AF909F908F907F906F9024
:101410005F904F900895EF92FF920F931F93CF9399
:10142000DF93EC018431910590F460E08A309105FE
:101430000CF061E085E00E94F30DCE016AE070E0FF
:101440000E947114FC01ED5BFE4F608111C08FEFB3
:10145000CF3FD80711F460E00BC089E394E060E06F
:1014600071E00E94D91089E394E0BE010E94C2118C
:1014700003E311E0C0E0D0E0E62EFF240FC0B70187
:101480000C2E02C0759567950A94E2F76170F80119
:1014900080810E94F30D21960E5F1F4F80912B01DA
:1014A00090912C010197C817D9074CF3DF91CF9188
:1014B0001F910F91FF90EF9008952F923F924F92BE
:1014C0005F926F927F928F929F92AF92BF92CF92D4
:1014D000DF92EF92FF920F931F93DF93CF9300D091
:1014E00000D000D0CDB7DEB783E590E062E346E000
:1014F00050E023E532E00E940B089091540280E016
:1015000060915302262F30E0282B392B3E832D8308
:101510009091560280E0209055023324282A392ADF
:101520009091580280E0409057025524482A592A49
:10153000B901882777FD8095982F0E94D61269837C
:101540007A838B839C83B101882777FD8095982FC0
:101550000E94D6125B016C01B201882777FD80954D
:10156000982F0E94D6123B014C0169817A818B81B0
:101570009C819B01AC010E948A137B018C01C601F6
:10158000B501A60195010E948A139B01AC01C80117
:10159000B7010E94D3117B018C01C401B301A401E6
:1015A00093010E948A139B01AC01C801B7010E94FC
:1015B000D3110E94F1137B018C018FEA91E0B101FC
:1015C0000E94EC0885EC91E0B2010E94EC08C80191
:1015D000B7010E94A3129B01AC018BED91E0B90110
:1015E0000E94EC0889E991E06D817E810E94EC08FF
:1015F000882309F44BC1E091AD01F091AE016981FE
:101600007A818B819C8120893189428953890E940A
:10161000D2117B018C0120E030E040E050E00E94DC
:101620008613181624F017FB109517F91095609182
:10163000570170915801882777FD8095982F0E9457
:10164000D6129B01AC01C801B7010E943712882352
:10165000BCF480915B0190915C01A0915D01B0911F
:101660005E018F5F9F4FAF4FBF4F51F40E94D70E67
:1016700060935B0170935C0180935D0190935E01C8
:1016800080915B0190915C01A0915D01B0915E0140
:101690008F5F9F4FAF4FBF4F09F400C20E94D70E1C
:1016A00020915B0130915C0140915D0150915E01A0
:1016B000621B730B840B950B655F714080409040FB
:1016C00008F4ECC1BB24B394E091AD01F091AE01FC
:1016D000E680F78000851185C0905901D0905A01AD
:1016E0000E94D70E20915F0130916001409161010D
:1016F00050916201621B730B840B950B615D774007
:101700008040904008F0CCC11AC0BB20C1F00E94BC
:10171000D70E60935F017093600180936101909395
:1017200062018091650190916601181619062CF4EA
:10173000019790936601809365010E94DD08E09116
:10174000C301F091C401E680F78000851185E09126
:10175000D901F091DA01A680B780C084D184E091EC
:10176000EF01F091F0012680378040845184C2015E
:10177000B101A20191010E948A133B014C01C801F1
:10178000B701A80197010E948A137B018C01C60151
:10179000B501A60195010E948A139B01AC01C80105
:1017A000B7010E94D3119B01AC01C401B3010E9497
:1017B000D2117B018C0120E030E040E050E00E943B
:1017C0008613181624F017FB109517F910956981E8
:1017D0007A818B819C8120E030E040E050E00E94E3
:1017E000371287FD0BC00F2EF0E0AF2EF0E0BF2EBA
:1017F000F0E8CF2EFFE3DF2EF02D0AC00F2EF0E031
:10180000AF2EF0E0BF2EF0E8CF2EFFEBDF2EF02D55
:10181000C801B7010E94F113A60195010E948A1325
:101820007B018C0189E394E06CE071E00E94D910A7
:10183000C801B70129813A814B815C810E94D21194
:10184000AB01BC0189E592E022E030E00E94500843
:1018500089E394E069E572E00E94D91089E394E09D
:1018600063E171E00E94D91089E592E0B201A10123
:1018700022E030E00E94500889E394E069E572E0DC
:101880000E94D91089E394E00E94E11080912F0119
:101890000E94400E20E0019709F421E02093790294
:1018A00080917A02281751F00E94D70E60937F0230
:1018B00070938002809381029093820280917902DA
:1018C00080937A020E94D70E20917F02309180028D
:1018D0004091810250918202621B730B840B950B25
:1018E00060937B0270937C0280937D0290937E02D2
:1018F000209153013091540140915501509156016E
:10190000261737074807590744F5909179028091C7
:101910008302891711F1909383020E94D70E2091C0
:101920008502309186024091870250918802621BA5
:10193000730B840B950B6093890270938A028093DA
:101940008B0290938C020E94D70E60938502709355
:101950008602809387029093880290918302992354
:1019600051F080918402981731F089E394E067E1A7
:1019700071E00E94F81020918302222339F58091B2
:101980008402882319F18091890290918A02A091A2
:101990008B02B0918C02895E9340A040B0404CF025
:1019A00081E090E090936401809363018FEF9FEF5B
:1019B00009C08091650190916601019664E170E033
:1019C0000E947114909366018093650120938402B4
:1019D00080917B0290917C02A0917D02B0917E0269
:1019E000895E9340A040B04054F080916501909191
:1019F000660197FD04C0109264011092630120916A
:101A00006301309164012115310561F48091650114
:101A100090916601029724F481E080938F0207C0C1
:101A200010928F022130310511F410928F028091B3
:101A30006501909166010E940B0A80918F028823B4
:101A400041F10E94D70E2091900230919102409175
:101A5000920250919302621B730B840B950B695E8B
:101A600073408040904078F18DE892E066E071E04C
:101A700024EF31E040E050E00E9483030E94D70E43
:101A800060939002709391028093920290939302DC
:101A90001AC08DE892E00E946E0315C0BB2414CEDC
:101AA000662777276C197D09882777FD8095982F01
:101AB0000E94D6129B01AC01C801B7010E943712E7
:101AC00087FD23CE3CCE26960FB6F894DEBF0FBE20
:101AD000CDBFCF91DF911F910F91FF90EF90DF90DD
:101AE000CF90BF90AF909F908F907F906F905F90BE
:101AF0004F903F902F9008950F931F93CF93DF93B4
:101B000080E492E00E94820589E394E040E855E297
:101B100060E070E00E945C0F83E590E06DE240E0E1
:101B20000E94EE0783E590E06DE240E10E94EE073F
:101B300083E590E06DE248E00E94EE0780912F017E
:101B400060E00E94D30D8091310160E00E94D30DCE
:101B500080912D0161E00E94D30D03E311E0C0E00C
:101B6000D0E008C0F801808161E00E94D30D219689
:101B70000E5F1F4F80912B0190912C01C817D90740
:101B80008CF38DE892E060912D010E94E501DF91D8
:101B9000CF911F910F9108950E94E50E0E947C0D38
:101BA0000E945D0AFDCF282F30E0C90183569F4F68
:101BB000FC01949127573F4FF9018491882391F0BC
:101BC000E82FF0E0EE0FFF1FE559FF4FA591B4910C
:101BD000662329F48C91909589238C9308958C9198
:101BE000892B8C930895482F50E0CA018F549F4F42
:101BF000FC012491CA0183569F4FFC0194914757E1
:101C00005F4FFA0134913323D1F1222331F1233094
:101C100021F4809180008F7705C0243031F48091C9
:101C200080008F7D8093800018C0213019F484B526
:101C30008F7704C0223021F484B58F7D84BD0DC020
:101C4000263021F48091B0008F7705C0273029F429
:101C50008091B0008F7D8093B000E32FF0E0EE0F15
:101C6000FF1FEB58FF4FA591B491662329F48C9187
:101C7000909589238C9308958C91892B8C9308954A
:101C8000682F70E0CB018F549F4FFC012491CB0152
:101C900083569F4FFC01449167577F4FFB019491FE
:101CA000992319F420E030E038C0222331F12330A9
:101CB00021F4809180008F7705C0243031F4809129
:101CC00080008F7D8093800018C0213019F484B586
:101CD0008F7704C0223021F484B58F7D84BD0DC080
:101CE000263021F48091B0008F7705C0273029F489
:101CF0008091B0008F7D8093B000892F90E0880F95
:101D0000991F81589F4FFC01A591B4918C9120E0BF
:101D100030E0842311F021E030E0C90108951F92E2
:101D20000F920FB60F9211242F933F938F939F938F
:101D3000AF93BF938091B0039091B103A091B20390
:101D4000B091B3033091B4030196A11DB11D232FAF
:101D50002D5F2D3720F02D570196A11DB11D209329
:101D6000B4038093B0039093B103A093B203B093F4
:101D7000B3038091AC039091AD03A091AE03B091F9
:101D8000AF030196A11DB11D8093AC039093AD03E9
:101D9000A093AE03B093AF03BF91AF919F918F918A
:101DA0003F912F910F900FBE0F901F9018958FB7F6
:101DB000F8942091B0033091B1034091B203509157
:101DC000B3038FBFB901CA010895789484B58260C6
:101DD00084BD84B5816084BD85B5826085BD85B5CF
:101DE000816085BDEEE6F0E0808181608083E1E87E
:101DF000F0E0808182608083808181608083E0E880
:101E0000F0E0808181608083E1EBF0E0808184609C
:101E10008083E0EBF0E0808181608083EAE7F0E09E
:101E20008081846080838081826080838081816002
:101E300080838081806880831092C10008951F9202
:101E40000F920FB60F9211242F933F934F935F93EE
:101E50006F937F938F939F93AF93BF93EF93FF9372
:101E60004091C600E0913504F0913604CF0101960F
:101E700060E870E00E9471149C0180913704909199
:101E800038042817390739F0EB54FC4F408330935E
:101E9000360420933504FF91EF91BF91AF919F914C
:101EA0008F917F916F915F914F913F912F910F9003
:101EB0000FBE0F901F9018955F926F927F928F9236
:101EC0009F92AF92BF92CF92DF92EF92FF920F93C9
:101ED0001F93CF93DF93EC013A014B01413482E42D
:101EE00058078FE0680780E078070CF07FC060E853
:101EF00074E88EE190E0A40193010E94A6142150A1
:101F0000304040405040CA01B90122E030E040E09A
:101F100050E00E94A61459016A01A601950120957E
:101F200030954095509594E0220F331F441F551F64
:101F30009A95D1F760E074E284EF90E00E94A614D5
:101F4000CA01B9012FEF30E040E050E00E94521486
:101F5000A40193010E94A614C90181509F4F181635
:101F600019061CF4522E5A9403C055245394521A45
:101F700060E079E08DE390E0A40193010E94A61453
:101F80002150304040405040CA01B90122E030E0C9
:101F900040E050E00E94A614209530954095509561
:101FA00083E0220F331F441F551F8A95D1F760E04D
:101FB00074E284EF90E00E94A614CA01B9012FEFE9
:101FC00030E040E050E00E945214A40193010E94CE
:101FD000A614C90181509F4F181619061CF4822FB0
:101FE000815002C081E0821B851500F5E885F985E6
:101FF00081E090E00A8802C0880F991F0A94E2F7F6
:10200000808360E079E08DE390E0A40193010E9479
:10201000A6142150304040405040CA01B90122E08E
:1020200030E040E050E00E94A61404C0E885F98545
:1020300010829501EC81FD813083EE81FF81208348
:10204000EA85FB85208141E050E0CA010E8402C090
:10205000880F991F0A94E2F7282B2083EA85FB85D5
:102060002081CA010F8402C0880F991F0A94E2F7E9
:10207000282B2083EA85FB858081088802C0440FD5
:10208000551F0A94E2F7842B8083DF91CF911F9133
:102090000F91FF90EF90DF90CF90BF90AF909F9007
:1020A0008F907F906F905F900895FC01A085B1851F
:1020B00021898C9190E0022E02C0959587950A9413
:1020C000E2F780FFF6CF0484F585E02D6083089564
:1020D00089E192E090933A048093390485EB93E090
:1020E00090933C0480933B0485EC90E090933E04F5
:1020F00080933D0484EC90E09093400480933F04EF
:1021000080EC90E0909342048093410481EC90E055
:10211000909344048093430486EC90E090934604AB
:102120008093450484E08093470483E080934804CF
:1021300087E08093490485E080934A0481E080939E
:102140004B0408950F931F93CF93DF938C01EB0102
:1021500009C02196D801ED91FC910190F081E02D0C
:10216000C801099568816623A1F7DF91CF911F917E
:102170000F910895EF92FF920F931F93CF93DF93E8
:102180008C017B01EA010CC0D7016D917D01D80162
:10219000ED91FC910190F081E02DC8010995219706
:1021A000209791F7DF91CF911F910F91FF90EF90C2
:1021B0000895DC01ED91FC910280F381E02D0995F9
:1021C00008950F931F938C01DC01ED91FC91019018
:1021D000F081E02D6DE00995D801ED91FC91019021
:1021E000F081E02DC8016AE009951F910F910895D3
:1021F0000F931F938C010E94D910C8010E94E11017
:102200001F910F9108952F923F924F925F926F927C
:102210007F928F929F92AF92BF92CF92DF92EF9276
:10222000FF920F931F93DF93CF93CDB7DEB7A097A5
:102230000FB6F894DEBF0FBECDBF1C016A017B0153
:10224000411551056105710549F4DC01ED91FC91E1
:102250000190F081E02D60E3099554C08824992411
:102260005401422E55246624772401E010E00C0F1F
:102270001D1F080D191DC701B601A30192010E947F
:102280008414F80160830894811C911CA11CB11C6A
:10229000C701B601A30192010E948414C901DA01A9
:1022A0006C017D01C114D104E104F104F1F681E077
:1022B000E82EF12CEC0EFD1EE80CF91C3E010894F2
:1022C000611C711CD501C4010197A109B1096C0100
:1022D000C818D90814C0F601EE0DFF1D60816A30E0
:1022E00010F4605D01C0695CD101ED91FC91019039
:1022F000F081E02DC10109950894E108F1086E1400
:102300007F0449F7A0960FB6F894DEBF0FBECDBF8D
:10231000CF91DF911F910F91FF90EF90DF90CF90C1
:10232000BF90AF909F908F907F906F905F904F90F5
:102330003F902F900895EF92FF920F931F93CF93AA
:10234000DF93EC017A018B0177FF0FC0E881F981FF
:102350000190F081E02D6DE2099510950095F094C3
:10236000E094E11CF11C011D111DCE01B801A70173
:102370002AE00E940311DF91CF911F910F91FF90EE
:10238000EF9008950F931F938C01AB01662757FDC3
:102390006095762F0E949B11C8010E94E1101F9149
:1023A0000F9108955058BB27AA270ED075C166D14A
:1023B00030F06BD120F031F49F3F11F41EF45BC17B
:1023C0000EF4E095E7FB51C1E92F77D180F3BA17FE
:1023D000620773078407950718F071F49EF58FC1A3
:1023E0000EF4E0950B2EBA2FA02D0B01B901900130
:1023F0000C01CA01A0011124FF27591B99F0593F74
:1024000050F4503E68F11A16F040A22F232F342FBB
:102410004427585FF3CF469537952795A795F04009
:102420005395C9F77EF41F16BA0B620B730B840B1E
:10243000BAF09150A1F0FF0FBB1F661F771F881FD6
:10244000C2F70EC0BA0F621F731F841F48F487952E
:1024500077956795B795F7959E3F08F0B3CF93951D
:10246000880F08F09927EE0F979587950895D9D092
:1024700008F481E008950CD00FC107D140F0FED0E0
:1024800030F021F45F3F19F0F0C0511139C1F3C0B1
:1024900014D198F39923C9F35523B1F3951B550B28
:1024A000BB27AA2762177307840738F09F5F5F4F27
:1024B000220F331F441FAA1FA9F333D00E2E3AF068
:1024C000E0E830D091505040E695001CCAF729D082
:1024D000FE2F27D0660F771F881FBB1F26173707D1
:1024E0004807AB07B0E809F0BB0B802DBF01FF2701
:1024F00093585F4F2AF09E3F510568F0B6C000C167
:102500005F3FECF3983EDCF3869577956795B7953A
:10251000F7959F5FC9F7880F911D9695879597F955
:102520000895E1E0660F771F881FBB1F62177307CE
:102530008407BA0720F0621B730B840BBA0BEE1FE3
:1025400088F7E095089504D06894B111D9C0089532
:10255000BCD088F09F5790F0B92F9927B751A0F0C1
:10256000D1F0660F771F881F991F1AF0BA95C9F727
:1025700012C0B13081F0C3D0B1E00895C0C0672F60
:10258000782F8827B85F39F0B93FCCF386957795D7
:102590006795B395D9F73EF49095809570956195C0
:1025A0007F4F8F4F9F4F0895E89409C097FB3EF4EB
:1025B00090958095709561957F4F8F4F9F4F992390
:1025C000A9F0F92F96E9BB279395F695879577950E
:1025D0006795B795F111F8CFFAF4BB0F11F460FFCE
:1025E0001BC06F5F7F4F8F4F9F4F16C0882311F026
:1025F00096E911C0772321F09EE8872F762F05C03A
:10260000662371F096E8862F70E060E02AF09A95D4
:10261000660F771F881FDAF7880F9695879597F9C9
:102620000895990F0008550FAA0BE0E8FEEF161663
:102630001706E807F907C0F012161306E407F507B6
:1026400098F0621B730B840B950B39F40A2661F02A
:10265000232B242B252B21F408950A2609F4A140CD
:10266000A6958FEF811D811D089597F99F6780E8DA
:1026700070E060E008959FEF80EC089500240A94D4
:102680001616170618060906089500240A9412164D
:102690001306140605060895092E0394000C11F480
:1026A000882352F0BB0F40F4BF2B11F460FF04C02D
:1026B0006F5F7F4F8F4F9F4F089557FD9058440F86
:1026C000551F59F05F3F71F04795880F97FB991F91
:1026D00061F09F3F79F0879508951216130614064E
:1026E000551FF2CF4695F1DF08C0161617061806DB
:1026F000991FF1CF86957105610508940895E894B6
:10270000BB2766277727CB0197F908958ADF08F45E
:102710008FEF08950BD0C0CFB1DF28F0B6DF18F0EF
:10272000952309F0A2CFA7CF1124EACFC6DFA0F3EB
:10273000959FD1F3950F50E0551F629FF001729F56
:10274000BB27F00DB11D639FAA27F00DB11DAA1F75
:10275000649F6627B00DA11D661F829F2227B00DC2
:10276000A11D621F739FB00DA11D621F839FA00D4D
:10277000611D221F749F3327A00D611D231F849F9D
:10278000600D211D822F762F6A2F11249F575040F4
:102790008AF0E1F088234AF0EE0FFF1FBB1F661F8F
:1027A000771F881F91505040A9F79E3F510570F048
:1027B0005CCFA6CF5F3FECF3983EDCF38695779530
:1027C0006795B795F795E7959F5FC1F7FE2B880F43
:1027D000911D9695879597F9089511F40EF44BCFB6
:1027E0004AC073DFD0F39923D9F3CEF39F57550B2B
:1027F00087FF51D056959795B0E020F4660F771F6C
:10280000881FBB1F1F930F9300249001A00180011C
:10281000F001A0E80E0F1F1F0A1E511D601B710B57
:102820008009B50B48F4600F711F801DB51F0E1B8A
:102830001F0B0A0A510907C02E0F3F1F4A1F0E0F18
:102840001F1F0A1E511D660F771F881FBB1FA695ED
:10285000F795E795F8F60617170708065B07211D99
:10286000311D411D0F911F91B901842F9158880F7F
:102870009695879508959F3F49F0915028F4869545
:1028800077956795B7959F5F80389F4F880F96958E
:10289000879597F9089591505040660F771F881FCC
:1028A000D2F70895629FD001739FF001829FE00DDF
:1028B000F11D649FE00DF11D929FF00D839FF00DBF
:1028C000749FF00D659FF00D9927729FB00DE11D6B
:1028D000F91F639FB00DE11DF91FBD01CF01112448
:1028E000089597FB092E07260AD077FD04D049D01A
:1028F00006D000201AF4709561957F4F0895F6F781
:10290000909581959F4F0895A1E21A2EAA1BBB1B9B
:10291000FD010DC0AA1FBB1FEE1FFF1FA217B307AB
:10292000E407F50720F0A21BB30BE40BF50B661FC1
:10293000771F881F991F1A9469F760957095809585
:1029400090959B01AC01BD01CF01089597FB092E25
:1029500005260ED057FD04D0D7DF0AD0001C38F46E
:1029600050954095309521953F4F4F4F5F4F0895BB
:10297000F6F790958095709561957F4F8F4F9F4F9B
:102980000895AA1BBB1B51E107C0AA1FBB1FA617B6
:10299000B70710F0A61BB70B881F991F5A95A9F708
:1029A00080959095BC01CD010895EE0FFF1F059015
:0A29B000F491E02D0994F894FFCF94
:1029BA0043616E27742077726974650020786572A6
:1029CA00723A0020673A00425554544F4E205055EF
:1029DA005348454400200050040000080009000C38
:1029EA00000800070006000400030002000A000BAA
:1029FA000005003F065B4F666D7D077F6F377C39A8
:102A0A005E7971320000000A001400FFFFFFFFFF29
:102A1A00FFFFFF0100FFFF1400000000000000009C
:102A2A000005000000000000000000140000000083
:102A3A000000000000140000000000000000005028
:102A4A000000000000000000000000000000006418
:102A5A00000000FFFFFFFF1400940202006701005C
:102A6A00000000000064000000FFFFFFFF1400BC2C
:102A7A000201007B0100000000000064000000FF6A
:102A8A00FFFFFF1400E402010085010000000000BE
:102A9A0000E8030000FFFFFFFF50000C0301008F56
:102AAA0001000000000A00000064000000E80300C2
:102ABA000010270000A086010040420F008096986F
:102ACA000000E1F505000000005510A210BA100040
:00000001FF
