:100000000C9436000C945E000C945E000C945E0020
:100010000C945E000C945E000C945E000C945E00E8
:100020000C945E000C945E000C945E000C945E00D8
:100030000C945E000C945E000C945E000C945E00C8
:100040000C94EC080C945E000C9498090C945E00DF
:100050000C945E000C945E000C945E000C945E00A8
:100060000C9480050C945E007A04E10A11241FBEF2
:10007000CFEFD4E0DEBFCDBF11E0A0E0B1E0E8EB10
:10008000FDE102C005900D92AE33B107D9F713E040
:10009000AEE3B1E001C01D92A531B107E1F710E078
:1000A000CCE6D0E004C02297FE010E949F0EC83625
:1000B000D107C9F70E94E5080C94DA0E0C940000F1
:1000C0000F931F93CF93DF93689F8001699F100D5B
:1000D000789F100D1124C8010E947C00EC0100974C
:1000E00029F060E070E0A8010E947E01CE01DF915E
:1000F000CF911F910F910895CF93DF93BC01823070
:10010000910510F462E070E0A0911303B091140324
:10011000ED01E0E0F0E040E050E021C0888199810D
:100120008617970769F48A819B81309719F093832A
:10013000828304C09093140380931303FE0134C0A0
:100140006817790738F44115510519F08417950798
:1001500008F4AC01FE018A819B819C01E901209792
:10016000E9F641155105A9F1CA01861B970B0497C1
:1001700008F4BA01E0E0F0E02AC08D919C9111975B
:1001800084179507F9F46417750781F412968D9119
:100190009C911397309719F09383828304C09093B6
:1001A000140380931303FD0132964CC0CA01861BD1
:1001B000970BFD01E80FF91F6193719302978D93DF
:1001C0009C9340C0FD01828193819C01D9011097CD
:1001D000A1F68091110390911203892B41F4809133
:1001E0000B0190910C0190931203809311034091A5
:1001F0000D0150910E014115510541F44DB75EB707
:100200008091090190910A01481B590B209111031B
:1002100030911203CA01821B930B8617970780F057
:10022000AB014E5F5F4F8417950750F0420F531F8D
:100230005093120340931103F9016193719302C02B
:10024000E0E0F0E0CF01DF91CF910895CF93DF930D
:10025000009709F450C0EC0122971B821A82A091EA
:100260001303B0911403109709F140E050E0AC176C
:10027000BD0708F1BB83AA83FE0121913191E20FF2
:10028000F31FAE17BF0779F48D919C911197280F3A
:10029000391F2E5F3F4F3983288312968D919C9191
:1002A00013979B838A834115510571F4D0931403EE
:1002B000C093130320C012968D919C911397AD01AA
:1002C000009711F0DC01D3CFFA01D383C2832191CF
:1002D0003191E20FF31FCE17DF0769F4888199810E
:1002E000280F391F2E5F3F4FFA01318320838A8107
:1002F0009B8193838283DF91CF910895DC0101C0BC
:100300006D9341505040E0F70895FB019F01E89440
:100310004230C4F04532B4F44A3029F497FB1EF45D
:10032000909581959F4F642F77270E94890E805D5D
:100330008A330CF0895D8193CB010097A1F716F405
:100340005DE251931082C9010C94BD03AEE0B0E0B0
:10035000ECEAF1E00C94B10E0D891E8986E08C83E5
:100360001A8309838FEF9FE79E838D839E01275E0B
:100370003F4FCE0101966F89788DA9010E94CA0175
:100380002F813885020F131FF80110822E96E4E0AA
:100390000C94CD0EABE0B0E0E0EDF1E00C94A30ED8
:1003A0003C012B015A01FC0117821682838181FDD9
:1003B00003C06FEF7FEFC6C19AE0892E1E0108943B
:1003C000211C311CF3012381F20123FD859123FFC0
:1003D00081912F01882309F4B2C1853239F423FDBC
:1003E000859123FF81912F01853229F490E0B3019B
:1003F0000E94CD03E7CF982FFF24EE249924FFE13C
:10040000FF15D0F09B3269F09C3228F4903259F0FD
:10041000933291F40EC09D3249F0903369F441E07B
:1004200024C052E0F52A84E0F82A28C098E0F92A8E
:1004300025C0E0E1FE2A22C0F7FC29C0892F8053A5
:100440008A3070F4F6FE05C0989C902C1124980E0A
:1004500015C0E89CE02C1124E80EF0E2FF2A0EC043
:100460009E3229F4F6FC6BC140E4F42A07C09C36A6
:1004700019F450E8F52A02C0983649F4F20123FD38
:10048000959123FF91912F01992309F0B8CF892FDE
:100490008554833018F08052833038F444E050E0C3
:1004A000A40EB51E5FE359830FC0933631F0933726
:1004B00079F0933509F056C020C0F5018081898319
:1004C00042E050E0A40EB51E610101E010E012C050
:1004D000F501C080D180F6FC03C06FEF7FEF02C052
:1004E000692D70E042E050E0A40EB51EC6010E94E6
:1004F000B2038C015FE7F52214C0F501C080D18002
:10050000F6FC03C06FEF7FEF02C0692D70E042E0A0
:1005100050E0A40EB51EC6010E94A7038C0150E84E
:10052000F52AF3FE07C01AC080E290E0B3010E94F2
:10053000CD03EA948E2D90E008171907A8F30EC09A
:10054000F601F7FC8591F7FE81916F0190E0B30110
:100550000E94CD03E110EA940150104001151105ED
:1005600079F7EAC0943611F0993669F5F7FE08C0BC
:10057000F501208131814281538184E090E00AC0FD
:10058000F501808191819C01442737FD4095542FCE
:1005900082E090E0A80EB91E9FE6F92257FF09C03D
:1005A00050954095309521953F4F4F4F5F4FE0E874
:1005B000FE2ACA01B901A1012AE030E00E94F90334
:1005C000D82ED21840C0953729F41F2D1F7E2AE05F
:1005D00030E01DC01F2D197F9F3661F0903720F449
:1005E000983509F0ACC00FC0903739F0983709F052
:1005F000A6C004C028E030E00AC0106114FD1460F9
:1006000020E130E004C014FD166020E132E017FF65
:1006100008C0F501608171818281938144E050E0DE
:1006200008C0F50180819181BC0180E090E042E04A
:1006300050E0A40EB51EA1010E94F903D82ED218D5
:100640008FE7F82EF122F6FE0BC05EEFF522D914EB
:1006500038F4F4FE07C0F2FC05C08FEEF82202C0A9
:100660001D2D01C0192DF4FE0DC0FE01ED0DF11D73
:100670008081803319F499EEF92208C01F5FF2FEE1
:1006800005C003C08F2D867809F01F5F0F2DF3FC86
:1006900014C0F0FE0FC01E1510F09D2C0BC09D2C39
:1006A0009E0C911A1E2D06C080E290E0B3010E94BC
:1006B000CD031F5F1E15C0F304C01E1510F4E11A10
:1006C00001C0EE2404FF0FC080E390E0B3010E945C
:1006D000CD0302FF1DC001FD03C088E790E00EC0FE
:1006E00088E590E00BC0802F867891F001FF02C072
:1006F0008BE201C080E2F7FC8DE290E0B3010E9442
:10070000CD0306C080E390E0B3010E94CD039A942C
:10071000D914C0F3DA94F101ED0DF11D808190E060
:10072000B3010E94CD03DD20A9F706C080E290E06E
:10073000B3010E94CD03EA94EE20C1F743CEF3014A
:1007400066817781CB012B96E2E10C94BF0EFC0110
:100750000590615070400110D8F7809590958E0FEC
:100760009F1F0895FC016150704001900110D8F75F
:10077000809590958E0F9F1F0895DC01FC01672FD7
:1007800071917723E1F7329704C07C916D93708368
:100790006291AE17BF07C8F308950F931F93CF93CD
:1007A000DF938C01EB018B8181FF1BC082FF0DC0A9
:1007B0002E813F818C819D812817390764F4E8815F
:1007C000F9810193F983E88306C0E885F985802FD4
:1007D0000995892B31F48E819F8101969F838E83A9
:1007E00002C00FEF1FEFC801DF91CF911F910F9152
:1007F0000895FA01AA27283051F1203181F1E894B7
:100800006F936E7F6E5F7F4F8F4F9F4FAF4FB1E003
:100810003ED0B4E03CD0670F781F891F9A1FA11DFE
:10082000680F791F8A1F911DA11D6A0F711D811DFF
:10083000911DA11D20D009F468943F912AE0269FC4
:1008400011243019305D3193DEF6CF010895462F23
:100850004770405D4193B3E00FD0C9F7F6CF462F04
:100860004F70405D4A3318F0495D31FD405241936D
:1008700002D0A9F7EACFB4E0A6959795879577952A
:100880006795BA95C9F700976105710508959B01B1
:10089000AC010A2E06945795479537952795BA953A
:1008A000C9F7620F731F841F951FA01D089581E073
:1008B00080934701609342011092450110924601D6
:1008C00008958091410190914001891B0895909174
:1008D000400180914101981710F080E00895E09167
:1008E0003E01F0913F01E90FF11D80819F5F9093E0
:1008F000400108950895DF93CF930F92CDB7DEB7EF
:100900006983809147018823A9F080914601803254
:10091000B0F480914501E0914301F0914401E80F6A
:10092000F11D6083809145018F5F80934501809325
:10093000460105C0CE01019661E00E9463050F905B
:10094000CF91DF91089560914301709144018091AE
:1009500042014091460121E00E941E05109245018E
:1009600010924601109247010895862F60913E0132
:1009700070913F01413208F040E20E94E60410927B
:1009800040018093410108950E94B504089580E2DA
:1009900090E061E070E00E94600080933E019093DF
:1009A0003F01109240011092410180E290E061E02D
:1009B00070E00E9460008093430190934401109284
:1009C0004501109246010E9402070895982F413276
:1009D00010F040E031C0809149018823E1F781E0C7
:1009E000809349018FEF80935A0110925101415039
:1009F000409352014F5F990F916090934A0185EEA9
:100A00008093BC00809149018130E1F380915101D4
:100A1000841710F440915101A0914F01B091500101
:100A200020E030E007C0FB01E20FF31F8D918083CF
:100A30002F5F3F4F2417B8F3842F08951F93582F2B
:100A4000122F413210F081E03CC08091490188238F
:100A5000E1F782E0809349018FEF80935A01109271
:100A6000510140935201A0914F01B0915001FB01FF
:100A700002C081918D938E2F861B8417D0F3852F12
:100A800090E0880F991F80934A0185EE8093BC0007
:100A9000112321F0809149018230E1F380915A01C4
:100AA0008F3F11F480E00DC080915A01803211F423
:100AB00082E007C080915A01803311F084E001C0C8
:100AC00083E01F910895482F613210F081E008956E
:100AD00080914901843011F082E0089560935601BD
:100AE000A0915301B0915401842F9C01F90102C0DF
:100AF00081918D938E2F841B8617D0F380E008950B
:100B00001F920F920FB60F9211242F933F934F9382
:100B10005F936F937F938F939F93AF93BF93EF9365
:100B2000FF938091B90090E0887F907080369105A6
:100B300009F4E2C081369105CCF58832910509F4BB
:100B40007BC089329105B4F48031910509F46FC0FE
:100B5000813191053CF4009709F438C1089709F0F8
:100B600040C165C08831910509F466C0809709F0DD
:100B700038C17FC08034910509F4A3C08134910548
:100B800044F48033910509F47FC0C89709F029C166
:100B900086C08035910509F486C08835910509F431
:100BA00095C08834910509F01CC19EC08839910513
:100BB00009F404C189399105ECF48837910509F4E9
:100BC0009BC0893791054CF48836910509F494C08F
:100BD0008037910509F005C18FC08838910509F467
:100BE000EDC08039910509F48DC08038910509F078
:100BF000F8C088C0803B910509F4B2C0813B9105E3
:100C00004CF4803A910509F491C0883A910509F0B5
:100C1000E8C0A6C0803C910509F4D4C0883C910589
:100C200009F4D0C0883B910509F0DBC0B1C08091C8
:100C30004A018093BB00C0C0909151018091520144
:100C4000981778F490915101E0914F01F091500183
:100C5000E90FF11D80818093BB009F5F909351014C
:100C6000ABC085ED8093BC008091BC0084FDFCCFBF
:100C7000B6C080E280935A0185ED8093BC008091DC
:100C8000BC0084FDFCCFABC080E380935A0185EDAE
:100C90008093BC008091BC0084FDFCCFA0C088E3A1
:100CA00080935A018FC0809151019091BB00E091D7
:100CB0004F01F0915001E80FF11D90838F5F8093F9
:100CC0005101909151018091520174C08091510164
:100CD0009091BB00E0914F01F0915001E80FF11DA0
:100CE00090838F5F8093510185ED8093BC0080914C
:100CF000BC0084FDFCCF73C083E080934901109257
:100D000059015AC080915901803208F057C0809132
:100D100059019091BB00E0915701F0915801E80F03
:100D2000F11D90838F5F8093590146C080915901D6
:100D3000803248F480915901E0915701F0915801B7
:100D4000E80FF11D108260915901E0914D01F09181
:100D50004E01809157019091580170E0099532C081
:100D600084E0809349011092550110925601E09160
:100D70004B01F0914C01099580915601882341F473
:100D800081E080935601E0915301F091540110826B
:100D900090915501E0915301F0915401E90FF11D3B
:100DA00080818093BB009F5F909355019091550186
:100DB00080915601981710F485EC01C085E8809366
:100DC000BC000FC085EC8093BC0009C010925A0192
:100DD00085ED8093BC008091BC0084FDFCCF109217
:100DE0004901FF91EF91BF91AF919F918F917F91B9
:100DF0006F915F914F913F912F910F900FBE0F9088
:100E00001F90189510924901449A459AE9EBF0E039
:100E100080818E7F808380818D7F808388E4809332
:100E2000B80085E48093BC0080E290E061E070E06F
:100E30000E94600080934F019093500180E290E007
:100E400061E070E00E946000809353019093540130
:100E500080E290E061E070E00E94600080935701C2
:100E6000909358010895EF92FF920F931F939C0166
:100E7000F62EE42E08E411E0C801B9010E945704DF
:100E8000C8016F2D0E947B04C8016E2D0E947B0457
:100E9000C8010E94A3041F910F91FF90EF90089545
:100EA000BF92CF92DF92EF92FF920F931F93CF9357
:100EB000DF938C01F62E6A01E22EB32E88E491E0D6
:100EC000B8010E94570488E491E06F2D0E947B04D2
:100ED00088E491E00E94A30488E491E0B8010E94B4
:100EE000570488E491E0B801A6010E94C4042E2DA5
:100EF0003B2DC901EC0105C088E491E00E94670424
:100F0000899388E491E00E9461048823A9F788E42A
:100F100091E00E94A304DF91CF911F910F91FF9068
:100F2000EF90DF90CF90BF9008954F925F926F92B5
:100F30007F928F929F92AF92BF92CF92DF92EF9269
:100F4000FF920F931F93DF93CF93CDB7DEB7A49794
:100F50000FB6F894DEBF0FBECDBF582E492E3A0112
:100F60004B015901DE011196EFE0F1E084E20190BE
:100F70000D928150E1F7C401B3010E94930C7B01F3
:100F80008C01CB01652D742D4AE050E00E94850153
:100F9000852D942D9C01690103C00894C11CD11CAE
:100FA000F60180818823C9F78EE28083C801B701EA
:100FB0000E94C60C9B01AC01C401B3010E942E0C1F
:100FC0007B018C01AA0CBB1CAA0CBB1CAC0EBD1E69
:100FD000F50161817281838194810E94C60C9B011D
:100FE000AC01C801B7010E94520D0E94930C97FFFB
:100FF00007C090958095709561957F4F8F4F9F4F5B
:101000000894C11CD11CCB01B6014AE050E00E94FB
:101010008501852D942DA4960FB6F894DEBF0FBEE2
:10102000CDBFCF91DF911F910F91FF90EF90DF9097
:10103000CF90BF90AF909F908F907F906F905F9078
:101040004F9008958F929F92AF92BF92CF92DF926E
:10105000EF92FF920F931F9383E590E062E346E0E7
:1010600050E02BE531E00E94500790915C0180E058
:10107000C0905B01DD24C82AD92A90915E0180E0EE
:10108000E0905D01FF24E82AF92A9091600180E058
:1010900000915F0110E0082B192BEE9CB001EF9C32
:1010A000700DFE9C700D1124CC9C9001CD9C300DD8
:1010B000DC9C300D1124620F731F009F9001019F73
:1010C000300D109F300D1124620F731F882777FD9C
:1010D0008095982F0E94C60C0E94B90DAB01BC01EF
:1010E00021E6822E22E0922EC40122E030E00E940E
:1010F00095078DB79EB70A970FB6F8949EBF0FBE9F
:101100008DBFEDB7FEB7319691E6A92E91E0B92ECD
:10111000ADB7BEB71296BC92AE92119780E091E047
:1011200093838283D582C482F782E6821187008707
:101130000E94A6018DB79EB70A960FB6F8949EBF7F
:101140000FBE8DBF0EEF12E0C801B4010E94520B1A
:10115000C801B5010E94520BC8014AE050E060E0AE
:1011600070E020E030E00E94190C6FE070E080E059
:1011700090E00E9434091F910F91FF90EF90DF9053
:10118000CF90BF90AF909F908F90089588E491E0AA
:101190000E94C7048EEF92E040E855E260E070E004
:1011A0000E94D50983E590E06DE240E00E9433079C
:1011B00083E590E06DE240E10E94330783E590E033
:1011C0006DE248E00E94330708950E945E090E9484
:1011D000C6080E942208FDCF1F920F920FB60F92F1
:1011E00011242F933F938F939F93AF93BF9380913D
:1011F000750290917602A0917702B09178023091B9
:1012000079020196A11DB11D232F2D5F2D3720F0EE
:101210002D570196A11DB11D20937902809375026F
:1012200090937602A0937702B09378028091710236
:1012300090917202A0917302B09174020196A11D67
:10124000B11D8093710290937202A0937302B093C8
:101250007402BF91AF919F918F913F912F910F9009
:101260000FBE0F901F901895EF92FF920F931F9350
:101270007B018C018FB7F8944091750250917602F2
:1012800060917702709178028FBF2FB7F8948091A8
:10129000750290917602A0917702B09178022FBFEB
:1012A000841B950BA60BB70BE816F9060A071B075C
:1012B00060F71F910F91FF90EF900895789484B597
:1012C000826084BD84B5816084BD85B5826085BD42
:1012D00085B5816085BDEEE6F0E080818160808328
:1012E000E1E8F0E08081826080838081816080839A
:1012F000E0E8F0E0808181608083E1EBF0E08081D4
:1013000084608083E0EBF0E0808181608083EAE7A5
:10131000F0E080818460808380818260808380812E
:10132000816080838081806880831092C1000895ED
:101330001F920F920FB60F9211242F933F934F934A
:101340005F936F937F938F939F93AF93BF93EF932D
:10135000FF934091C600E091FA02F091FB02CF01A9
:10136000019660E870E00E94390E9C018091FC02B9
:101370009091FD022817390739F0E658FD4F408358
:101380003093FB022093FA02FF91EF91BF91AF914E
:101390009F918F917F916F915F914F913F912F918D
:1013A0000F900FBE0F901F9018955F926F927F92D3
:1013B0008F929F92AF92BF92CF92DF92EF92FF9265
:1013C0000F931F93CF93DF93EC013A014B0141340C
:1013D00082E458078FE0680780E078070CF07FC050
:1013E00060E874E88EE190E0A40193010E946E0E23
:1013F0002150304040405040CA01B90122E030E065
:1014000040E050E00E946E0E59016A01A60195016C
:10141000209530954095509594E0220F331F441F3E
:10142000551F9A95D1F760E074E284EF90E00E9436
:101430006E0ECA01B9012FEF30E040E050E00E948B
:101440001A0EA40193010E946E0EC90181509F4F94
:10145000181619061CF4522E5A9403C0552453949E
:10146000521A60E079E08DE390E0A40193010E94BC
:101470006E0E2150304040405040CA01B90122E078
:1014800030E040E050E00E946E0E2095309540958F
:10149000509583E0220F331F441F551F8A95D1F7C3
:1014A00060E074E284EF90E00E946E0ECA01B90120
:1014B0002FEF30E040E050E00E941A0EA4019301AB
:1014C0000E946E0EC90181509F4F181619061CF418
:1014D000822F815002C081E0821B851500F5E885CE
:1014E000F98581E090E00A8802C0880F991F0A946C
:1014F000E2F7808360E079E08DE390E0A40193015E
:101500000E946E0E2150304040405040CA01B90147
:1015100022E030E040E050E00E946E0E04C0E8851A
:10152000F98510829501EC81FD813083EE81FF8188
:101530002083EA85FB85208141E050E0CA010E84CA
:1015400002C0880F991F0A94E2F7282B2083EA85AE
:10155000FB852081CA010F8402C0880F991F0A945D
:10156000E2F7282B2083EA85FB858081088802C06A
:10157000440F551F0A94E2F7842B8083DF91CF91AB
:101580001F910F91FF90EF90DF90CF90BF90AF90A1
:101590009F908F907F906F905F900895FC01A08541
:1015A000B18521898C9190E0022E02C09595879596
:1015B0000A94E2F780FFF6CF0484F585E02D60837E
:1015C000089587E391E09093FF028093FE028AE7FB
:1015D00092E0909301038093000385EC90E0909358
:1015E00003038093020384EC90E0909305038093BF
:1015F000040380EC90E0909307038093060381EC52
:1016000090E0909309038093080386EC90E0909318
:101610000B0380930A0384E080930C0383E08093A0
:101620000D0387E080930E0385E080930F0381E034
:101630008093100308950F931F93CF93DF938C0132
:10164000EB0109C02196D801ED91FC910190F08148
:10165000E02DC801099568816623A1F7DF91CF913C
:101660001F910F910895EF92FF920F931F93CF93C5
:10167000DF938C017B01EA010CC0D7016D917D01E4
:10168000D801ED91FC910190F081E02DC801099500
:101690002197209791F7DF91CF911F910F91FF90A4
:1016A000EF900895DC01ED91FC910280F381E02D33
:1016B000099508952F923F924F925F926F927F9279
:1016C0008F929F92AF92BF92CF92DF92EF92FF9252
:1016D0000F931F93DF93CF93CDB7DEB7A0970FB6CD
:1016E000F894DEBF0FBECDBF1C016A017B0141151E
:1016F00051056105710549F4DC01ED91FC91019002
:10170000F081E02D60E3099554C0882499245401A8
:10171000422E55246624772401E010E00C0F1D1F93
:10172000080D191DC701B601A30192010E944C0EBC
:10173000F80160830894811C911CA11CB11CC70195
:10174000B601A30192010E944C0EC901DA016C019D
:101750007D01C114D104E104F104F1F681E0E82E29
:10176000F12CEC0EFD1EE80CF91C3E010894611CE6
:10177000711CD501C4010197A109B1096C01C818F8
:10178000D90814C0F601EE0DFF1D60816A3010F417
:10179000605D01C0695CD101ED91FC910190F08127
:1017A000E02DC10109950894E108F1086E147F0449
:1017B00049F7A0960FB6F894DEBF0FBECDBFCF910C
:1017C000DF911F910F91FF90EF90DF90CF90BF902E
:1017D000AF909F908F907F906F905F904F903F90D1
:1017E0002F900895EF92FF920F931F93CF93DF9363
:1017F000EC017A018B0177FF0FC0E881F98101903C
:10180000F081E02D6DE2099510950095F094E0943B
:10181000E11CF11C011D111DCE01B801A7012AE038
:101820000E945A0BDF91CF911F910F91FF90EF9083
:101830000895DC012115310541F4ED91FC910190F1
:10184000F081E02D642F099508952A30310519F4AF
:101850000E94F20B08950E945A0B08955058BB271E
:10186000AA270ED0E5C0D6D030F0DBD020F031F47E
:101870009F3F11F41EF4CBC00EF4E095E7FBC1C00E
:10188000E92FE7D080F3BA1762077307840795073B
:1018900018F071F49EF5FFC00EF4E0950B2EBA2FF0
:1018A000A02D0B01B90190010C01CA01A001112466
:1018B000FF27591B99F0593F50F4503E68F11A1612
:1018C000F040A22F232F342F4427585FF3CF4695A3
:1018D00037952795A795F0405395C9F77EF41F16C5
:1018E000BA0B620B730B840BBAF09150A1F0FF0F8F
:1018F000BB1F661F771F881FC2F70EC0BA0F621F7B
:10190000731F841F48F4879577956795B795F7956A
:101910009E3F08F0B3CF9395880F08F09927EE0FFC
:1019200097958795089504D06894B111B5C008952E
:1019300098D088F09F5790F0B92F9927B751A0F011
:10194000D1F0660F771F881F991F1AF0BA95C9F753
:1019500012C0B13081F09FD0B1E008959CC0672FD4
:10196000782F8827B85F39F0B93FCCF38695779503
:101970006795B395D9F73EF49095809570956195EC
:101980007F4F8F4F9F4F0895E89409C097FB3EF417
:1019900090958095709561957F4F8F4F9F4F9923BC
:1019A000A9F0F92F96E9BB279395F695879577953A
:1019B0006795B795F111F8CFFAF4BB0F11F460FFFA
:1019C0001BC06F5F7F4F8F4F9F4F16C0882311F052
:1019D00096E911C0772321F09EE8872F762F05C066
:1019E000662371F096E8862F70E060E02AF09A9501
:1019F000660F771F881FDAF7880F9695879597F9F6
:101A0000089597F99F6780E870E060E008959FEF80
:101A100080EC089500240A94161617061806090685
:101A2000089500240A941216130614060506089554
:101A3000092E0394000C11F4882352F0BB0F40F4DC
:101A4000BF2B11F460FF04C06F5F7F4F8F4F9F4F1C
:101A5000089557FD9058440F551F59F05F3F71F09E
:101A60004795880F97FB991F61F09F3F79F0879505
:101A70000895121613061406551FF2CF4695F1DF8E
:101A800008C0161617061806991FF1CF869571051E
:101A9000610508940895E894BB2766277727CB0152
:101AA00097F908950BD0C4CFB5DF28F0BADF18F04E
:101AB000952309F0A6CFABCF1124EECFCADFA0F358
:101AC000959FD1F3950F50E0551F629FF001729FD3
:101AD000BB27F00DB11D639FAA27F00DB11DAA1FF2
:101AE000649F6627B00DA11D661F829F2227B00D3F
:101AF000A11D621F739FB00DA11D621F839FA00DCA
:101B0000611D221F749F3327A00D611D231F849F19
:101B1000600D211D822F762F6A2F11249F57504070
:101B20008AF0E1F088234AF0EE0FFF1FBB1F661F0B
:101B3000771F881F91505040A9F79E3F510570F0C4
:101B400060CFAACF5F3FECF3983EDCF386957795A4
:101B50006795B795F795E7959F5FC1F7FE2B880FBF
:101B6000911D9695879597F9089511F40EF44FCF2E
:101B70004AC077DFD0F39923D9F3CEF39F57550BA3
:101B800087FF51D056959795B0E020F4660F771FE8
:101B9000881FBB1F1F930F9300249001A001800199
:101BA000F001A0E80E0F1F1F0A1E511D601B710BD4
:101BB0008009B50B48F4600F711F801DB51F0E1B07
:101BC0001F0B0A0A510907C02E0F3F1F4A1F0E0F95
:101BD0001F1F0A1E511D660F771F881FBB1FA6956A
:101BE000F795E795F8F60617170708065B07211D16
:101BF000311D411D0F911F91B901842F9158880FFC
:101C00009695879508959F3F49F0915028F48695C1
:101C100077956795B7959F5F80389F4F880F96950A
:101C2000879597F9089591505040660F771F881F48
:101C3000D2F70895629FD001739FF001829FE00D5B
:101C4000F11D649FE00DF11D929FF00D839FF00D3B
:101C5000749FF00D659FF00D9927729FB00DE11DE7
:101C6000F91F639FB00DE11DF91FBD01CF011124C4
:101C7000089597FB092E07260AD077FD04D049D096
:101C800006D000201AF4709561957F4F0895F6F7FD
:101C9000909581959F4F0895A1E21A2EAA1BBB1B18
:101CA000FD010DC0AA1FBB1FEE1FFF1FA217B30728
:101CB000E407F50720F0A21BB30BE40BF50B661F3E
:101CC000771F881F991F1A9469F760957095809502
:101CD00090959B01AC01BD01CF01089597FB092EA2
:101CE00005260ED057FD04D0D7DF0AD0001C38F4EB
:101CF00050954095309521953F4F4F4F5F4F089538
:101D0000F6F790958095709561957F4F8F4F9F4F17
:101D10000895AA1BBB1B51E107C0AA1FBB1FA61732
:101D2000B70710F0A61BB70B881F991F5A95A9F784
:101D300080959095BC01CD010895EE0FFF1F059091
:101D4000F491E02D09942F923F924F925F926F92FF
:101D50007F928F929F92AF92BF92CF92DF92EF923B
:101D6000FF920F931F93CF93DF93CDB7DEB7CA1BBC
:101D7000DB0B0FB6F894DEBF0FBECDBF09942A88E7
:101D8000398848885F846E847D848C849B84AA848F
:101D9000B984C884DF80EE80FD800C811B81AA811C
:101DA000B981CE0FD11D0FB6F894DEBF0FBECDBFE7
:081DB000ED010895F894FFCF46
:101DB8002564202564202564002000150300000008
:101DC8000000000A00000064000000E803000010A2
:101DD800270000A086010040420F0080969800006E
:0E1DE800E1F50500000000CE0A1B0B330B00D6
:00000001FF
