:100000000C9462000C948A000C948A000C948A0070
:100010000C948A000C948A000C948A000C948A0038
:100020000C948A000C948A000C948A000C948A0028
:100030000C948A000C948A000C948A000C948A0018
:100040000C9479030C948A000C945E040C948A003E
:100050000C948A000C948A000C948A000C948A00F8
:100060000C948A000C948A000000000024002700F1
:100070002A0000000000250028002B0000000000DE
:1000800023002600290004040404040404040202DA
:100090000202020203030303030301020408102007
:1000A0004080010204081020010204081020000012
:1000B0000007000201000003040600000000000029
:1000C0000000A70511241FBECFEFD4E0DEBFCDBFD7
:1000D00011E0A0E0B1E0EEEEFEE002C005900D926E
:1000E000AE32B107D9F714E0AEE2B1E001C01D9223
:1000F000AA35B107E1F710E0C4ECD0E004C02297C4
:10010000FE010E947107C23CD107C9F70E94B602E6
:100110000C9475070C9400008F929F92AF92BF923F
:10012000CF92DF92EF92FF920F931F93CF93DF93C3
:100130000E94C1034B015C018EE00E942A03892BBF
:1001400039F481E080930B0110922F0110922E015F
:1001500080910B01882309F417C11092310110928C
:100160003001CC24CA94DC2C76015DC0EE0FFF1F59
:10017000E45FFE4F808161E00E94BD02E0913001AA
:10018000F0913101EE0FFF1FE45FFE4F808161E0CF
:100190000E94DD02E0913001F0913101EE0FFF1F6E
:1001A000E85EFE4F808160E00E94DD02E091300158
:1001B000F0913101EE0FFF1FE45FFE4F808160E0A0
:1001C0000E94BD02E0913001F0913101EE0FFF1F5E
:1001D000E45FFE4F808160E00E94DD02009130010B
:1001E000109131010E94CF03000F111F000F111F4A
:1001F0000E5C1E4FF801608371838283938380912C
:10020000300190913101FC01EE0FFF1FEE0FFF1F37
:10021000E65BFE4FC082D182E282F3820196909328
:10022000310180933001E0913001F0913101E630ED
:10023000F1050CF49BCF46C01092310110923001B1
:10024000FF2436C0FE01EE0FFF1FEE0FFF1FE65B1F
:10025000FE4F80819181A281B3818F5F9F4FAF4F0D
:10026000BF4FE9F4CC0FDD1FC45FDE4F88810E94D1
:100270002A03892B19F0FF24F39411C00091300157
:10028000109131010E94CF03000F111F000F111FA9
:10029000065B1E4FF8016083718382839383809194
:1002A000300190913101019690933101809330019A
:1002B000C0913001D0913101C630D1050CF4C2CFCC
:1002C000FF2061F00E94C103681979098A099B091E
:1002D000653D71058105910508F4AECF109231019D
:1002E0001092300149C0EE0FFF1FEE0FFF1FDF011C
:1002F000AE5CBE4FE65BFE4F60817181828193816F
:100300002D913D914D915C91621B730B840B950B6C
:1003100024E030E040E050E00E94400779018A018B
:10032000F0E0EF16F0E8FF06F0E00F07F0E01F073F
:1003300034F087E494E060E071E00E943706209199
:1003400030013091310180912E0190912F01FC01FB
:10035000EE0FFF1FE80FF91FEE0FFF1FE20FF31F55
:10036000EE0FFF1FEE59FE4FF182E0822F5F3F4FED
:100370003093310120933001E0913001F09131014F
:10038000E630F1050CF4AFCF10923101109230013C
:1003900045C0EE0FFF1FE45FFE4F808161E00E94C9
:1003A000BD02E0913001F0913101EE0FFF1FE45FDB
:1003B000FE4F808160E00E94DD022091300130918B
:1003C000310180912E0190912F01FC01EE0FFF1F52
:1003D000E80FF91FEE0FFF1FE20FF31FEE0FFF1FD5
:1003E000EE59FE4F80819181F901EE0FFF1F80527F
:1003F000934028F4E85EFE4F808161E004C0E85E2F
:10040000FE4F808160E00E94DD028091300190917A
:10041000310101969093310180933001E0913001D8
:10042000F0913101E630F1050CF4B3CF80912E014B
:1004300090912F01FC01EE0FFF1FE80FF91FEE0F47
:10044000FF1FEE0FFF1FEE59FE4F6081718187E4A1
:1004500094E00E94DE0680912E0190912F0101967A
:1004600090932F0180932E01C29751F480910B013C
:10047000882311F010920B0110922F0110922E017F
:100480000E94C1039B01AC01281939094A095B0983
:10049000263D3105410551053CF087E494E065E0D7
:1004A00071E00E9437060AC065ED70E080E090E0E0
:1004B000621B730B840B950B0E94FA03109231019F
:1004C0001092300111C0EE0FFF1FE85EFE4F8081D9
:1004D00060E00E94DD02809130019091310101962F
:1004E0009093310180933001E0913001F09131011E
:1004F000E630F10544F3DF91CF911F910F91FF900A
:10050000EF90DF90CF90BF90AF909F908F90089525
:1005100087E494E040E052EC61E070E00E949B04CC
:100520008EE060E00E94BD028EE061E00E94DD028C
:10053000109231011092300111C0EE0FFF1FE85EE2
:10054000FE4F808161E00E94BD0280913001909158
:10055000310101969093310180933001E091300197
:10056000F0913101E630F10544F308950E9424042E
:100570000E9488020E948C00FDCF282F30E0C90124
:1005800086569F4FFC0194912A573F4FF901849161
:10059000882391F0E82FF0E0EE0FFF1FE859FF4F9E
:1005A000A591B491662329F48C91909589238C931D
:1005B00008958C91892B8C930895482F50E0CA019F
:1005C00082559F4FFC012491CA0186569F4FFC0122
:1005D00094914A575F4FFA0134913323D1F122238A
:1005E00031F1233021F4809180008F7705C02430D1
:1005F00031F4809180008F7D8093800018C021307D
:1006000019F484B58F7704C0223021F484B58F7D2E
:1006100084BD0DC0263021F48091B0008F7705C0D5
:10062000273029F48091B0008F7D8093B000E32FB4
:10063000F0E0EE0FFF1FEE58FF4FA591B491662337
:1006400029F48C91909589238C9308958C91892B12
:100650008C930895682F70E0CB0182559F4FFC0169
:100660002491CB0186569F4FFC0144916A577F4FDE
:10067000FB019491992319F420E030E038C0222343
:1006800031F1233021F4809180008F7705C0243030
:1006900031F4809180008F7D8093800018C02130DC
:1006A00019F484B58F7704C0223021F484B58F7D8E
:1006B00084BD0DC0263021F48091B0008F7705C035
:1006C000273029F48091B0008F7D8093B000892F6E
:1006D00090E0880F991F84589F4FFC01A591B49119
:1006E0008C9120E030E0842311F021E030E0C9015A
:1006F00008951F920F920FB60F9211242F933F93DC
:100700008F939F93AF93BF938091BE039091BF034C
:10071000A091C003B091C1033091C2030196A11D05
:10072000B11D232F2D5F2D3720F02D570196A11DD0
:10073000B11D2093C2038093BE039093BF03A09387
:10074000C003B093C1038091BA039091BB03A09101
:10075000BC03B091BD030196A11DB11D8093BA03E6
:100760009093BB03A093BC03B093BD03BF91AF9123
:100770009F918F913F912F910F900FBE0F901F90DF
:1007800018958FB7F8942091BE033091BF03409124
:10079000C0035091C1038FBFB901CA0108956FB75B
:1007A000F89486B590E0A0E0B0E0A89B08C0009760
:1007B000A105B10521F480E091E0A0E0B0E0209136
:1007C000BA033091BB034091BC035091BD036FBF8E
:1007D000542F432F322F2227280F391F4A1F5B1F08
:1007E00082E0220F331F441F551F8A95D1F7B901AC
:1007F000CA010895EF92FF920F931F937B018C0122
:100800008FB7F8944091BE035091BF036091C0032D
:100810007091C1038FBF2FB7F8948091BE03909160
:10082000BF03A091C003B091C1032FBF841B950BE0
:10083000A60BB70BE816F9060A071B0760F71F910E
:100840000F91FF90EF900895789484B5826084BDF5
:1008500084B5816084BD85B5826085BD85B58160C4
:1008600085BDEEE6F0E0808181608083E1E8F0E024
:10087000808182608083808181608083E0E8F0E015
:10088000808181608083E1EBF0E0808184608083FF
:10089000E0EBF0E0808181608083EAE7F0E0808136
:1008A0008460808380818260808380818160808396
:1008B0008081806880831092C10008951F920F92FA
:1008C0000FB60F9211242F933F934F935F936F9323
:1008D0007F938F939F93AF93BF93EF93FF93409139
:1008E000C600E0914304F0914404CF01019660E812
:1008F00070E00E940B079C01809145049091460492
:100900002817390739F0ED53FC4F408330934404E6
:1009100020934304FF91EF91BF91AF919F918F91ED
:100920007F916F915F914F913F912F910F900FBEEB
:100930000F901F9018955F926F927F928F929F9267
:10094000AF92BF92CF92DF92EF92FF920F931F93DD
:10095000CF93DF93EC013A014B01413482E4580715
:100960008FE0680780E078070CF07FC060E874E8EB
:100970008EE190E0A40193010E9440072150304095
:1009800040405040CA01B90122E030E040E050E070
:100990000E94400759016A01A601950120953095F2
:1009A0004095509594E0220F331F441F551F9A9590
:1009B000D1F760E074E284EF90E00E944007CA0142
:1009C000B9012FEF30E040E050E00E94EC06A401B6
:1009D00093010E944007C90181509F4F18161906C4
:1009E0001CF4522E5A9403C055245394521A60E0BA
:1009F00079E08DE390E0A40193010E94400721502B
:100A0000304040405040CA01B90122E030E040E0AF
:100A100050E00E944007209530954095509583E026
:100A2000220F331F441F551F8A95D1F760E074E2EF
:100A300084EF90E00E944007CA01B9012FEF30E037
:100A400040E050E00E94EC06A40193010E944007A0
:100A5000C90181509F4F181619061CF4822F81502E
:100A600002C081E0821B851500F5E885F98581E0EB
:100A700090E00A8802C0880F991F0A94E2F78083E9
:100A800060E079E08DE390E0A40193010E944007CB
:100A90002150304040405040CA01B90122E030E0CE
:100AA00040E050E00E94400704C0E885F9851082CC
:100AB0009501EC81FD813083EE81FF812083EA8501
:100AC000FB85208141E050E0CA010E8402C0880FFE
:100AD000991F0A94E2F7282B2083EA85FB85208161
:100AE000CA010F8402C0880F991F0A94E2F7282BCD
:100AF0002083EA85FB858081088802C0440F551F4A
:100B00000A94E2F7842B8083DF91CF911F910F919C
:100B1000FF90EF90DF90CF90BF90AF909F908F901D
:100B20007F906F905F900895FC01A085B185218929
:100B30008C9190E0022E02C0959587950A94E2F779
:100B400080FFF6CF0484F585E02D6083089588E268
:100B500091E0909348048093470483EC93E0909352
:100B60004A048093490485EC90E090934C04809370
:100B70004B0484EC90E090934E0480934D0480EC01
:100B800090E09093500480934F0481EC90E0909318
:100B900052048093510486EC90E090935404809327
:100BA000530484E08093550483E08093560487E0E7
:100BB0008093570485E08093580481E08093590422
:100BC00008950F931F93CF93DF938C01EB0109C01E
:100BD0002196D801ED91FC910190F081E02DC801A2
:100BE000099568816623A1F7DF91CF911F910F913D
:100BF0000895EF92FF920F931F93CF93DF938C0191
:100C00007B01EA010CC0D7016D917D01D801ED9106
:100C1000FC910190F081E02DC80109952197209762
:100C200091F7DF91CF911F910F91FF90EF90089571
:100C3000DC01ED91FC910280F381E02D099508958E
:100C40000F931F938C01DC01ED91FC910190F081D9
:100C5000E02D6DE00995D801ED91FC910190F081B6
:100C6000E02DC8016AE009951F910F9108950F9337
:100C70001F938C010E941806C8010E9420061F9134
:100C80000F9108952F923F924F925F926F927F92B1
:100C90008F929F92AF92BF92CF92DF92EF92FF928C
:100CA0000F931F93DF93CF93CDB7DEB7A0970FB607
:100CB000F894DEBF0FBECDBF1C016A017B01411558
:100CC00051056105710549F4DC01ED91FC9101903C
:100CD000F081E02D60E3099554C0882499245401E3
:100CE000422E55246624772401E010E00C0F1D1FCE
:100CF000080D191DC701B601A30192010E941E072C
:100D0000F80160830894811C911CA11CB11CC701CF
:100D1000B601A30192010E941E07C901DA016C010C
:100D20007D01C114D104E104F104F1F681E0E82E63
:100D3000F12CEC0EFD1EE80CF91C3E010894611C20
:100D4000711CD501C4010197A109B1096C01C81832
:100D5000D90814C0F601EE0DFF1D60816A3010F451
:100D6000605D01C0695CD101ED91FC910190F08161
:100D7000E02DC10109950894E108F1086E147F0483
:100D800049F7A0960FB6F894DEBF0FBECDBFCF9146
:100D9000DF911F910F91FF90EF90DF90CF90BF9068
:100DA000AF909F908F907F906F905F904F903F900B
:100DB0002F9008952AE00E94420608950F931F93F2
:100DC0008C01AB0160E070E00E94DA06C8010E946D
:100DD00020061F910F910895629FD001739FF0012B
:100DE000829FE00DF11D649FE00DF11D929FF00DBB
:100DF000839FF00D749FF00D659FF00D9927729FF2
:100E0000B00DE11DF91F639FB00DE11DF91FBD017C
:100E1000CF011124089597FB092E07260AD077FDEC
:100E200004D049D006D000201AF4709561957F4F08
:100E30000895F6F7909581959F4F0895A1E21A2E97
:100E4000AA1BBB1BFD010DC0AA1FBB1FEE1FFF1F6E
:100E5000A217B307E407F50720F0A21BB30BE40BBE
:100E6000F50B661F771F881F991F1A9469F7609505
:100E70007095809590959B01AC01BD01CF010895BF
:100E800097FB092E05260ED057FD04D0D7DF0AD0D8
:100E9000001C38F450954095309521953F4F4F4FA9
:100EA0005F4F0895F6F790958095709561957F4F07
:100EB0008F4F9F4F0895AA1BBB1B51E107C0AA1F6C
:100EC000BB1FA617B70710F0A61BB70B881F991FEB
:100ED0005A95A9F780959095BC01CD010895EE0F24
:0E0EE000FF1F0590F491E02D0994F894FFCFC8
:100EEE004C6F6E670053686F72740001020004004D
:100EFE00060008000A000C000300050007000900A8
:0E0F0E000B000D00000000009405E105F90540
:00000001FF
