:100000000C9466000C948E000C948E000C948E0060
:100010000C948E000C948E000C948E000C948B0526
:100020000C948E000C948E000C948E000C9437056A
:100030000C948E000C948E000C94E3040C948E00AF
:100040000C94D90F0C948E000C9469100C948E00B3
:100050000C948E000C948E000C948E000C948E00E8
:100060000C94AC080C948E000201000000000024E7
:100070000027002A0000000000250028002B0000B7
:1000800000000023002600290004040404040404E2
:100090000402020202020203030303030301020437
:1000A00008102040800102040810200102040810FA
:1000B0002000000007000201000003040600000009
:1000C000000000000000A607710AB21111241FBE33
:1000D000CFEFD4E0DEBFCDBF11E0A0E0B1E0ECE1B6
:1000E000FBE202C005900D92AE3CB107D9F713E0D8
:1000F000AEECB1E001C01D92A23AB107E1F710E009
:10010000CCECD0E004C02297FE010E945115C63C01
:10011000D107C9F70E94160F0C948C150C9400009F
:100120000F931F93CF93DF93689F8001699F100DFA
:10013000789F100D1124C8010E94AC00EC010097BB
:1001400029F060E070E0A8010E94AE01CE01DF91CD
:10015000CF911F910F910895CF93DF93BC0182300F
:10016000910510F462E070E0A091A003B091A103AA
:10017000ED01E0E0F0E040E050E021C088819981AD
:100180008617970769F48A819B81309719F09383CA
:10019000828304C09093A1038093A003FE0134C026
:1001A0006817790738F44115510519F08417950738
:1001B00008F4AC01FE018A819B819C01E901209732
:1001C000E9F641155105A9F1CA01861B970B049761
:1001D00008F4BA01E0E0F0E02AC08D919C911197FB
:1001E00084179507F9F46417750781F412968D91B9
:1001F0009C911397309719F09383828304C0909356
:10020000A1038093A003FD0132964CC0CA01861B56
:10021000970BFD01E80FF91F6193719302978D937E
:100220009C9340C0FD01828193819C01D90110976C
:10023000A1F680919E0390919F03892B41F48091B8
:100240005B0190915C0190939F0380939E0340918A
:100250005D0150915E014115510541F44DB75EB706
:100260008091590190915A01481B590B20919E038E
:1002700030919F03CA01821B930B8617970780F06A
:10028000AB014E5F5F4F8417950750F0420F531F2D
:1002900050939F0340939E03F9016193719302C0B1
:1002A000E0E0F0E0CF01DF91CF910895CF93DF93AD
:1002B000009709F450C0EC0122971B821A82A0918A
:1002C000A003B091A103109709F140E050E0AC17F2
:1002D000BD0708F1BB83AA83FE0121913191E20F92
:1002E000F31FAE17BF0779F48D919C911197280FDA
:1002F000391F2E5F3F4F3983288312968D919C9131
:1003000013979B838A834115510571F4D093A10300
:10031000C093A00320C012968D919C911397AD01BC
:10032000009711F0DC01D3CFFA01D383C28321916E
:100330003191E20FF31FCE17DF0769F488819981AD
:10034000280F391F2E5F3F4FFA01318320838A81A6
:100350009B8193838283DF91CF910895DC0101C05B
:100360006D9341505040E0F70895AEE0B0E0EBEB04
:10037000F1E00C9463150D891E8986E08C831A8345
:1003800009838FEF9FE79E838D839E01275E3F4FFA
:10039000CE0101966F89788DA9010E94D9012F8124
:1003A0003885020F131FF80110822E96E4E00C949A
:1003B0007F15ABE0B0E0EFEDF1E00C9455153C019A
:1003C0002B015A01FC0117821682838181FD03C033
:1003D0006FEF7FEFC6C19AE0892E1E010894211CA1
:1003E000311CF3012381F20123FD859123FF8191CB
:1003F0002F01882309F4B2C1853239F423FD859198
:1004000023FF81912F01853229F490E0B3010E94EE
:10041000CC03E7CF982FFF24EE249924FFE1FF15AA
:10042000D0F09B3269F09C3228F4903259F093322C
:1004300091F40EC09D3249F0903369F441E024C03C
:1004400052E0F52A84E0F82A28C098E0F92A25C06D
:10045000E0E1FE2A22C0F7FC29C0892F80538A30B0
:1004600070F4F6FE05C0989C902C1124980E15C0CF
:10047000E89CE02C1124E80EF0E2FF2A0EC09E3228
:1004800029F4F6FC6BC140E4F42A07C09C3619F449
:1004900050E8F52A02C0983649F4F20123FD9591FF
:1004A00023FF91912F01992309F0B8CF892F85540B
:1004B000833018F08052833038F444E050E0A40ECA
:1004C000B51E5FE359830FC0933631F0933779F04F
:1004D000933509F056C020C0F5018081898342E040
:1004E00050E0A40EB51E610101E010E012C0F5015C
:1004F000C080D180F6FC03C06FEF7FEF02C0692D92
:1005000070E042E050E0A40EB51EC6010E94C10397
:100510008C015FE7F52214C0F501C080D180F6FCA4
:1005200003C06FEF7FEF02C0692D70E042E050E042
:10053000A40EB51EC6010E94B6038C0150E8F52A30
:10054000F3FE07C01AC080E290E0B3010E94CC0322
:10055000EA948E2D90E008171907A8F30EC0F60153
:10056000F7FC8591F7FE81916F0190E0B3010E9445
:10057000CC03E110EA94015010400115110579F700
:10058000EAC0943611F0993669F5F7FE08C0F50116
:10059000208131814281538184E090E00AC0F501DD
:1005A000808191819C01442737FD4095542F82E042
:1005B00090E0A80EB91E9FE6F92257FF09C050959A
:1005C0004095309521953F4F4F4F5F4FE0E8FE2A11
:1005D000CA01B901A1012AE030E00E94F803D82E37
:1005E000D21840C0953729F41F2D1F7E2AE030E035
:1005F0001DC01F2D197F9F3661F0903720F498356C
:1006000009F0ACC00FC0903739F0983709F0A6C098
:1006100004C028E030E00AC0106114FD146020E13D
:1006200030E004C014FD166020E132E017FF08C07E
:10063000F501608171818281938144E050E008C0BE
:10064000F50180819181BC0180E090E042E050E0C2
:10065000A40EB51EA1010E94F803D82ED2188FE770
:10066000F82EF122F6FE0BC05EEFF522D91438F415
:10067000F4FE07C0F2FC05C08FEEF82202C01D2D6B
:1006800001C0192DF4FE0DC0FE01ED0DF11D80819C
:10069000803319F499EEF92208C01F5FF2FE05C0FD
:1006A00003C08F2D867809F01F5F0F2DF3FC14C057
:1006B000F0FE0FC01E1510F09D2C0BC09D2C9E0C43
:1006C000911A1E2D06C080E290E0B3010E94CC0377
:1006D0001F5F1E15C0F304C01E1510F4E11A01C0FF
:1006E000EE2404FF0FC080E390E0B3010E94CC032E
:1006F00002FF1DC001FD03C088E790E00EC088E541
:1007000090E00BC0802F867891F001FF02C08BE251
:1007100001C080E2F7FC8DE290E0B3010E94CC03BF
:1007200006C080E390E0B3010E94CC039A94D914F0
:10073000C0F3DA94F101ED0DF11D808190E0B30179
:100740000E94CC03DD20A9F706C080E290E0B3014F
:100750000E94CC03EA94EE20C1F743CEF3016681F8
:100760007781CB012B96E2E10C947115FC01059089
:10077000615070400110D8F7809590958E0F9F1FA3
:100780000895FC016150704001900110D8F78095E8
:1007900090958E0F9F1F08950F931F93CF93DF9314
:1007A0008C01EB018B8181FF1BC082FF0DC02E816C
:1007B0003F818C819D812817390764F4E881F98194
:1007C0000193F983E88306C0E885F985802F0995B0
:1007D000892B31F48E819F8101969F838E8302C085
:1007E0000FEF1FEFC801DF91CF911F910F91089577
:1007F000FA01AA27283051F1203181F1E8946F9352
:100800006E7F6E5F7F4F8F4F9F4FAF4FB1E03ED0F7
:10081000B4E03CD0670F781F891F9A1FA11D680F95
:10082000791F8A1F911DA11D6A0F711D811D911DC8
:10083000A11D20D009F468943F912AE0269F11243D
:100840003019305D3193DEF6CF010895462F4770A1
:10085000405D4193B3E00FD0C9F7F6CF462F4F70FC
:10086000405D4A3318F0495D31FD4052419302D05A
:10087000A9F7EACFB4E0A695979587957795679500
:10088000BA95C9F700976105710508959B01AC0100
:100890000A2E06945795479537952795BA95C9F727
:1008A000620F731F841F951FA01D0895DC01909196
:1008B000E301933008F083C06C93E92FF0E0E8592E
:1008C000FF4F849111968C9311979F5F9093E30152
:1008D000813039F1823009F44BC0882309F072C0AD
:1008E00014BC15BC84B5826084BD85B5816085BDAE
:1008F0008C91282F30E0F901E757FF4FE491F0E0A9
:10090000EE0FFF1FEB58FF4F859194919093D30109
:100910008093D20123563F4FF90184918093D401F3
:10092000089510928000109281008091810088606B
:1009300080938100809181008160809381008C91FF
:10094000282F30E0F901E757FF4FE491F0E0EE0F78
:10095000FF1FEB58FF4F859194919093DA0180939C
:10096000D90123563F4FF90184918093DB0108950B
:100970001092B0001092B1008091B000826080931C
:10098000B0008091B10081608093B1008C91282FDC
:1009900030E0F901E757FF4FE491F0E0EE0FFF1F61
:1009A000EB58FF4F859194919093E1018093E00182
:1009B00023563F4FF90184918093E20108958FEF10
:1009C00011968C9308951F920F920FB60F921124D7
:1009D0008F939F93AF93BF93EF93FF938091CE013B
:1009E0009091CF01A091D001B091D101E091D201BD
:1009F000F091D3010097A105B10531F1808190916B
:100A0000D401892780838091CE019091CF01A0915C
:100A1000D001B091D101181619061A061B06E4F48C
:100A20008091CE019091CF01A091D001B091D101E0
:100A30000197A109B1098093CE019093CF01A093B2
:100A4000D001B093D10108C010926E0090818091C6
:100A5000D401809589238083FF91EF91BF91AF915D
:100A60009F918F910F900FBE0F901F9018951F921E
:100A70000F920FB60F9211248F939F93AF93BF9352
:100A8000EF93FF938091D5019091D601A091D7016A
:100A9000B091D801E091D901F091DA010097A10558
:100AA000B10531F180819091DB01892780838091AC
:100AB000D5019091D601A091D701B091D801181617
:100AC00019061A061B06E4F48091D5019091D6010F
:100AD000A091D701B091D8010197A109B1098093E4
:100AE000D5019093D601A093D701B093D80108C047
:100AF00010926F0090818091DB0180958923808323
:100B0000FF91EF91BF91AF919F918F910F900FBE89
:100B10000F901F9018951F920F920FB60F921124ED
:100B20008F939F93AF93BF93EF93FF938091DC01DB
:100B30009091DD01A091DE01B091DF01E091E00133
:100B4000F091E1010097A105B10531F1808190910B
:100B5000E201892780838091DC019091DD01A091E1
:100B6000DE01B091DF01181619061A061B06E4F41F
:100B70008091DC019091DD01A091DE01B091DF0157
:100B80000197A109B1098093DC019093DD01A09345
:100B9000DE01B093DF0108C0109270009081809157
:100BA000E201809589238083FF91EF91BF91AF91FE
:100BB0009F918F910F900FBE0F901F901895FC0181
:100BC0008181813039F0823041F0882341F41092E4
:100BD0006E0005C010926F0002C0109270008081FC
:100BE00060E00E943D0F08952F923F925F926F92B6
:100BF0007F928F929F92AF92BF92CF92DF92EF92AD
:100C0000FF920F931F93DF93CF9300D000D0CDB707
:100C1000DEB78C011B0129833A834B835C83DC01A3
:100C200011968C91119787FD58C18C9161E00E94BB
:100C30001D0FF8015180552021F0F2E05F1609F0F8
:100C4000BEC031018824992460E072E18AE790E017
:100C5000A40193010E94201559016A0186017501C2
:100C60000894E108F108010911092FEFE216F104D7
:100C70000105110509F008F499C060E472E48FE001
:100C800090E0A40193010E94201579018A01089443
:100C9000E108F1080109110982E05816C9F49FEF33
:100CA000E916F1040105110509F010F482E084C091
:100CB00060E970ED83E090E0A40193010E942015AB
:100CC00079018A010894E108F1080109110983E01A
:100CD000AFEFEA16F1040105110509F008F467C049
:100CE00068E478EE81E090E0A40193010E94201571
:100CF00079018A010894E108F108010911095520D8
:100D000011F483E01EC0B2E05B1611F084E019C05C
:100D1000EFEFEE16F1040105110509F010F484E07F
:100D20004BC064E274EF80E090E0A40193010E9464
:100D3000201579018A010894E108F10801091109D7
:100D400085E0FFEFEF16F1040105110581F178F15F
:100D500062E17AE780E090E0A40193010E9420150F
:100D600079018A010894E108F10801091109552067
:100D700011F086E001C084E02FEFE216F1040105D6
:100D80001105A9F0A0F0C601B50120E034E040E073
:100D900050E00E94201579018A010894E108F108C9
:100DA00001091109552039F485E003C081E055207F
:100DB00019F485BD3AC087E08093B10036C0510177
:100DC000CC24DD2460E072E18AE790E0A601950181
:100DD0000E94201579018A010894E108F1080109AF
:100DE000110980E0E81680E0F80681E0080780E05D
:100DF000180710F491E010C068E478EE81E090E00C
:100E0000A60195010E94201579018A010894E10844
:100E1000F1080109110993E0A1E05A1631F480911B
:100E20008100887F982B9093810089819A81AB8182
:100E3000BC810097A105B10529F48FEF9FEFAFEFBB
:100E4000BFEF13C0220C331CB10180E090E0298178
:100E50003A814B815C810E94CC1428EE33E040E063
:100E600050E00E94FE14C901DA01E1E05E16A1F033
:100E7000F2E05F1619F1552081F5E7BC8093CE01B1
:100E80009093CF01A093D001B093D10180916E00D7
:100E9000826080936E0021C0F0928900E092880009
:100EA0008093D5019093D601A093D701B093D80138
:100EB00080916F00826080936F000FC0E092B3005A
:100EC0008093DC019093DD01A093DE01B093DF01FC
:100ED000809170008260809370000F900F900F904F
:100EE0000F90CF91DF911F910F91FF90EF90DF90C6
:100EF000CF90BF90AF909F908F907F906F905F90BA
:100F00003F902F90089581E08093ED016093E80178
:100F10001092EB011092EC0108958091E7019091FD
:100F2000E601891B08959091E6018091E7019817E9
:100F300010F080E00895E091E401F091E501E90FFF
:100F4000F11D80819F5F9093E60108950895DF93DE
:100F5000CF930F92CDB7DEB769838091ED018823DF
:100F6000A9F08091EC018032B0F48091EB01E09126
:100F7000E901F091EA01E80FF11D60838091EB0136
:100F80008F5F8093EB018093EC0105C0CE01019649
:100F900061E00E948F080F90CF91DF9108956091DA
:100FA000E9017091EA018091E8014091EC0121E0B2
:100FB0000E944A081092EB011092EC011092ED0190
:100FC0000895862F6091E4017091E501413208F0A7
:100FD00040E20E9412081092E6018093E701089512
:100FE0000E94E107089580E290E061E070E00E94D5
:100FF00090008093E4019093E5011092E601109235
:10100000E70180E290E061E070E00E949000809350
:10101000E9019093EA011092EB011092EC010E9419
:101020002E0A0895982F413210F040E031C080918F
:10103000EF018823E1F781E08093EF018FEF809348
:1010400000021092F70141504093F8014F5F990F51
:1010500091609093F00185EE8093BC008091EF0148
:101060008130E1F38091F701841710F44091F7018A
:10107000A091F501B091F60120E030E007C0FB013E
:10108000E20FF31F8D9180832F5F3F4F2417B8F33A
:10109000842F08951F93582F122F413210F081E0B2
:1010A0003CC08091EF018823E1F782E08093EF015B
:1010B0008FEF809300021092F7014093F801A09106
:1010C000F501B091F601FB0102C081918D938E2F45
:1010D000861B8417D0F3852F90E0880F991F80938B
:1010E000F00185EE8093BC00112321F08091EF0187
:1010F0008230E1F3809100028F3F11F480E00DC057
:1011000080910002803211F482E007C080910002D9
:10111000803311F084E001C083E01F910895482FCF
:10112000613210F081E008958091EF01843011F078
:1011300082E008956093FC01A091F901B091FA0159
:10114000842F9C01F90102C081918D938E2F841B05
:101150008617D0F380E008951F920F920FB60F927A
:1011600011242F933F934F935F936F937F938F93AC
:101170009F93AF93BF93EF93FF938091B90090E05B
:10118000887F90708036910509F4E2C08136910520
:10119000CCF58832910509F47BC089329105B4F40D
:1011A0008031910509F46FC0813191053CF40097BD
:1011B00009F438C1089709F040C165C0883191052C
:1011C00009F466C0809709F038C17FC0803491056A
:1011D00009F4A3C08134910544F48033910509F4E6
:1011E0007FC0C89709F029C186C08035910509F4F0
:1011F00086C08835910509F495C08834910509F0B9
:101200001CC19EC08839910509F404C18939910532
:10121000ECF48837910509F49BC0893791054CF4AB
:101220008836910509F494C08037910509F005C10D
:101230008FC08838910509F4EDC08039910509F413
:101240008DC08038910509F0F8C088C0803B9105B9
:1012500009F4B2C0813B91054CF4803A910509F440
:1012600091C0883A910509F0E8C0A6C0803C91057C
:1012700009F4D4C0883C910509F4D0C0883B91059D
:1012800009F0DBC0B1C08091F0018093BB00C0C009
:101290009091F7018091F801981778F49091F701F7
:1012A000E091F501F091F601E90FF11D8081809345
:1012B000BB009F5F9093F701ABC085ED8093BC00AE
:1012C0008091BC0084FDFCCFB6C080E28093000218
:1012D00085ED8093BC008091BC0084FDFCCFABC049
:1012E00080E38093000285ED8093BC008091BC0078
:1012F00084FDFCCFA0C088E3809300028FC0809162
:10130000F7019091BB00E091F501F091F601E80F33
:10131000F11D90838F5F8093F7019091F701809189
:10132000F80174C08091F7019091BB00E091F50144
:10133000F091F601E80FF11D90838F5F8093F70124
:1013400085ED8093BC008091BC0084FDFCCF73C010
:1013500083E08093EF011092FF015AC08091FF015A
:10136000803208F057C08091FF019091BB00E0915E
:10137000FD01F091FE01E80FF11D90838F5F8093D6
:10138000FF0146C08091FF01803248F48091FF0147
:10139000E091FD01F091FE01E80FF11D10826091D6
:1013A000FF01E091F301F091F4018091FD01909132
:1013B000FE0170E0099532C084E08093EF01109245
:1013C000FB011092FC01E091F101F091F20109950D
:1013D0008091FC01882341F481E08093FC01E0913D
:1013E000F901F091FA0110829091FB01E091F9016D
:1013F000F091FA01E90FF11D80818093BB009F5F9E
:101400009093FB019091FB018091FC01981710F4DF
:1014100085EC01C085E88093BC000FC085EC80930B
:10142000BC0009C01092000285ED8093BC00809141
:10143000BC0084FDFCCF1092EF01FF91EF91BF91B2
:10144000AF919F918F917F916F915F914F913F915C
:101450002F910F900FBE0F901F9018951092EF01D3
:10146000449A459AE9EBF0E080818E7F8083808109
:101470008D7F808388E48093B80085E48093BC00EE
:1014800080E290E061E070E00E9490008093F501BE
:101490009093F60180E290E061E070E00E9490009D
:1014A0008093F9019093FA0180E290E061E070E0AE
:1014B0000E9490008093FD019093FE010895809119
:1014C0009B0190919C016091870170918801660F4A
:1014D000771F01960E94EB1490939C0180939B01CF
:1014E00008958091990190919A019093350280938B
:1014F00034020895EF92FF920F931F939C01F62EF2
:10150000E42E0EEE11E0C801B9010E948307C80164
:101510006F2D0E94A707C8016E2D0E94A707C80162
:101520000E94CF071F910F91FF90EF900895BF92F7
:10153000CF92DF92EF92FF920F931F93CF93DF939F
:101540008C01F62E6A01E22EB32E8EEE91E0B801E8
:101550000E9483078EEE91E06F2D0E94A7078EEE0A
:1015600091E00E94CF078EEE91E0B8010E948307C0
:101570008EEE91E0B801A6010E94F0072E2D3B2DC2
:10158000C901EC0105C08EEE91E00E94930789939A
:101590008EEE91E00E948D078823A9F78EEE91E0F0
:1015A0000E94CF07DF91CF911F910F91FF90EF9095
:1015B000DF90CF90BF9008954F925F926F927F928D
:1015C0008F929F92AF92BF92CF92DF92EF92FF9253
:1015D0000F931F93CF93DF93EC012B010E942110F7
:1015E0002E813F8148855985621B730B840B950BB7
:1015F0002A813B814C815D812617370748075907AF
:1016000010F080E0A8C088249924AA24BB2431C00B
:10161000E889F989EA0DFB1DE280F38004811581D8
:101620006A847B8480819181A901481B590BCA017E
:10163000B3010E94EB1497FF02C0860D971D880F1F
:10164000991FC80ED91ED6018D919C91AA2797FD8E
:10165000A095BA2FE81AF90A0A0B1B0BE282F38253
:10166000048315830894811C911CEAE0F0E0AE0E1F
:10167000BF1E8E859F85CC84DD84288139818816A4
:10168000990634F2220F331FC20ED31ED6014D929B
:101690005C9288249924AA24BB2441C0C888D98894
:1016A000CA0CDB1C220F331FEC85FD85E20FF31FF4
:1016B00020813181442737FD4095542FF601628106
:1016C000738184819581620F731F841F951FD601DA
:1016D00012966D937D938D939C9315970E94181489
:1016E0007B018C01F60160817181882777FD8095EF
:1016F000982F0E9418149B01AC01C801B7010E94E9
:101700007D13D60116966D937D938D939C931997B7
:101710000894811C911CEAE0F0E0AE0EBF1E8E859D
:101720009F8528813981881699060CF4B7CFEA8500
:10173000FB85C9010196BF010E94EB1497FF02C00F
:101740008E0F9F1F998388830E9421106E837F8351
:101750008887998781E0DF91CF911F910F91FF904A
:10176000EF90DF90CF90BF90AF909F908F907F9041
:101770006F905F904F90089580912D02882351F4CF
:101780008BE292E06AE570E122E330E040E050E075
:101790000E94F405089580912D02882341F10E9452
:1017A000211020912E0230912F0240913002509151
:1017B0003102621B730B840B950B695E7340804092
:1017C0009040C8F08BE292E066E071E024EF31E0F7
:1017D00040E050E00E94F4050E94211060932E0228
:1017E00070932F02809330029093310208958BE220
:1017F00092E00E94DF050895EF92FF920F931F93EE
:10180000CF93DF93EC0197FD1EC0209187013091AB
:101810008801C901880F991FC817D907D4F460E05F
:10182000C217D3070CF061E085E00E943D0F609184
:10183000870170918801CE010E94EB14FC01E958E8
:10184000FE4F608117C08FEFCF3FD80711F460E0E3
:1018500011C08BE893E060E071E00E9423128BE8F6
:1018600093E0BE010E940C138BE893E06BE071E003
:101870000E94421207E611E0C0E0D0E0E62EFF240D
:101880000FC0B7010C2E02C0759567950A94E2F758
:101890006170F80180810E943D0F21960E5F1F4FFD
:1018A00080915F01909160010197C817D9074CF3AF
:1018B000DF91CF911F910F91FF90EF9008958F923C
:1018C0009F92AF92BF92CF92DF92EF92FF920F93CF
:1018D0001F93CF93DF9383E590E062E346E050E00F
:1018E00021E032E00E94970A9091020280E020916C
:1018F0000102C22FD0E0C82BD92BB0900402A090D7
:101900000302909006028090050281EB91E0BE01F7
:101910000E94DC0A882309F425C1BE01882777FDCF
:101920008095982F0E94181420E030E040E050E0AD
:101930000E9414137B018C0120E030E040E050E075
:101940000E94C814181624F017FB109517F910956B
:1019500060918D0170918E01882777FD8095982F79
:101960000E9418149B01AC01C801B7010E947913B1
:101970008823BCF48091910190919201A0919301F0
:10198000B09194018F5F9F4FAF4FBF4F51F40E94B2
:101990002110609391017093920180939301909331
:1019A00094018091910190919201A0919301B09145
:1019B00094018F5F9F4FAF4FBF4F09F4C2C10E9488
:1019C0002110209191013091920140919301509109
:1019D0009401621B730B840B950B0E94161420E07C
:1019E00030E44CE155E40E94C81418160CF0A9C16B
:1019F000FF24F39400918F01109190010E94211017
:101A00002091950130919601409197015091980154
:101A1000621B730B840B950B0E94161420E030E4BC
:101A20004CE156E40E94C81418160CF48CC11AC07C
:101A3000FF20C1F00E9421106093950170939601E0
:101A4000809397019093980180919B0190919C01C4
:101A5000181619062CF4019790939C0180939B0112
:101A60000E94BC0B8DB79EB70A970FB6F8949EBF25
:101A70000FBE8DBFEDB7FEB73196A7E0CA2EA2E02C
:101A8000DA2EADB7BEB71296DC92CE92119782E2F3
:101A900091E093838283D583C4839B2D80E02A2D9C
:101AA00030E0822B932B97838683992D80E0282D1D
:101AB00030E0822B932B918780870E94B501EDB790
:101AC000FEB73A960FB6F894FEBF0FBEEDBF8BE897
:101AD00093E0B6010E942312E090C101F090C20190
:101AE0008DB79EB708970FB6F8949EBF0FBE8DBFF7
:101AF0000DB71EB70F5F1F4FADB7BEB71296DC9282
:101B0000CE92119781E391E0F80193838283D7010C
:101B100016966D917D918D919C9119970E94E51378
:101B2000F80175836483D70150966D917D918D91F5
:101B30009C9153970E94E513F801778366830E9476
:101B4000B5018DB79EB708960FB6F8949EBF0FBE2D
:101B50008DBF8BE893E0B6010E9423128BE893E0DF
:101B60000E942B12809163010E948A0F20E001974E
:101B700009F421E02093170280911802281751F0F0
:101B80000E94211060931D0270931E0280931F0219
:101B90009093200280911702809318020E942110D6
:101BA00020911D0230911E0240911F02509120028F
:101BB000621B730B840B950B6093190270931A02CE
:101BC00080931B0290931C022091890130918A011D
:101BD00040918B0150918C01261737074807590710
:101BE00044F59091170280912102891711F1909389
:101BF00021020E9421102091230230912402409161
:101C0000250250912602621B730B840B950B609387
:101C10002702709328028093290290932A020E943F
:101C200021106093230270932402809325029093E5
:101C3000260290912102992351F080912202981757
:101C400031F08BE893E06BE471E00E9442128091E6
:101C50002102882311F5809122028823F1F08091DE
:101C6000270290912802A0912902B0912A02895E50
:101C70009340A040B0407CF08091990190919A01EE
:101C800090933502809334028FEF9FEF90939C01E5
:101C900080939B0102C00E945F0A80912102809381
:101CA00022028091190290911A02A0911B02B09118
:101CB0001C02895E9340A040B04074F080919B016B
:101CC00090919C0197FD08C080913202909133025F
:101CD0009093350280933402209134023091350282
:101CE00080913202909133022817390761F4809174
:101CF0009B0190919C01029724F481E080932D0236
:101D000002C010922D028091990190919A0128179A
:101D1000390711F410922D0280919B0190919C0142
:101D20000E94FC0B0E94CB0BDF91CF911F910F9172
:101D3000FF90EF90DF90CF90BF90AF909F908F90EB
:101D40000895FF2457CE66277727601B710B8827DD
:101D500077FD8095982F0E9418149B01AC0160E0DC
:101D600070E080E090E00E94791387FD61CE7ACE2A
:101D70000F931F93CF93DF938EEE91E00E94F307B2
:101D80008BE893E040E855E260E070E00E94A61026
:101D900083E590E06DE240E00E947A0A83E590E0FE
:101DA0006DE240E10E947A0A83E590E06DE248E04E
:101DB0000E947A0A8091630160E00E941D0F809169
:101DC000650160E00E941D0F8091610161E00E9449
:101DD0001D0F07E611E0C0E0D0E008C0F8018081E7
:101DE00061E00E941D0F21960E5F1F4F80915F01E1
:101DF00090916001C817D9078CF38BE292E0609153
:101E000061010E94560480E090E0E091BD01F091F4
:101E1000BE01E80FF91F118210820296883C9105DD
:101E2000A1F7DF91CF911F910F9108950E942F107C
:101E30000E94B80E0E945F0CFDCF282F30E0C90130
:101E400083569F4FFC01949127573F4FF90184918E
:101E5000882391F0E82FF0E0EE0FFF1FE559FF4FC8
:101E6000A591B491662329F48C91909589238C9344
:101E700008958C91892B8C930895482F50E0CA01C6
:101E80008F549F4FFC012491CA0183569F4FFC0140
:101E9000949147575F4FFA0134913323D1F12223B4
:101EA00031F1233021F4809180008F7705C02430F8
:101EB00031F4809180008F7D8093800018C02130A4
:101EC00019F484B58F7704C0223021F484B58F7D56
:101ED00084BD0DC0263021F48091B0008F7705C0FD
:101EE000273029F48091B0008F7D8093B000E32FDC
:101EF000F0E0EE0FFF1FEB58FF4FA591B491662362
:101F000029F48C91909589238C9308958C91892B39
:101F10008C930895682F70E0CB018F549F4FFC0184
:101F20002491CB0183569F4FFC01449167577F4F0B
:101F3000FB019491992319F420E030E038C022236A
:101F400031F1233021F4809180008F7705C0243057
:101F500031F4809180008F7D8093800018C0213003
:101F600019F484B58F7704C0223021F484B58F7DB5
:101F700084BD0DC0263021F48091B0008F7705C05C
:101F8000273029F48091B0008F7D8093B000892F95
:101F900090E0880F991F81589F4FFC01A591B49143
:101FA0008C9120E030E0842311F021E030E0C90181
:101FB00008951F920F920FB60F9211242F933F9303
:101FC0008F939F93AF93BF938091020390910303EC
:101FD000A0910403B0910503309106030196A11D61
:101FE000B11D232F2D5F2D3720F02D570196A11DF8
:101FF000B11D209306038093020390930303A093E3
:102000000403B09305038091FE029091FF02A0911A
:102010000003B09101030196A11DB11D8093FE0242
:102020009093FF02A0930003B0930103BF91AF917F
:102030009F918F913F912F910F900FBE0F901F9006
:1020400018958FB7F89420910203309103034091C3
:102050000403509105038FBFB901CA010895789414
:1020600084B5826084BD84B5816084BD85B582609D
:1020700085BD85B5816085BDEEE6F0E0808181603B
:102080008083E1E8F0E080818260808380818160EC
:102090008083E0E8F0E0808181608083E1EBF0E024
:1020A000808184608083E0EBF0E0808181608083C8
:1020B000EAE7F0E0808184608083808182608083B1
:1020C0008081816080838081806880831092C100DC
:1020D00008951F920F920FB60F9211242F933F93E2
:1020E0004F935F936F937F938F939F93AF93BF9320
:1020F000EF93FF934091C600E0918703F09188032E
:10210000CF01019660E870E00E94EB149C01809181
:10211000890390918A032817390739F0E95FFC4F4A
:1021200040833093880320938703FF91EF91BF9101
:10213000AF919F918F917F916F915F914F913F915F
:102140002F910F900FBE0F901F9018955F926F9276
:102150007F928F929F92AF92BF92CF92DF92EF9237
:10216000FF920F931F93CF93DF93EC013A014B0142
:10217000413482E458078FE0680780E078070CF06C
:102180007FC060E874E88EE190E0A40193010E94B2
:1021900020152150304040405040CA01B90122E092
:1021A00030E040E050E00E94201559016A01A6018C
:1021B0009501209530954095509594E0220F331F5E
:1021C000441F551F9A95D1F760E074E284EF90E0C8
:1021D0000E942015CA01B9012FEF30E040E050E025
:1021E0000E94CC14A40193010E942015C9018150C2
:1021F0009F4F181619061CF4522E5A9403C05524EA
:102200005394521A60E079E08DE390E0A4019301C9
:102210000E9420152150304040405040CA01B90171
:1022200022E030E040E050E00E94201520953095FB
:102230004095509583E0220F331F441F551F8A9508
:10224000D1F760E074E284EF90E00E942015CA01AB
:10225000B9012FEF30E040E050E00E94CC14A4011F
:1022600093010E942015C90181509F4F181619062D
:102270001CF4822F815002C081E0821B851500F57D
:10228000E885F98581E090E00A8802C0880F991FEF
:102290000A94E2F7808360E079E08DE390E0A401A6
:1022A00093010E9420152150304040405040CA0107
:1022B000B90122E030E040E050E00E94201504C067
:1022C000E885F98510829501EC81FD813083EE81EE
:1022D000FF812083EA85FB85208141E050E0CA012F
:1022E0000E8402C0880F991F0A94E2F7282B2083DE
:1022F000EA85FB852081CA010F8402C0880F991FDF
:102300000A94E2F7282B2083EA85FB8580810888E0
:1023100002C0440F551F0A94E2F7842B8083DF919B
:10232000CF911F910F91FF90EF90DF90CF90BF90D2
:10233000AF909F908F907F906F905F900895FC0179
:10234000A085B18521898C9190E0022E02C09595DF
:1023500087950A94E2F780FFF6CF0484F585E02D97
:102360006083089587EC91E090938C0380938B03B6
:1023700087E093E090938E0380938D0385EC90E04B
:102380009093900380938F0384EC90E0909392035A
:102390008093910380EC90E0909394038093930357
:1023A00081EC90E0909396038093950386EC90E007
:1023B000909398038093970384E08093990383E03C
:1023C00080939A0387E080939B0385E080939C032E
:1023D00081E080939D0308950F931F93CF93DF9324
:1023E0008C01EB0109C02196D801ED91FC9101907F
:1023F000F081E02DC801099568816623A1F7DF917E
:10240000CF911F910F910895EF92FF920F931F9319
:10241000CF93DF938C017B01EA010CC0D7016D9152
:102420007D01D801ED91FC910190F081E02DC80172
:1024300009952197209791F7DF91CF911F910F91E7
:10244000FF90EF900895DC01ED91FC910280F38103
:10245000E02D099508950F931F938C01DC01ED91F8
:10246000FC910190F081E02D6DE00995D801ED918E
:10247000FC910190F081E02DC8016AE009951F915F
:102480000F9108950F931F938C010E942312C8018E
:102490000E942B121F910F9108952F923F924F92FD
:1024A0005F926F927F928F929F92AF92BF92CF92E4
:1024B000DF92EF92FF920F931F93DF93CF93CDB7ED
:1024C000DEB7A0970FB6F894DEBF0FBECDBF1C01DC
:1024D0006A017B01411551056105710549F4DC0173
:1024E000ED91FC910190F081E02D60E3099554C0DD
:1024F000882499245401422E55246624772401E02F
:1025000010E00C0F1D1F080D191DC701B601A30116
:1025100092010E94FE14F80160830894811C911CB2
:10252000A11CB11CC701B601A30192010E94FE14B7
:10253000C901DA016C017D01C114D104E104F10487
:10254000F1F681E0E82EF12CEC0EFD1EE80CF91CF2
:102550003E010894611C711CD501C4010197A109B9
:10256000B1096C01C818D90814C0F601EE0DFF1DA1
:1025700060816A3010F4605D01C0695CD101ED9149
:10258000FC910190F081E02DC10109950894E108CA
:10259000F1086E147F0449F7A0960FB6F894DEBFD9
:1025A0000FBECDBFCF91DF911F910F91FF90EF90A4
:1025B000DF90CF90BF90AF909F908F907F906F9063
:1025C0005F904F903F902F900895EF92FF920F935E
:1025D0001F93CF93DF93EC017A018B0177FF0FC03C
:1025E000E881F9810190F081E02D6DE20995109567
:1025F0000095F094E094E11CF11C011D111DCE0129
:10260000B801A7012AE00E944D12DF91CF911F91DE
:102610000F91FF90EF900895AB01662757FD6095ED
:10262000762F0E94E51208955058BB27AA270ED096
:1026300075C166D130F06BD120F031F49F3F11F4B9
:102640001EF45BC10EF4E095E7FB51C1E92F77D191
:1026500080F3BA17620773078407950718F071F4BF
:102660009EF58FC10EF4E0950B2EBA2FA02D0B0115
:10267000B90190010C01CA01A0011124FF27591BC7
:1026800099F0593F50F4503E68F11A16F040A22FCD
:10269000232F342F4427585FF3CF4695379527953E
:1026A000A795F0405395C9F77EF41F16BA0B620B3D
:1026B000730B840BBAF09150A1F0FF0FBB1F661F84
:1026C000771F881FC2F70EC0BA0F621F731F841FC7
:1026D00048F4879577956795B795F7959E3F08F0ED
:1026E000B3CF9395880F08F09927EE0F97958795AC
:1026F0000895D9D008F481E008950CD00FC107D116
:1027000040F0FED030F021F45F3F19F0F0C05111DD
:1027100039C1F3C014D198F39923C9F35523B1F308
:10272000951B550BBB27AA2762177307840738F040
:102730009F5F5F4F220F331F441FAA1FA9F333D09F
:102740000E2E3AF0E0E830D091505040E695001C53
:10275000CAF729D0FE2F27D0660F771F881FBB1F0F
:10276000261737074807AB07B0E809F0BB0B802DE9
:10277000BF01FF2793585F4F2AF09E3F510568F035
:10278000B6C000C15F3FECF3983EDCF386957795C9
:102790006795B795F7959F5FC9F7880F911D969537
:1027A000879597F90895E1E0660F771F881FBB1F93
:1027B000621773078407BA0720F0621B730B840B40
:1027C000BA0BEE1F88F7E095089504D06894B11114
:1027D000D9C00895BCD088F09F5790F0B92F9927A1
:1027E000B751A0F0D1F0660F771F881F991F1AF01C
:1027F000BA95C9F712C0B13081F0C3D0B1E00895E5
:10280000C0C0672F782F8827B85F39F0B93FCCF365
:10281000869577956795B395D9F73EF49095809511
:10282000709561957F4F8F4F9F4F0895E89409C031
:1028300097FB3EF490958095709561957F4F8F4FF3
:102840009F4F9923A9F0F92F96E9BB279395F69509
:10285000879577956795B795F111F8CFFAF4BB0F87
:1028600011F460FF1BC06F5F7F4F8F4F9F4F16C0EB
:10287000882311F096E911C0772321F09EE8872F75
:10288000762F05C0662371F096E8862F70E060E031
:102890002AF09A95660F771F881FDAF7880F9695AA
:1028A000879597F90895990F0008550FAA0BE0E84E
:1028B000FEEF16161706E807F907C0F01216130602
:1028C000E407F50798F0621B730B840B950B39F442
:1028D0000A2661F0232B242B252B21F408950A26A8
:1028E00009F4A140A6958FEF811D811D089597F9E8
:1028F0009F6780E870E060E008959FEF80EC0895A6
:1029000000240A94161617061806090608950024CE
:102910000A9412161306140605060895092E039448
:10292000000C11F4882352F0BB0F40F4BF2B11F4BC
:1029300060FF04C06F5F7F4F8F4F9F4F089557FD1B
:102940009058440F551F59F05F3F71F04795880F1D
:1029500097FB991F61F09F3F79F0879508951216B4
:1029600013061406551FF2CF4695F1DF08C0161660
:1029700017061806991FF1CF869571056105089411
:102980000895E894BB2766277727CB0197F9089528
:102990008ADF08F48FEF0895629FD001739FF001E2
:1029A000829FE00DF11D649FE00DF11D929FF00DDF
:1029B000839FF00D749FF00D659FF00D9927729F16
:1029C000B00DE11DF91F639FB00DE11DF91FBD01A1
:1029D000CF011124089597FB092E07260AD077FD11
:1029E00004D049D006D000201AF4709561957F4F2D
:1029F0000895F6F7909581959F4F0895A1E21A2EBC
:102A0000AA1BBB1BFD010DC0AA1FBB1FEE1FFF1F92
:102A1000A217B307E407F50720F0A21BB30BE40BE2
:102A2000F50B661F771F881F991F1A9469F7609529
:102A30007095809590959B01AC01BD01CF010895E3
:102A400097FB092E05260ED057FD04D0D7DF0AD0FC
:102A5000001C38F450954095309521953F4F4F4FCD
:102A60005F4F0895F6F790958095709561957F4F2B
:102A70008F4F9F4F0895AA1BBB1B51E107C0AA1F90
:102A8000BB1FA617B70710F0A61BB70B881F991F0F
:102A90005A95A9F780959095BC01CD010895EE0F48
:102AA000FF1F0590F491E02D09942F923F924F92D1
:102AB0005F926F927F928F929F92AF92BF92CF92CE
:102AC000DF92EF92FF920F931F93CF93DF93CDB7D7
:102AD000DEB7CA1BDB0B0FB6F894DEBF0FBECDBF4F
:102AE00009942A88398848885F846E847D848C8420
:102AF0009B84AA84B984C884DF80EE80FD800C8129
:102B00001B81AA81B981CE0FD11D0FB6F894DEBF0B
:0C2B10000FBECDBFED010895F894FFCF7B
:102B1C00446967697420776173200020616E6420BA
:102B2C0063616E6E6F742062652077726974746570
:102B3C006E0020706F733A25642C25642C25642C50
:102B4C000020746F74616C5F61763A256420726545
:102B5C0063656E745F61763A256400425554544F38
:102B6C004E20505553484544002000A20300000855
:102B7C000009000C00080007000600040003000216
:102B8C00000A000B0005003F065B4F666D7D077F5A
:102B9C006F377C395E79710A00320000000A00142C
:102BAC0000FFFFFFFFFFFFFFFF0100FFFF640000BE
:102BBC0000000000000000190000000000000000F0
:102BCC0000000064000000FFFFFFFF6400360202FB
:0E2BDC00009D01000000009F11EC110412008A
:00000001FF
