:100000000C9466000C948E000C948E000C948E0060
:100010000C948E000C948E000C948E000C94BC05F5
:100020000C948E000C948E000C948E000C94680539
:100030000C948E000C948E000C9414050C948E007D
:100040000C94B90F0C948E000C9449100C948E00F3
:100050000C948E000C948E000C948E000C948E00E8
:100060000C94DD080C948E000201000000000024B6
:100070000027002A0000000000250028002B0000B7
:1000800000000023002600290004040404040404E2
:100090000402020202020203030303030301020437
:1000A00008102040800102040810200102040810FA
:1000B0002000000007000201000003040600000009
:1000C000000000000000D707A20A921111241FBEF1
:1000D000CFEFD4E0DEBFCDBF11E0A0E0B1E0E4EAB5
:1000E000FBE202C005900D92AC3AB107D9F713E0DC
:1000F000ACEAB1E001C01D92AD3CB107E1F710E000
:10010000CCECD0E004C02297FE010E949515C63CBD
:10011000D107C9F70E94F60E0C94D0150C9400007C
:100120000F931F93CF93DF93689F8001699F100DFA
:10013000789F100D1124C8010E94AC00EC010097BB
:1001400029F060E070E0A8010E94AE01CE01DF91CD
:10015000CF911F910F910895CF93DF93BC0182300F
:10016000910510F462E070E0A091CB03B091CC0354
:10017000ED01E0E0F0E040E050E021C088819981AD
:100180008617970769F48A819B81309719F09383CA
:10019000828304C09093CC038093CB03FE0134C0D0
:1001A0006817790738F44115510519F08417950738
:1001B00008F4AC01FE018A819B819C01E901209732
:1001C000E9F641155105A9F1CA01861B970B049761
:1001D00008F4BA01E0E0F0E02AC08D919C911197FB
:1001E00084179507F9F46417750781F412968D91B9
:1001F0009C911397309719F09383828304C0909356
:10020000CC038093CB03FD0132964CC0CA01861B00
:10021000970BFD01E80FF91F6193719302978D937E
:100220009C9340C0FD01828193819C01D90110976C
:10023000A1F68091C9039091CA03892B41F4809162
:100240004401909145019093CA038093C903409162
:100250004601509147014115510541F44DB75EB734
:100260008091420190914301481B590B2091C90391
:100270003091CA03CA01821B930B8617970780F03F
:10028000AB014E5F5F4F8417950750F0420F531F2D
:100290005093CA034093C903F9016193719302C05B
:1002A000E0E0F0E0CF01DF91CF910895CF93DF93AD
:1002B000009709F450C0EC0122971B821A82A0918A
:1002C000CB03B091CC03109709F140E050E0AC179C
:1002D000BD0708F1BB83AA83FE0121913191E20F92
:1002E000F31FAE17BF0779F48D919C911197280FDA
:1002F000391F2E5F3F4F3983288312968D919C9131
:1003000013979B838A834115510571F4D093CC03D5
:10031000C093CB0320C012968D919C911397AD0191
:10032000009711F0DC01D3CFFA01D383C28321916E
:100330003191E20FF31FCE17DF0769F488819981AD
:10034000280F391F2E5F3F4FFA01318320838A81A6
:100350009B8193838283DF91CF910895DC0101C05B
:100360006D9341505040E0F70895FB019F01E894E0
:100370004230C4F04532B4F44A3029F497FB1EF4FD
:10038000909581959F4F642F77270E947F15805D00
:100390008A330CF0895D8193CB010097A1F716F4A5
:1003A0005DE251931082C9010C94ED03AEE0B0E020
:1003B000ECEDF1E00C94A7150D891E8986E08C8385
:1003C0001A8309838FEF9FE79E838D839E01275EAB
:1003D0003F4FCE0101966F89788DA9010E94FA01E5
:1003E0002F813885020F131FF80110822E96E4E04A
:1003F0000C94C315ABE0B0E0E0E0F2E00C9499158A
:100400003C012B015A01FC0117821682838181FD78
:1004100003C06FEF7FEFC6C19AE0892E1E010894DA
:10042000211C311CF3012381F20123FD859123FF5F
:1004300081912F01882309F4B2C1853239F423FD5B
:10044000859123FF81912F01853229F490E0B3013A
:100450000E94FD03E7CF982FFF24EE249924FFE1AB
:10046000FF15D0F09B3269F09C3228F4903259F09D
:10047000933291F40EC09D3249F0903369F441E01B
:1004800024C052E0F52A84E0F82A28C098E0F92A2E
:1004900025C0E0E1FE2A22C0F7FC29C0892F805345
:1004A0008A3070F4F6FE05C0989C902C1124980EAA
:1004B00015C0E89CE02C1124E80EF0E2FF2A0EC0E3
:1004C0009E3229F4F6FC6BC140E4F42A07C09C3646
:1004D00019F450E8F52A02C0983649F4F20123FDD8
:1004E000959123FF91912F01992309F0B8CF892F7E
:1004F0008554833018F08052833038F444E050E063
:10050000A40EB51E5FE359830FC0933631F09337C5
:1005100079F0933509F056C020C0F50180818983B8
:1005200042E050E0A40EB51E610101E010E012C0EF
:10053000F501C080D180F6FC03C06FEF7FEF02C0F1
:10054000692D70E042E050E0A40EB51EC6010E9485
:10055000E2038C015FE7F52214C0F501C080D18071
:10056000F6FC03C06FEF7FEF02C0692D70E042E040
:1005700050E0A40EB51EC6010E94D7038C0150E8BE
:10058000F52AF3FE07C01AC080E290E0B3010E9492
:10059000FD03EA948E2D90E008171907A8F30EC00A
:1005A000F601F7FC8591F7FE81916F0190E0B301B0
:1005B0000E94FD03E110EA9401501040011511055D
:1005C00079F7EAC0943611F0993669F5F7FE08C05C
:1005D000F501208131814281538184E090E00AC09D
:1005E000F501808191819C01442737FD4095542F6E
:1005F00082E090E0A80EB91E9FE6F92257FF09C0DD
:1006000050954095309521953F4F4F4F5F4FE0E813
:10061000FE2ACA01B901A1012AE030E00E942904A2
:10062000D82ED21840C0953729F41F2D1F7E2AE0FE
:1006300030E01DC01F2D197F9F3661F0903720F4E8
:10064000983509F0ACC00FC0903739F0983709F0F1
:10065000A6C004C028E030E00AC0106114FD146098
:1006600020E130E004C014FD166020E132E017FF05
:1006700008C0F501608171818281938144E050E07E
:1006800008C0F50180819181BC0180E090E042E0EA
:1006900050E0A40EB51EA1010E942904D82ED21844
:1006A0008FE7F82EF122F6FE0BC05EEFF522D9148B
:1006B00038F4F4FE07C0F2FC05C08FEEF82202C049
:1006C0001D2D01C0192DF4FE0DC0FE01ED0DF11D13
:1006D0008081803319F499EEF92208C01F5FF2FE81
:1006E00005C003C08F2D867809F01F5F0F2DF3FC26
:1006F00014C0F0FE0FC01E1510F09D2C0BC09D2CD9
:100700009E0C911A1E2D06C080E290E0B3010E945B
:10071000FD031F5F1E15C0F304C01E1510F4E11A7F
:1007200001C0EE2404FF0FC080E390E0B3010E94FB
:10073000FD0302FF1DC001FD03C088E790E00EC06D
:1007400088E590E00BC0802F867891F001FF02C011
:100750008BE201C080E2F7FC8DE290E0B3010E94E1
:10076000FD0306C080E390E0B3010E94FD039A946C
:10077000D914C0F3DA94F101ED0DF11D808190E000
:10078000B3010E94FD03DD20A9F706C080E290E0DE
:10079000B3010E94FD03EA94EE20C1F743CEF301BA
:1007A00066817781CB012B96E2E10C94B515FC01B3
:1007B0000590615070400110D8F7809590958E0F8C
:1007C0009F1F0895FC016150704001900110D8F7FF
:1007D000809590958E0F9F1F0895DC01FC01672F77
:1007E00071917723E1F7329704C07C916D93708308
:1007F0006291AE17BF07C8F308950F931F93CF936D
:10080000DF938C01EB018B8181FF1BC082FF0DC048
:100810002E813F818C819D812817390764F4E881FE
:10082000F9810193F983E88306C0E885F985802F73
:100830000995892B31F48E819F8101969F838E8348
:1008400002C00FEF1FEFC801DF91CF911F910F91F1
:100850000895FA01AA27283051F1203181F1E89456
:100860006F936E7F6E5F7F4F8F4F9F4FAF4FB1E0A3
:100870003ED0B4E03CD0670F781F891F9A1FA11D9E
:10088000680F791F8A1F911DA11D6A0F711D811D9F
:10089000911DA11D20D009F468943F912AE0269F64
:1008A00011243019305D3193DEF6CF010895462FC3
:1008B0004770405D4193B3E00FD0C9F7F6CF462FA4
:1008C0004F70405D4A3318F0495D31FD405241930D
:1008D00002D0A9F7EACFB4E0A695979587957795CA
:1008E0006795BA95C9F700976105710508959B0151
:1008F000AC010A2E06945795479537952795BA95DA
:10090000C9F7620F731F841F951FA01D0895DC0196
:100910009091C101933008F083C06C93E92FF0E00F
:10092000E859FF4F849111968C9311979F5F909394
:10093000C101813039F1823009F44BC0882309F0BC
:1009400072C014BC15BC84B5826084BD85B581605D
:1009500085BD8C91282F30E0F901E757FF4FE491D6
:10096000F0E0EE0FFF1FEB58FF4F859194919093AD
:10097000B1018093B00123563F4FF90184918093D8
:10098000B201089510928000109281008091810040
:1009900088608093810080918100816080938100D4
:1009A0008C91282F30E0F901E757FF4FE491F0E0F8
:1009B000EE0FFF1FEB58FF4F859194919093B80174
:1009C0008093B70123563F4FF90184918093B90179
:1009D00008951092B0001092B1008091B000826032
:1009E0008093B0008091B10081608093B1008C91C0
:1009F000282F30E0F901E757FF4FE491F0E0EE0FC8
:100A0000FF1FEB58FF4F859194919093BF01809306
:100A1000BE0123563F4FF90184918093C001089590
:100A20008FEF11968C9308951F920F920FB60F922D
:100A300011248F939F93AF93BF93EF93FF93809174
:100A4000AC019091AD01A091AE01B091AF01E091E8
:100A5000B001F091B1010097A105B10531F180819C
:100A60009091B201892780838091AC019091AD0172
:100A7000A091AE01B091AF01181619061A061B0617
:100A8000E4F48091AC019091AD01A091AE01B091E0
:100A9000AF010197A109B1098093AC019093AD0119
:100AA000A093AE01B093AF0108C010926E00908188
:100AB0008091B201809589238083FF91EF91BF914E
:100AC000AF919F918F910F900FBE0F901F9018952F
:100AD0001F920F920FB60F9211248F939F93AF9393
:100AE000BF93EF93FF938091B3019091B401A091D4
:100AF000B501B091B601E091B701F091B80100974E
:100B0000A105B10531F180819091B90189278083D8
:100B10008091B3019091B401A091B501B091B6015B
:100B2000181619061A061B06E4F48091B301909179
:100B3000B401A091B501B091B6010197A109B10925
:100B40008093B3019093B401A093B501B093B60123
:100B500008C010926F0090818091B901809589231F
:100B60008083FF91EF91BF91AF919F918F910F90F3
:100B70000FBE0F901F9018951F920F920FB60F92F5
:100B800011248F939F93AF93BF93EF93FF93809123
:100B9000BA019091BB01A091BC01B091BD01E0915F
:100BA000BE01F091BF010097A105B10531F180812F
:100BB0009091C001892780838091BA019091BB01F7
:100BC000A091BC01B091BD01181619061A061B06AA
:100BD000E4F48091BA019091BB01A091BC01B09165
:100BE000BD010197A109B1098093BA019093BB019E
:100BF000A093BC01B093BD0108C010927000908119
:100C00008091C001809589238083FF91EF91BF91EE
:100C1000AF919F918F910F900FBE0F901F901895DD
:100C2000FC018181813039F0823041F0882341F428
:100C300010926E0005C010926F0002C010927000FA
:100C4000808160E00E941D0F08952F923F925F9275
:100C50006F927F928F929F92AF92BF92CF92DF92CC
:100C6000EF92FF920F931F93DF93CF9300D000D0AA
:100C7000CDB7DEB78C011B0129833A834B835C839C
:100C8000DC0111968C91119787FD58C18C9161E020
:100C90000E94FD0EF8015180552021F0F2E05F1610
:100CA00009F0BEC031018824992460E072E18AE72E
:100CB00090E0A40193010E94641559016A01860124
:100CC00075010894E108F108010911092FEFE216F6
:100CD000F1040105110509F008F499C060E472E41B
:100CE0008FE090E0A40193010E94641579018A01CC
:100CF0000894E108F1080109110982E05816C9F4C5
:100D00009FEFE916F1040105110509F010F482E0E6
:100D100084C060E970ED83E090E0A40193010E943B
:100D2000641579018A010894E108F10801091109A3
:100D300083E0AFEFEA16F1040105110509F008F4AC
:100D400067C068E478EE81E090E0A40193010E941E
:100D5000641579018A010894E108F1080109110973
:100D6000552011F483E01EC0B2E05B1611F084E060
:100D700019C0EFEFEE16F1040105110509F010F4AA
:100D800084E04BC064E274EF80E090E0A401930142
:100D90000E94641579018A010894E108F1080109AB
:100DA000110985E0FFEFEF16F1040105110581F14E
:100DB00078F162E17AE780E090E0A40193010E947B
:100DC000641579018A010894E108F1080109110903
:100DD000552011F086E001C084E02FEFE216F10407
:100DE00001051105A9F0A0F0C601B50120E034E02D
:100DF00040E050E00E94641579018A010894E108FE
:100E0000F10801091109552039F485E003C081E09A
:100E1000552019F485BD3AC087E08093B10036C0F3
:100E20005101CC24DD2460E072E18AE790E0A60164
:100E300095010E94641579018A010894E108F1087E
:100E40000109110980E0E81680E0F80681E0080752
:100E500080E0180710F491E010C068E478EE81E0BB
:100E600090E0A60195010E94641579018A01089419
:100E7000E108F1080109110993E0A1E05A1631F4E3
:100E800080918100887F982B9093810089819A813D
:100E9000AB81BC810097A105B10529F48FEF9FEFCD
:100EA000AFEFBFEF13C0220C331CB10180E090E024
:100EB00029813A814B815C810E94101528EE33E034
:100EC00040E050E00E944215C901DA01E1E05E16FF
:100ED000A1F0F2E05F1619F1552081F5E7BC80938F
:100EE000AC019093AD01A093AE01B093AF0180919E
:100EF0006E00826080936E0021C0F0928900E092C3
:100F000088008093B3019093B401A093B501B0938E
:100F1000B60180916F00826080936F000FC0E092F5
:100F2000B3008093BA019093BB01A093BC01B0932E
:100F3000BD01809170008260809370000F900F90CF
:100F40000F900F90CF91DF911F910F91FF90EF9035
:100F5000DF90CF90BF90AF909F908F907F906F90D9
:100F60005F903F902F90089581E08093CB01609334
:100F7000C6011092C9011092CA0108958091C5015D
:100F80009091C401891B08959091C4018091C5017D
:100F9000981710F080E00895E091C201F091C3012C
:100FA000E90FF11D80819F5F9093C401089508951A
:100FB000DF93CF930F92CDB7DEB769838091CB01DA
:100FC0008823A9F08091CA018032B0F48091C901D0
:100FD000E091C701F091C801E80FF11D6083809195
:100FE000C9018F5F8093C9018093CA0105C0CE01FA
:100FF000019661E00E94C0080F90CF91DF910895A3
:101000006091C7017091C8018091C6014091CA01E9
:1010100021E00E947B081092C9011092CA0110922F
:10102000CB010895862F6091C2017091C3014132B6
:1010300008F040E20E9443081092C4018093C50169
:1010400008950E941208089580E290E061E070E047
:101050000E9490008093C2019093C3011092C4013A
:101060001092C50180E290E061E070E00E94900083
:101070008093C7019093C8011092C9011092CA01D0
:101080000E945F0A0895982F413210F040E031C06D
:101090008091CD018823E1F781E08093CD018FEF2E
:1010A0008093DE011092D50141504093D6014F5FED
:1010B000990F91609093CE0185EE8093BC00809152
:1010C000CD018130E1F38091D501841710F4409176
:1010D000D501A091D301B091D40120E030E007C048
:1010E000FB01E20FF31F8D9180832F5F3F4F241789
:1010F000B8F3842F08951F93582F122F413210F008
:1011000081E03CC08091CD018823E1F782E08093AB
:10111000CD018FEF8093DE011092D5014093D6016F
:10112000A091D301B091D401FB0102C081918D93B4
:101130008E2F861B8417D0F3852F90E0880F991F80
:101140008093CE0185EE8093BC00112321F0809125
:10115000CD018230E1F38091DE018F3F11F480E018
:101160000DC08091DE01803211F482E007C08091D1
:10117000DE01803311F084E001C083E01F91089507
:10118000482F613210F081E008958091CD018430C4
:1011900011F082E008956093DA01A091D701B09137
:1011A000D801842F9C01F90102C081918D938E2F6B
:1011B000841B8617D0F380E008951F920F920FB61C
:1011C0000F9211242F933F934F935F936F937F93CD
:1011D0008F939F93AF93BF93EF93FF938091B90049
:1011E00090E0887F90708036910509F4E2C08136E6
:1011F0009105CCF58832910509F47BC089329105BF
:10120000B4F48031910509F46FC0813191053CF44B
:10121000009709F438C1089709F040C165C08831CA
:10122000910509F466C0809709F038C17FC0803409
:10123000910509F4A3C08134910544F480339105EC
:1012400009F47FC0C89709F029C186C0803591058F
:1012500009F486C08835910509F495C08834910554
:1012600009F01CC19EC08839910509F404C189396F
:101270009105ECF48837910509F49BC089379105F5
:101280004CF48836910509F494C08037910509F033
:1012900005C18FC08838910509F4EDC080399105EA
:1012A00009F48DC08038910509F0F8C088C0803BF2
:1012B000910509F4B2C0813B91054CF4803A910547
:1012C00009F491C0883A910509F0E8C0A6C0803CB5
:1012D000910509F4D4C0883C910509F4D0C0883B3D
:1012E000910509F0DBC0B1C08091CE018093BB00B5
:1012F000C0C09091D5018091D601981778F4909153
:10130000D501E091D301F091D401E90FF11D808165
:101310008093BB009F5F9093D501ABC085ED809318
:10132000BC008091BC0084FDFCCFB6C080E28093FD
:10133000DE0185ED8093BC008091BC0084FDFCCF74
:10134000ABC080E38093DE0185ED8093BC0080918B
:10135000BC0084FDFCCFA0C088E38093DE018FC079
:101360008091D5019091BB00E091D301F091D4011F
:10137000E80FF11D90838F5F8093D5019091D50187
:101380008091D60174C08091D5019091BB00E0910D
:10139000D301F091D401E80FF11D90838F5F80930A
:1013A000D50185ED8093BC008091BC0084FDFCCF0D
:1013B00073C083E08093CD011092DD015AC080910B
:1013C000DD01803208F057C08091DD019091BB00B3
:1013D000E091DB01F091DC01E80FF11D90838F5F5C
:1013E0008093DD0146C08091DD01803248F4809118
:1013F000DD01E091DB01F091DC01E80FF11D1082CD
:101400006091DD01E091D101F091D2018091DB0189
:101410009091DC0170E0099532C084E08093CD01A9
:101420001092D9011092DA01E091CF01F091D00130
:1014300009958091DA01882341F481E08093DA01F3
:10144000E091D701F091D80110829091D901E091FB
:10145000D701F091D801E90FF11D80818093BB0085
:101460009F5F9093D9019091D9018091DA019817EB
:1014700010F485EC01C085E88093BC000FC085ECBA
:101480008093BC0009C01092DE0185ED8093BC0002
:101490008091BC0084FDFCCF1092CD01FF91EF91B3
:1014A000BF91AF919F918F917F916F915F914F917C
:1014B0003F912F910F900FBE0F901F901895109293
:1014C000CD01449A459AE9EBF0E080818E7F8083DC
:1014D00080818D7F808388E48093B80085E4809349
:1014E000BC0080E290E061E070E00E949000809398
:1014F000D3019093D40180E290E061E070E00E941B
:1015000090008093D7019093D80180E290E061E051
:1015100070E00E9490008093DB019093DC010895BD
:1015200080917C0190917D016091700170917101B9
:10153000660F771F01960E942F1590937D0180936F
:101540007C01089580917A0190917B01909328030A
:10155000809327030895EF92FF920F931F939C01AE
:10156000F62EE42E0CEC11E0C801B9010E94B4077C
:10157000C8016F2D0E94D807C8016E2D0E94D807A0
:10158000C8010E9400081F910F91FF90EF900895ED
:10159000BF92CF92DF92EF92FF920F931F93CF9360
:1015A000DF938C01F62E6A01E22EB32E8CEC91E0D3
:1015B000B8010E94B4078CEC91E06F2D0E94D8070F
:1015C0008CEC91E00E9400088CEC91E0B8010E9444
:1015D000B4078CEC91E0B801A6010E9421082E2DE1
:1015E0003B2DC901EC0105C08CEC91E00E94C407C1
:1015F00089938CEC91E00E94BE078823A9F78CECBC
:1016000091E00E940008DF91CF911F910F91FF9010
:10161000EF90DF90CF90BF9008954F925F926F92BE
:101620007F928F929F92AF92BF92CF92DF92EF9272
:10163000FF920F931F93DF93CF93CDB7DEB7A4979D
:101640000FB6F894DEBF0FBECDBF582E492E3A011B
:101650004B015901DE011196EEE7F1E084E20190C1
:101660000D928150E1F7C401B3010E9465137B0123
:101670008C01CB01652D742D4AE050E00E94B5012C
:10168000852D942D9C01690103C00894C11CD11CB7
:10169000F60180818823C9F78EE28083C801B701F3
:1016A0000E9498139B01AC01C401B3010E94FC127B
:1016B0007B018C01AA0CBB1CAA0CBB1CAC0EBD1E72
:1016C000F50161817281838194810E9498139B014D
:1016D000AC01C801B7010E9448140E94651397FF2E
:1016E00007C090958095709561957F4F8F4F9F4F64
:1016F0000894C11CD11CCB01B6014AE050E00E9405
:10170000B501852D942DA4960FB6F894DEBF0FBEBB
:10171000CDBFCF91DF911F910F91FF90EF90DF90A0
:10172000CF90BF90AF909F908F907F906F905F9081
:101730004F90089580912003882351F48EE193E027
:101740006AE570E122E330E040E050E00E942506C7
:10175000089580912003882341F10E940110209177
:101760002103309122034091230350912403621BF3
:10177000730B840B950B695E734080409040C8F0FA
:101780008EE193E066E071E024EF31E040E050E06C
:101790000E9425060E94011060932103709322038A
:1017A000809323039093240308958EE193E00E9495
:1017B00010060895EF92FF920F931F93CF93DF933C
:1017C000EC0197FD1EC02091700130917101C9019B
:1017D000880F991FC817D907D4F460E0C217D30740
:1017E0000CF061E085E00E941D0F60917001709126
:1017F0007101CE010E942F15FC01E05AFE4F60815D
:1018000017C08FEFCF3FD80711F460E011C086EB0F
:1018100093E060E071E00E940B1286EB93E0BE0162
:101820000E94F41286EB93E06BE071E00E942A12B2
:1018300000E511E0C0E0D0E0E62EFF240FC0B701C4
:101840000C2E02C0759567950A94E2F76170F80155
:1018500080810E941D0F21960E5F1F4F80914801CD
:10186000909149010197C817D9074CF3DF91CF91A7
:101870001F910F91FF90EF9008952F923F924F92FA
:101880005F926F927F928F929F92AF92BF92CF9210
:10189000DF92EF92FF920F931F93CF93DF9383E535
:1018A00090E062E346E050E02FED31E00E94C80A8C
:1018B0009091E00180E02091DF01222E3324282A3C
:1018C000392A9091E20180E02091E101422E5524D5
:1018D000482A592A9091E40180E02091E301C22F27
:1018E000D0E0C82BD92BB101882777FD8095982FA0
:1018F0000E9498137B018C01B201882777FD8095A7
:10190000982F0E9498135B016C01BE01882777FD18
:101910008095982F0E9498133B014C01C801B70194
:10192000A80197010E9448147B018C01C601B501F2
:10193000A60195010E9448149B01AC01C801B701A2
:101940000E94FD127B018C01C401B301A40193012B
:101950000E9448149B01AC01C801B7010E94FD120E
:101960000E94AF147B018C012AE037ED43EA5CE36F
:101970000E9461138823A4F49091090380910A03C3
:10198000981781F081E0809309030E940110609311
:101990000F0370931003809311039093120302C0FE
:1019A000109213038091090380930A030E9401108F
:1019B00020910F03309110034091110350911203B5
:1019C000621B730B840B950B60930B0370930C03DA
:1019D00080930D0390930E0320917601309177014F
:1019E0004091780150917901261737074807590728
:1019F00044F59091090380911303891711F1909395
:101A000013030E94011020910F03309110034091A5
:101A1000110350911203621B730B840B950B60939F
:101A2000190370931A0380931B0390931C030E9465
:101A3000011060931503709316038093170390931E
:101A4000180380914E010E946A0F80931D039091AC
:101A50001303992391F080911403981771F00E9459
:101A60009A0B80917C0190917D01181619062CF437
:101A7000019790937D0180937C0180911303809363
:101A8000140385EE92E0B801A70122E030E00E9445
:101A90000D0B86EB93E065EE72E00E940B1286EB75
:101AA00093E060E27CE20E94F4128DB79EB70A9741
:101AB0000FB6F8949EBF0FBE8DBFEDB7FEB731963F
:101AC00005EE11E0ADB7BEB712961C930E931197B9
:101AD00082E291E093838283358224825782468218
:101AE000D187C0870E94D6018DB79EB70A960FB6E0
:101AF000F8949EBF0FBE8DBF86EB93E0B8010E94A5
:101B00000B1200D000D000D0EDB7FEB73196ADB7C4
:101B1000BEB712961C930E9311978FE291E09383B8
:101B2000828380911D03848315820E94D6018DB724
:101B30009EB706960FB6F8949EBF0FBE8DBF86EB7C
:101B400093E0B8010E940B1286EB93E06AE00E94DA
:101B5000031280914C010E946A0F20E0019709F462
:101B600021E02093F5028091F602281751F00E949F
:101B700001106093FB027093FC028093FD0290932E
:101B8000FE028091F5028093F6020E9401102091DE
:101B9000FB023091FC024091FD025091FE02621B5B
:101BA000730B840B950B6093F7027093F80280938C
:101BB000F9029093FA0220917201309173014091E1
:101BC000740150917501261737074807590744F5E6
:101BD0009091F5028091FF02891711F19093FF0215
:101BE0000E940110209101033091020340910303F0
:101BF00050910403621B730B840B950B60930503D8
:101C00007093060380930703909308030E940110CA
:101C10006093010370930203809303039093040382
:101C20009091FF02992351F080910003981731F0B1
:101C300086EB93E064E371E00E942A128091FF0238
:101C4000882311F5809100038823F1F0809105032A
:101C500090910603A0910703B0910803895E934019
:101C6000A040B0407CF080917A0190917B019093EC
:101C70002803809327038FEF9FEF90937D0180933C
:101C80007C0102C00E94900A8091FF0280930003B1
:101C90008091F7029091F802A091F902B091FA02B6
:101CA000895E9340A040B04074F080917C01909197
:101CB0007D0197FD08C080912503909126039093A4
:101CC00028038093270320912703309128038091D4
:101CD0002503909126032817390761F480917C0130
:101CE00090917D01029724F481E08093200302C04B
:101CF0001092200380917A0190917B012817390777
:101D000011F41092200380917C0190917D010E943A
:101D1000DA0B0E94A90BDF91CF911F910F91FF90D9
:101D2000EF90DF90CF90BF90AF909F908F907F907B
:101D30006F905F904F903F902F9008950F931F9357
:101D4000CF93DF938CEC91E00E94240886EB93E024
:101D500040E855E260E070E00E94861083E590E084
:101D60006DE240E00E94AB0A83E590E06DE240E165
:101D70000E94AB0A83E590E06DE248E00E94AB0A66
:101D800080914C0160E00E94FD0E80914E0160E068
:101D90000E94FD0E80914A0161E00E94FD0E00E567
:101DA00011E0C0E0D0E008C0F801808161E00E944D
:101DB000FD0E21960E5F1F4F8091480190914901C1
:101DC000C817D9078CF386EB93E040E855E260E052
:101DD00070E00E9486108EE193E060914A010E94BB
:101DE0008704DF91CF911F910F9108950E940F10EA
:101DF0000E949E0E0E943D0CFDCF282F30E0C901AD
:101E000083569F4FFC01949127573F4FF9018491CE
:101E1000882391F0E82FF0E0EE0FFF1FE559FF4F08
:101E2000A591B491662329F48C91909589238C9384
:101E300008958C91892B8C930895482F50E0CA0106
:101E40008F549F4FFC012491CA0183569F4FFC0180
:101E5000949147575F4FFA0134913323D1F12223F4
:101E600031F1233021F4809180008F7705C0243038
:101E700031F4809180008F7D8093800018C02130E4
:101E800019F484B58F7704C0223021F484B58F7D96
:101E900084BD0DC0263021F48091B0008F7705C03D
:101EA000273029F48091B0008F7D8093B000E32F1C
:101EB000F0E0EE0FFF1FEB58FF4FA591B4916623A2
:101EC00029F48C91909589238C9308958C91892B7A
:101ED0008C930895682F70E0CB018F549F4FFC01C5
:101EE0002491CB0183569F4FFC01449167577F4F4C
:101EF000FB019491992319F420E030E038C02223AB
:101F000031F1233021F4809180008F7705C0243097
:101F100031F4809180008F7D8093800018C0213043
:101F200019F484B58F7704C0223021F484B58F7DF5
:101F300084BD0DC0263021F48091B0008F7705C09C
:101F4000273029F48091B0008F7D8093B000892FD5
:101F500090E0880F991F81589F4FFC01A591B49183
:101F60008C9120E030E0842311F021E030E0C901C1
:101F700008951F920F920FB60F9211242F933F9343
:101F80008F939F93AF93BF9380912D0390912E03D6
:101F9000A0912F03B0913003309131030196A11D20
:101FA000B11D232F2D5F2D3720F02D570196A11D38
:101FB000B11D2093310380932D0390932E03A093A2
:101FC0002F03B09330038091290390912A03A091AD
:101FD0002B03B0912C030196A11DB11D8093290301
:101FE00090932A03A0932B03B0932C03BF91AF913E
:101FF0009F918F913F912F910F900FBE0F901F9047
:1020000018958FB7F89420912D0330912E034091AD
:102010002F03509130038FBFB901CA0108957894FE
:1020200084B5826084BD84B5816084BD85B58260DD
:1020300085BD85B5816085BDEEE6F0E0808181607B
:102040008083E1E8F0E0808182608083808181602C
:102050008083E0E8F0E0808181608083E1EBF0E064
:10206000808184608083E0EBF0E080818160808308
:10207000EAE7F0E0808184608083808182608083F1
:102080008081816080838081806880831092C1001C
:1020900008951F920F920FB60F9211242F933F9322
:1020A0004F935F936F937F938F939F93AF93BF9360
:1020B000EF93FF934091C600E091B203F091B30318
:1020C000CF01019660E870E00E942F159C0180917D
:1020D000B4039091B5032817390739F0EE5CFC4F33
:1020E00040833093B3032093B203FF91EF91BF91EC
:1020F000AF919F918F917F916F915F914F913F91A0
:102100002F910F900FBE0F901F9018955F926F92B6
:102110007F928F929F92AF92BF92CF92DF92EF9277
:10212000FF920F931F93CF93DF93EC013A014B0182
:10213000413482E458078FE0680780E078070CF0AC
:102140007FC060E874E88EE190E0A40193010E94F2
:1021500064152150304040405040CA01B90122E08E
:1021600030E040E050E00E94641559016A01A60188
:102170009501209530954095509594E0220F331F9E
:10218000441F551F9A95D1F760E074E284EF90E008
:102190000E946415CA01B9012FEF30E040E050E021
:1021A0000E941015A40193010E946415C901815079
:1021B0009F4F181619061CF4522E5A9403C055242A
:1021C0005394521A60E079E08DE390E0A40193010A
:1021D0000E9464152150304040405040CA01B9016E
:1021E00022E030E040E050E00E94641520953095F8
:1021F0004095509583E0220F331F441F551F8A9549
:10220000D1F760E074E284EF90E00E946415CA01A7
:10221000B9012FEF30E040E050E00E941015A4011A
:1022200093010E946415C90181509F4F1816190629
:102230001CF4822F815002C081E0821B851500F5BD
:10224000E885F98581E090E00A8802C0880F991F2F
:102250000A94E2F7808360E079E08DE390E0A401E6
:1022600093010E9464152150304040405040CA0103
:10227000B90122E030E040E050E00E94641504C063
:10228000E885F98510829501EC81FD813083EE812E
:10229000FF812083EA85FB85208141E050E0CA016F
:1022A0000E8402C0880F991F0A94E2F7282B20831E
:1022B000EA85FB852081CA010F8402C0880F991F1F
:1022C0000A94E2F7282B2083EA85FB858081088821
:1022D00002C0440F551F0A94E2F7842B8083DF91DC
:1022E000CF911F910F91FF90EF90DF90CF90BF9013
:1022F000AF909F908F907F906F905F900895FC01BA
:10230000A085B18521898C9190E0022E02C095951F
:1023100087950A94E2F780FFF6CF0484F585E02DD7
:102320006083089586EA91E09093B7038093B603A3
:1023300082E393E09093B9038093B80385EC90E037
:102340009093BB038093BA0384EC90E09093BD0319
:102350008093BC0380EC90E09093BF038093BE0316
:1023600081EC90E09093C1038093C00386EC90E0F1
:102370009093C3038093C20384E08093C40383E0FB
:102380008093C50387E08093C60385E08093C703ED
:1023900081E08093C80308950F931F93CF93DF9339
:1023A0008C01EB0109C02196D801ED91FC910190BF
:1023B000F081E02DC801099568816623A1F7DF91BE
:1023C000CF911F910F910895EF92FF920F931F935A
:1023D000CF93DF938C017B01EA010CC0D7016D9193
:1023E0007D01D801ED91FC910190F081E02DC801B3
:1023F00009952197209791F7DF91CF911F910F9128
:10240000FF90EF900895DC01ED91FC910190F08137
:10241000E02D09950895DC01ED91FC910280F38196
:10242000E02D099508950F931F938C01DC01ED9128
:10243000FC910190F081E02D6DE00995D801ED91BE
:10244000FC910190F081E02DC8016AE009951F918F
:102450000F9108950F931F938C010E940B12C801D6
:102460000E9413121F910F9108952F923F924F9245
:102470005F926F927F928F929F92AF92BF92CF9214
:10248000DF92EF92FF920F931F93DF93CF93CDB71D
:10249000DEB7A0970FB6F894DEBF0FBECDBF1C010C
:1024A0006A017B01411551056105710549F4DC01A3
:1024B000ED91FC910190F081E02D60E3099554C00D
:1024C000882499245401422E55246624772401E05F
:1024D00010E00C0F1D1F080D191DC701B601A30147
:1024E00092010E944215F80160830894811C911C9E
:1024F000A11CB11CC701B601A30192010E944215A3
:10250000C901DA016C017D01C114D104E104F104B7
:10251000F1F681E0E82EF12CEC0EFD1EE80CF91C22
:102520003E010894611C711CD501C4010197A109E9
:10253000B1096C01C818D90814C0F601EE0DFF1DD1
:1025400060816A3010F4605D01C0695CD101ED9179
:10255000FC910190F081E02DC10109950894E108FA
:10256000F1086E147F0449F7A0960FB6F894DEBF09
:102570000FBECDBFCF91DF911F910F91FF90EF90D4
:10258000DF90CF90BF90AF909F908F907F906F9093
:102590005F904F903F902F900895EF92FF920F938E
:1025A0001F93CF93DF93EC017A018B0177FF0FC06C
:1025B000E881F9810190F081E02D6DE20995109597
:1025C0000095F094E094E11CF11C011D111DCE0159
:1025D000B801A7012AE00E943512DF91CF911F9127
:1025E0000F91FF90EF900895AB01662757FD60951E
:1025F000762F0E94CD1208955058BB27AA270ED0DF
:102600000DC1FED030F003D120F031F49F3F11F422
:102610001EF4F3C00EF4E095E7FBE9C0E92F0FD1FB
:1026200080F3BA17620773078407950718F071F4EF
:102630009EF527C10EF4E0950B2EBA2FA02D0B01AD
:10264000B90190010C01CA01A0011124FF27591BF7
:1026500099F0593F50F4503E68F11A16F040A22FFD
:10266000232F342F4427585FF3CF4695379527956E
:10267000A795F0405395C9F77EF41F16BA0B620B6D
:10268000730B840BBAF09150A1F0FF0FBB1F661FB4
:10269000771F881FC2F70EC0BA0F621F731F841FF7
:1026A00048F4879577956795B795F7959E3F08F01D
:1026B000B3CF9395880F08F09927EE0F97958795DC
:1026C000089571D008F481E0089504D06894B111A0
:1026D000D9C00895BCD088F09F5790F0B92F9927A2
:1026E000B751A0F0D1F0660F771F881F991F1AF01D
:1026F000BA95C9F712C0B13081F0C3D0B1E00895E6
:10270000C0C0672F782F8827B85F39F0B93FCCF366
:10271000869577956795B395D9F73EF49095809512
:10272000709561957F4F8F4F9F4F0895E89409C032
:1027300097FB3EF490958095709561957F4F8F4FF4
:102740009F4F9923A9F0F92F96E9BB279395F6950A
:10275000879577956795B795F111F8CFFAF4BB0F88
:1027600011F460FF1BC06F5F7F4F8F4F9F4F16C0EC
:10277000882311F096E911C0772321F09EE8872F76
:10278000762F05C0662371F096E8862F70E060E032
:102790002AF09A95660F771F881FDAF7880F9695AB
:1027A000879597F90895990F0008550FAA0BE0E84F
:1027B000FEEF16161706E807F907C0F01216130603
:1027C000E407F50798F0621B730B840B950B39F443
:1027D0000A2661F0232B242B252B21F408950A26A9
:1027E00009F4A140A6958FEF811D811D089597F9E9
:1027F0009F6780E870E060E008959FEF80EC0895A7
:1028000000240A94161617061806090608950024CF
:102810000A9412161306140605060895092E039449
:10282000000C11F4882352F0BB0F40F4BF2B11F4BD
:1028300060FF04C06F5F7F4F8F4F9F4F089557FD1C
:102840009058440F551F59F05F3F71F04795880F1E
:1028500097FB991F61F09F3F79F0879508951216B5
:1028600013061406551FF2CF4695F1DF08C0161661
:1028700017061806991FF1CF869571056105089412
:102880000895E894BB2766277727CB0197F9089529
:102890000BD0C4CFB5DF28F0BADF18F0952309F0CC
:1028A000A6CFABCF1124EECFCADFA0F3959FD1F313
:1028B000950F50E0551F629FF001729FBB27F00DEE
:1028C000B11D639FAA27F00DB11DAA1F649F662743
:1028D000B00DA11D661F829F2227B00DA11D621F92
:1028E000739FB00DA11D621F839FA00D611D221F4C
:1028F000749F3327A00D611D231F849F600D211D30
:10290000822F762F6A2F11249F5750408AF0E1F0D2
:1029100088234AF0EE0FFF1FBB1F661F771F881F1B
:1029200091505040A9F79E3F510570F060CFAACF5B
:102930005F3FECF3983EDCF3869577956795B79506
:10294000F795E7959F5FC1F7FE2B880F911D969530
:10295000879597F9089511F40EF44FCF4AC077DFA9
:10296000D0F39923D9F3CEF39F57550B87FF51D05E
:1029700056959795B0E020F4660F771F881FBB1F10
:102980001F930F9300249001A0018001F001A0E8A3
:102990000E0F1F1F0A1E511D601B710B8009B50B06
:1029A00048F4600F711F801DB51F0E1B1F0B0A0A14
:1029B000510907C02E0F3F1F4A1F0E0F1F1F0A1E6F
:1029C000511D660F771F881FBB1FA695F795E795CA
:1029D000F8F60617170708065B07211D311D411D74
:1029E0000F911F91B901842F9158880F9695879563
:1029F00008959F3F49F0915028F486957795679503
:102A0000B7959F5F80389F4F880F9695879597F968
:102A1000089591505040660F771F881FD2F7089590
:102A2000629FD001739FF001829FE00DF11D649FB2
:102A3000E00DF11D929FF00D839FF00D749FF00D3E
:102A4000659FF00D9927729FB00DE11DF91F639FDF
:102A5000B00DE11DF91FBD01CF011124089597FBB1
:102A6000092E07260AD077FD04D049D006D00020D1
:102A70001AF4709561957F4F0895F6F790958195BA
:102A80009F4F0895A1E21A2EAA1BBB1BFD010DC08A
:102A9000AA1FBB1FEE1FFF1FA217B307E407F5070E
:102AA00020F0A21BB30BE40BF50B661F771F881FEA
:102AB000991F1A9469F760957095809590959B0180
:102AC000AC01BD01CF01089597FB092E05260ED05C
:102AD00057FD04D0D7DF0AD0001C38F4509540953C
:102AE000309521953F4F4F4F5F4F0895F6F79095E2
:102AF0008095709561957F4F8F4F9F4F0895AA1BCA
:102B0000BB1B51E107C0AA1FBB1FA617B70710F0D8
:102B1000A61BB70B881F991F5A95A9F7809590950A
:102B2000BC01CD010895EE0FFF1F0590F491E02D3B
:102B300009942F923F924F925F926F927F928F9261
:102B40009F92AF92BF92CF92DF92EF92FF920F933C
:102B50001F93CF93DF93CDB7DEB7CA1BDB0B0FB646
:102B6000F894DEBF0FBECDBF09942A883988488803
:102B70005F846E847D848C849B84AA84B984C88499
:102B8000DF80EE80FD800C811B81AA81B981CE0F90
:102B9000D11D0FB6F894DEBF0FBECDBFED01089575
:042BA000F894FFCFD7
:102BA400446967697420776173200020616E642032
:102BB40063616E6E6F7420626520777269747465E8
:102BC4006E002C2025642C2025642C202564002CE8
:102BD40020256400425554544F4E205055534845C7
:102BE40044002000CD030000080009000C00080088
:102BF400070006000400030002000A000B000500A1
:102C04003F065B4F666D7D077F6F377C395E797158
:102C14000A0032000000E80300000100FFFF00008A
:102C240000000A00000064000000E8030000102710
:102C34000000A086010040420F008096980000E149
:0C2C4400F505000000007F11CC11E41128
:00000001FF
