:100000000C9465000C948D000C948D000C948D0064
:100010000C948D000C948D000C948D000C94C401F4
:100020000C948D000C948D000C948D000C94700138
:100030000C948D000C948D000C941C010C948D007C
:100040000C9422060C948D000C94B2060C948D0036
:100050000C948D000C948D000C948D000C948D00EC
:100060000C948D000C948D0002010000000000240F
:100070000027002A0000000000250028002B0000B7
:1000800000000023002600290004040404040404E2
:100090000402020202020203030303030301020437
:1000A00008102040800102040810200102040810FA
:1000B0002000000007000201000003040600000009
:1000C000000000000000CE03FB0711241FBECFEF8D
:1000D000D4E0DEBFCDBF11E0A0E0B1E0E0EDF3E1A0
:1000E00002C005900D92A835B107D9F712E0A8E536
:1000F000B1E001C01D92AB32B107E1F710E0CAECEC
:10010000D0E004C02297FE010E94E209C63CD1075C
:10011000C9F70E945F050C94E6090C940000DC010D
:1001200090916D01933008F083C06C93E92FF0E05B
:10013000E859FF4F849111968C9311979F5F90938C
:100140006D01813039F1823009F44BC0882309F008
:1001500072C014BC15BC84B5826084BD85B5816055
:1001600085BD8C91282F30E0F901E757FF4FE491CE
:10017000F0E0EE0FFF1FEB58FF4F859194919093A5
:100180005D0180935C0123563F4FF9018491809378
:100190005E0108951092800010928100809181008C
:1001A00088608093810080918100816080938100CC
:1001B0008C91282F30E0F901E757FF4FE491F0E0F0
:1001C000EE0FFF1FEB58FF4F8591949190936401C0
:1001D0008093630123563F4FF90184918093650119
:1001E00008951092B0001092B1008091B00082602A
:1001F0008093B0008091B10081608093B1008C91B8
:10020000282F30E0F901E757FF4FE491F0E0EE0FBF
:10021000FF1FEB58FF4F8591949190936B01809352
:100220006A0123563F4FF901849180936C01089530
:100230008FEF11968C9308951F920F920FB60F9225
:1002400011248F939F93AF93BF93EF93FF9380916C
:10025000580190915901A0915A01B0915B01E09130
:100260005C01F0915D010097A105B10531F180813C
:1002700090915E0189278083809158019091590166
:10028000A0915A01B0915B01181619061A061B06B7
:10029000E4F48091580190915901A0915A01B091D4
:1002A0005B010197A109B10980935801909359010D
:1002B000A0935A01B0935B0108C010926E00908128
:1002C00080915E01809589238083FF91EF91BF919A
:1002D000AF919F918F910F900FBE0F901F90189527
:1002E0001F920F920FB60F9211248F939F93AF938B
:1002F000BF93EF93FF9380915F0190916001A09174
:100300006101B0916201E0916301F0916401009795
:10031000A105B10531F18081909165018927808324
:1003200080915F0190916001A0916101B0916201A3
:10033000181619061A061B06E4F480915F019091C5
:100340006001A0916101B09162010197A109B10919
:1003500080935F0190936001A0936101B09362016B
:1003600008C010926F00908180916501809589236B
:100370008083FF91EF91BF91AF919F918F910F90EB
:100380000FBE0F901F9018951F920F920FB60F92ED
:1003900011248F939F93AF93BF93EF93FF9380911B
:1003A000660190916701A0916801B0916901E091A7
:1003B0006A01F0916B010097A105B10531F18081CF
:1003C00090916C01892780838091660190916701EB
:1003D000A0916801B0916901181619061A061B064A
:1003E000E4F48091660190916701A0916801B09159
:1003F00069010197A109B109809366019093670192
:10040000A0936801B093690108C0109270009081B8
:1004100080916C01809589238083FF91EF91BF913A
:10042000AF919F918F910F900FBE0F901F901895D5
:10043000FC018181813039F0823041F0882341F420
:1004400010926E0005C010926F0002C010927000F2
:10045000808160E00E94860508952F923F925F920E
:100460006F927F928F929F92AF92BF92CF92DF92C4
:10047000EF92FF920F931F93DF93CF9300D000D0A2
:10048000CDB7DEB78C011B0129833A834B835C8394
:10049000DC0111968C91119787FD58C18C9161E018
:1004A0000E946605F8015180552021F0F2E05F16A8
:1004B00009F0BEC031018824992460E072E18AE726
:1004C00090E0A40193010E94B10959016A018601DB
:1004D00075010894E108F108010911092FEFE216EE
:1004E000F1040105110509F008F499C060E472E413
:1004F0008FE090E0A40193010E94B10979018A0183
:100500000894E108F1080109110982E05816C9F4BC
:100510009FEFE916F1040105110509F010F482E0DE
:1005200084C060E970ED83E090E0A40193010E9433
:10053000B10979018A010894E108F108010911095A
:1005400083E0AFEFEA16F1040105110509F008F4A4
:1005500067C068E478EE81E090E0A40193010E9416
:10056000B10979018A010894E108F108010911092A
:10057000552011F483E01EC0B2E05B1611F084E058
:1005800019C0EFEFEE16F1040105110509F010F4A2
:1005900084E04BC064E274EF80E090E0A40193013A
:1005A0000E94B10979018A010894E108F108010962
:1005B000110985E0FFEFEF16F1040105110581F146
:1005C00078F162E17AE780E090E0A40193010E9473
:1005D000B10979018A010894E108F10801091109BA
:1005E000552011F086E001C084E02FEFE216F104FF
:1005F00001051105A9F0A0F0C601B50120E034E025
:1006000040E050E00E94B10979018A010894E108B4
:10061000F10801091109552039F485E003C081E092
:10062000552019F485BD3AC087E08093B10036C0EB
:100630005101CC24DD2460E072E18AE790E0A6015C
:1006400095010E94B10979018A010894E108F10835
:100650000109110980E0E81680E0F80681E008074A
:1006600080E0180710F491E010C068E478EE81E0B3
:1006700090E0A60195010E94B10979018A010894D0
:10068000E108F1080109110993E0A1E05A1631F4DB
:1006900080918100887F982B9093810089819A8135
:1006A000AB81BC810097A105B10529F48FEF9FEFC5
:1006B000AFEFBFEF13C0220C331CB10180E090E01C
:1006C00029813A814B815C810E945D0928EE33E0EB
:1006D00040E050E00E948F09C901DA01E1E05E16B6
:1006E000A1F0F2E05F1619F1552081F5E7BC809387
:1006F000580190935901A0935A01B0935B018091E6
:100700006E00826080936E0021C0F0928900E092BA
:10071000880080935F0190936001A0936101B09382
:10072000620180916F00826080936F000FC0E09241
:10073000B3008093660190936701A0936801B09322
:100740006901809170008260809370000F900F901B
:100750000F900F90CF91DF911F910F91FF90EF902D
:10076000DF90CF90BF90AF909F908F907F906F90D1
:100770005F903F902F90089580916E0190916F014E
:100780006091450170914601660F771F01960E94A6
:100790007C0990936F0180936E0108958091870189
:1007A0009091880190938A018093890108950E9415
:1007B0006A06209174013091750140917601509143
:1007C0007701621B730B840B950B6151774280405C
:1007D000904010F480E008950E946A0660937401CE
:1007E00070937501809376019093770181E008956D
:1007F00080918201882341F10E946A062091830141
:10080000309184014091850150918601621B730BE8
:10081000840B950B695E734080409040C8F080E87F
:1008200091E066E071E024EF31E040E050E00E94AA
:100830002D020E946A066093830170938401809365
:10084000850190938601089580E891E00E94180246
:100850000895AF92BF92CF92DF92EF92FF920F93E3
:100860001F93CF93DF937C0197FD3BC0C090450160
:10087000D0904601C601880F991FE816F9068CF53D
:10088000C701B6010E947C0905E211E0C0E0D0E09A
:1008900045E3A42E41E0B42EA80EB91E11C0F50107
:1008A000608170E00C2E02C0759567950A94E2F79E
:1008B0006170F80180810E94860521960E5F1F4FAE
:1008C00080911F01909120010197C817D9073CF32F
:1008D00060E0EC14FD040CF061E085E00E94860508
:1008E00011C088E192E060E071E00E946C0888E14C
:1008F00092E0B7010E94550988E192E069E071E059
:100900000E948B08DF91CF911F910F91FF90EF9084
:10091000DF90CF90BF90AF900895809123010E9407
:10092000D30520E0019709F421E020937C01809118
:100930007D01281751F00E946A0660937001709340
:100940007101809372019093730180917C01809377
:100950007D010E946A0620917001309171014091E1
:10096000720150917301621B730B840B950B6093A2
:1009700078017093790180937A0190937B012091A3
:100980004701309148014091490150914A01261791
:1009900037074807590724F480917C0180937E0132
:1009A00080917E01882331F480917F01882311F0AA
:1009B0000E94BC0380917E0180937F010E946A06A1
:1009C0008091780190917901A0917A01B0917B0199
:1009D00081519742A040B0402CF0809187019091C6
:1009E000880104C080914B0190914C0190938A0141
:1009F000809389012091890130918A01809187013A
:100A00009091880128173907E1F40E94D7038823C1
:100A100061F080916E0190916F01181619062CF407
:100A2000019790936F0180936E0180916E01909178
:100A30006F01019721F481E08093820102C010923E
:100A4000820180916E0190916F010E9429040E94A1
:100A5000F80308950F931F93CF93DF9380912101A3
:100A600061E00E9466058091230160E00E946605B6
:100A700005E211E0C0E0D0E008C0F801808161E04B
:100A80000E94660521960E5F1F4F80911F01909175
:100A90002001C817D9078CF388E192E040E855E2BD
:100AA00060E070E00E94EF0680E891E06091210133
:100AB0000E948F00DF91CF911F910F9108950E94A6
:100AC00078060E942A050E948D04FDCF282F30E071
:100AD000C90183569F4FFC01949127573F4FF9015D
:100AE0008491882391F0E82FF0E0EE0FFF1FE55985
:100AF000FF4FA591B491662329F48C919095892399
:100B00008C9308958C91892B8C930895482F50E0F5
:100B1000CA018F549F4FFC012491CA0183569F4FF5
:100B2000FC01949147575F4FFA0134913323D1F17F
:100B3000222331F1233021F4809180008F7705C08A
:100B4000243031F4809180008F7D8093800018C024
:100B5000213019F484B58F7704C0223021F484B594
:100B60008F7D84BD0DC0263021F48091B0008F7739
:100B700005C0273029F48091B0008F7D8093B000AC
:100B8000E32FF0E0EE0FFF1FEB58FF4FA591B4915C
:100B9000662329F48C91909589238C9308958C91E8
:100BA000892B8C930895682F70E0CB018F549F4F51
:100BB000FC012491CB0183569F4FFC014491675760
:100BC0007F4FFB019491992319F420E030E038C065
:100BD000222331F1233021F4809180008F7705C0EA
:100BE000243031F4809180008F7D8093800018C084
:100BF000213019F484B58F7704C0223021F484B5F4
:100C00008F7D84BD0DC0263021F48091B0008F7798
:100C100005C0273029F48091B0008F7D8093B0000B
:100C2000892F90E0880F991F81589F4FFC01A59153
:100C3000B4918C9120E030E0842311F021E030E089
:100C4000C90108951F920F920FB60F9211242F938E
:100C50003F938F939F93AF93BF9380918F01909118
:100C60009001A0919101B091920130919301019670
:100C7000A11DB11D232F2D5F2D3720F02D5701967B
:100C8000A11DB11D2093930180938F01909390013A
:100C9000A0939101B093920180918B0190918C016E
:100CA000A0918D01B0918E010196A11DB11D80937F
:100CB0008B0190938C01A0938D01B0938E01BF9115
:100CC000AF919F918F913F912F910F900FBE0F90F9
:100CD0001F9018958FB7F89420918F013091900153
:100CE00040919101509192018FBFB901CA010895BD
:100CF000789484B5826084BD84B5816084BD85B5F7
:100D0000826085BD85B5816085BDEEE6F0E08081BD
:100D100081608083E1E8F0E080818260808380816F
:100D200081608083E0E8F0E0808181608083E1EB96
:100D3000F0E0808184608083E0EBF0E0808181607E
:100D40008083EAE7F0E08081846080838081826034
:100D5000808380818160808380818068808310921D
:100D6000C10008951F920F920FB60F9211242F9376
:100D70003F934F935F936F937F938F939F93AF9323
:100D8000BF93EF93FF934091C600E0911402F0915E
:100D90001502CF01019660E870E00E947C099C0179
:100DA00080911602909117022817390739F0EC56F6
:100DB000FE4F40833093150220931402FF91EF9170
:100DC000BF91AF919F918F917F916F915F914F9163
:100DD0003F912F910F900FBE0F901F9018955F922B
:100DE0006F927F928F929F92AF92BF92CF92DF923B
:100DF000EF92FF920F931F93CF93DF93EC013A0191
:100E00004B01413482E458078FE0680780E078079F
:100E10000CF07FC060E874E88EE190E0A4019301DB
:100E20000E94B1092150304040405040CA01B901F0
:100E300022E030E040E050E00E94B10959016A012F
:100E4000A6019501209530954095509594E0220F8C
:100E5000331F441F551F9A95D1F760E074E284EF69
:100E600090E00E94B109CA01B9012FEF30E040E0E3
:100E700050E00E945D09A40193010E94B109C901DB
:100E800081509F4F181619061CF4522E5A9403C015
:100E900055245394521A60E079E08DE390E0A40168
:100EA00093010E94B1092150304040405040CA0196
:100EB000B90122E030E040E050E00E94B109209505
:100EC00030954095509583E0220F331F441F551FE6
:100ED0008A95D1F760E074E284EF90E00E94B10956
:100EE000CA01B9012FEF30E040E050E00E945D09F7
:100EF000A40193010E94B109C90181509F4F1816A6
:100F000019061CF4822F815002C081E0821B8515D6
:100F100000F5E885F98581E090E00A8802C0880F35
:100F2000991F0A94E2F7808360E079E08DE390E016
:100F3000A40193010E94B10921503040404050402B
:100F4000CA01B90122E030E040E050E00E94B1095E
:100F500004C0E885F98510829501EC81FD8130831C
:100F6000EE81FF812083EA85FB85208141E050E00E
:100F7000CA010E8402C0880F991F0A94E2F7282B39
:100F80002083EA85FB852081CA010F8402C0880F77
:100F9000991F0A94E2F7282B2083EA85FB8580813C
:100FA000088802C0440F551F0A94E2F7842B8083FF
:100FB000DF91CF911F910F91FF90EF90DF90CF9035
:100FC000BF90AF909F908F907F906F905F900895AB
:100FD000FC01A085B18521898C9190E0022E02C090
:100FE000959587950A94E2F780FFF6CF0484F585FE
:100FF000E02D6083089581E591E09093190280933C
:10100000180284E991E090931B0280931A0285EC08
:1010100090E090931D0280931C0284EC90E09093EA
:101020001F0280931E0280EC90E090932102809337
:10103000200281EC90E0909323028093220286ECC0
:1010400090E0909325028093240284E0809326020E
:1010500083E08093270287E08093280285E08093D5
:10106000290281E080932A0208950F931F93CF9362
:10107000DF938C01EB0109C02196D801ED91FC9121
:101080000190F081E02DC801099568816623A1F7E0
:10109000DF91CF911F910F910895EF92FF920F93DF
:1010A0001F93CF93DF938C017B01EA010CC0D70122
:1010B0006D917D01D801ED91FC910190F081E02DC1
:1010C000C80109952197209791F7DF91CF911F9142
:1010D0000F91FF90EF900895DC01ED91FC9102805B
:1010E000F381E02D099508950F931F938C01DC0186
:1010F000ED91FC910190F081E02D6DE00995D80112
:10110000ED91FC910190F081E02DC8016AE0099514
:101110001F910F9108950F931F938C010E946C08EB
:10112000C8010E9474081F910F9108952F923F9259
:101130004F925F926F927F928F929F92AF92BF92E7
:10114000CF92DF92EF92FF920F931F93DF93CF9393
:10115000CDB7DEB7A0970FB6F894DEBF0FBECDBFF8
:101160001C016A017B01411551056105710549F4B6
:10117000DC01ED91FC910190F081E02D60E3099597
:1011800054C0882499245401422E5524662477247F
:1011900001E010E00C0F1D1F080D191DC701B6015D
:1011A000A30192010E948F09F80160830894811CB9
:1011B000911CA11CB11CC701B601A30192010E94A0
:1011C0008F09C901DA016C017D01C114D104E10468
:1011D000F104F1F681E0E82EF12CEC0EFD1EE80C96
:1011E000F91C3E010894611C711CD501C4010197D2
:1011F000A109B1096C01C818D90814C0F601EE0D97
:10120000FF1D60816A3010F4605D01C0695CD1012E
:10121000ED91FC910190F081E02DC10109950894B8
:10122000E108F1086E147F0449F7A0960FB6F89410
:10123000DEBF0FBECDBFCF91DF911F910F91FF9009
:10124000EF90DF90CF90BF90AF909F908F907F9066
:101250006F905F904F903F902F900895EF92FF9284
:101260000F931F93CF93DF93EC017A018B0177FFEC
:101270000FC0E881F9810190F081E02D6DE20995C0
:1012800010950095F094E094E11CF11C011D111DD6
:10129000CE01B801A7012AE00E949608DF91CF9104
:1012A0001F910F91FF90EF900895AB01662757FDB6
:1012B0006095762F0E942E090895629FD001739F3A
:1012C000F001829FE00DF11D649FE00DF11D929FE2
:1012D000F00D839FF00D749FF00D659FF00D992721
:1012E000729FB00DE11DF91F639FB00DE11DF91F45
:1012F000BD01CF011124089597FB092E07260AD0BE
:1013000077FD04D049D006D000201AF4709561957D
:101310007F4F0895F6F7909581959F4F0895A1E22C
:101320001A2EAA1BBB1BFD010DC0AA1FBB1FEE1F5F
:10133000FF1FA217B307E407F50720F0A21BB30BAA
:10134000E40BF50B661F771F881F991F1A9469F726
:1013500060957095809590959B01AC01BD01CF0182
:10136000089597FB092E05260ED057FD04D0D7DF30
:101370000AD0001C38F450954095309521953F4F88
:101380004F4F5F4F0895F6F7909580957095619552
:101390007F4F8F4F9F4F0895AA1BBB1B51E107C082
:1013A000AA1FBB1FA617B70710F0A61BB70B881FF5
:1013B000991F5A95A9F780959095BC01CD01089584
:1013C000EE0FFF1F0590F491E02D0994F894FFCFE4
:1013D0006469676974203D20003B2063616E6E6F15
:1013E0007420626520646973706C617965640008BB
:1013F0000009000C00070006000400030002000AB8
:10140000000B0005003F065B4F666D7D077F6F3761
:101410007C395E797110003200000001000000008C
:0814200000E80735084D080043
:00000001FF
