:100000000C9465000C948D000C948D000C948D0064
:100010000C948D000C948D000C948D000C94C401F4
:100020000C948D000C948D000C948D000C94700138
:100030000C948D000C948D000C941C010C948D007C
:100040000C946D060C948D000C94FD060C948D00A0
:100050000C948D000C948D000C948D000C948D00EC
:100060000C948D000C948D0002010000000000240F
:100070000027002A0000000000250028002B0000B7
:1000800000000023002600290004040404040404E2
:100090000402020202020203030303030301020437
:1000A00008102040800102040810200102040810FA
:1000B0002000000007000201000003040600000009
:1000C000000000000000CE03460811241FBECFEF41
:1000D000D4E0DEBFCDBF11E0A0E0B1E0E6E6F4E1A0
:1000E00002C005900D92AC35B107D9F712E0ACE52E
:1000F000B1E001C01D92A533B107E1F710E0CAECF1
:10010000D0E004C02297FE010E942D0AC63CD10710
:10011000C9F70E94AA050C94310A0C940000DC0176
:1001200090917101933008F083C06C93E92FF0E057
:10013000E859FF4F849111968C9311979F5F90938C
:100140007101813039F1823009F44BC0882309F004
:1001500072C014BC15BC84B5826084BD85B5816055
:1001600085BD8C91282F30E0F901E757FF4FE491CE
:10017000F0E0EE0FFF1FEB58FF4F859194919093A5
:1001800061018093600123563F4FF9018491809370
:100190006201089510928000109281008091810088
:1001A00088608093810080918100816080938100CC
:1001B0008C91282F30E0F901E757FF4FE491F0E0F0
:1001C000EE0FFF1FEB58FF4F8591949190936801BC
:1001D0008093670123563F4FF90184918093690111
:1001E00008951092B0001092B1008091B00082602A
:1001F0008093B0008091B10081608093B1008C91B8
:10020000282F30E0F901E757FF4FE491F0E0EE0FBF
:10021000FF1FEB58FF4F8591949190936F0180934E
:100220006E0123563F4FF901849180937001089528
:100230008FEF11968C9308951F920F920FB60F9225
:1002400011248F939F93AF93BF93EF93FF9380916C
:100250005C0190915D01A0915E01B0915F01E09120
:100260006001F09161010097A105B10531F1808134
:10027000909162018927808380915C0190915D015A
:10028000A0915E01B0915F01181619061A061B06AF
:10029000E4F480915C0190915D01A0915E01B091C8
:1002A0005F010197A109B10980935C0190935D0101
:1002B000A0935E01B0935F0108C010926E00908120
:1002C00080916201809589238083FF91EF91BF9196
:1002D000AF919F918F910F900FBE0F901F90189527
:1002E0001F920F920FB60F9211248F939F93AF938B
:1002F000BF93EF93FF938091630190916401A0916C
:100300006501B0916601E0916701F0916801009785
:10031000A105B10531F18081909169018927808320
:100320008091630190916401A0916501B091660193
:10033000181619061A061B06E4F4809163019091C1
:100340006401A0916501B09166010197A109B1090D
:100350008093630190936401A0936501B09366015B
:1003600008C010926F009081809169018095892367
:100370008083FF91EF91BF91AF919F918F910F90EB
:100380000FBE0F901F9018951F920F920FB60F92ED
:1003900011248F939F93AF93BF93EF93FF9380911B
:1003A0006A0190916B01A0916C01B0916D01E09197
:1003B0006E01F0916F010097A105B10531F18081C7
:1003C000909170018927808380916A0190916B01DF
:1003D000A0916C01B0916D01181619061A061B0642
:1003E000E4F480916A0190916B01A0916C01B0914D
:1003F0006D010197A109B10980936A0190936B0186
:10040000A0936C01B0936D0108C0109270009081B0
:1004100080917001809589238083FF91EF91BF9136
:10042000AF919F918F910F900FBE0F901F901895D5
:10043000FC018181813039F0823041F0882341F420
:1004400010926E0005C010926F0002C010927000F2
:10045000808160E00E94D10508952F923F925F92C3
:100460006F927F928F929F92AF92BF92CF92DF92C4
:10047000EF92FF920F931F93DF93CF9300D000D0A2
:10048000CDB7DEB78C011B0129833A834B835C8394
:10049000DC0111968C91119787FD58C18C9161E018
:1004A0000E94B105F8015180552021F0F2E05F165D
:1004B00009F0BEC031018824992460E072E18AE726
:1004C00090E0A40193010E94FC0959016A01860190
:1004D00075010894E108F108010911092FEFE216EE
:1004E000F1040105110509F008F499C060E472E413
:1004F0008FE090E0A40193010E94FC0979018A0138
:100500000894E108F1080109110982E05816C9F4BC
:100510009FEFE916F1040105110509F010F482E0DE
:1005200084C060E970ED83E090E0A40193010E9433
:10053000FC0979018A010894E108F108010911090F
:1005400083E0AFEFEA16F1040105110509F008F4A4
:1005500067C068E478EE81E090E0A40193010E9416
:10056000FC0979018A010894E108F10801091109DF
:10057000552011F483E01EC0B2E05B1611F084E058
:1005800019C0EFEFEE16F1040105110509F010F4A2
:1005900084E04BC064E274EF80E090E0A40193013A
:1005A0000E94FC0979018A010894E108F108010917
:1005B000110985E0FFEFEF16F1040105110581F146
:1005C00078F162E17AE780E090E0A40193010E9473
:1005D000FC0979018A010894E108F108010911096F
:1005E000552011F086E001C084E02FEFE216F104FF
:1005F00001051105A9F0A0F0C601B50120E034E025
:1006000040E050E00E94FC0979018A010894E10869
:10061000F10801091109552039F485E003C081E092
:10062000552019F485BD3AC087E08093B10036C0EB
:100630005101CC24DD2460E072E18AE790E0A6015C
:1006400095010E94FC0979018A010894E108F108EA
:100650000109110980E0E81680E0F80681E008074A
:1006600080E0180710F491E010C068E478EE81E0B3
:1006700090E0A60195010E94FC0979018A01089485
:10068000E108F1080109110993E0A1E05A1631F4DB
:1006900080918100887F982B9093810089819A8135
:1006A000AB81BC810097A105B10529F48FEF9FEFC5
:1006B000AFEFBFEF13C0220C331CB10180E090E01C
:1006C00029813A814B815C810E94A80928EE33E0A0
:1006D00040E050E00E94DA09C901DA01E1E05E166B
:1006E000A1F0F2E05F1619F1552081F5E7BC809387
:1006F0005C0190935D01A0935E01B0935F018091D6
:100700006E00826080936E0021C0F0928900E092BA
:1007100088008093630190936401A0936501B09376
:10072000660180916F00826080936F000FC0E0923D
:10073000B30080936A0190936B01A0936C01B09316
:100740006D01809170008260809370000F900F9017
:100750000F900F90CF91DF911F910F91FF90EF902D
:10076000DF90CF90BF90AF909F908F907F906F90D1
:100770005F903F902F90089580915001909151018A
:100780006091480170914901660F771F01960E94A0
:10079000C7099093510180935001089580914E01B3
:1007A00090914F01909394018093930108950E943A
:1007B000B5062091860130918701409188015091C2
:1007C0008901621B730B840B950B695B7B40804036
:1007D000904010F480E008950E94B5066093860171
:1007E00070938701809388019093890181E0089537
:1007F00080918C01882341F10E94B50620918D01E2
:1008000030918E0140918F0150919001621B730BCA
:10081000840B950B695E734080409040C8F08AE875
:1008200091E066E071E024EF31E040E050E00E94AA
:100830002D020E94B50660938D0170938E01809306
:100840008F019093900108958AE891E00E94180228
:100850000895EF92FF920F931F93CF93DF93EC01D4
:1008600097FD1EC02091480130914901C901880FB0
:10087000991FC817D907D4F460E0C217D3070CF04A
:1008800061E085E00E94D1056091480170914901C5
:10089000CE010E94C709FC01E85CFE4F608117C0D1
:1008A0008FEFCF3FD80711F460E011C082E292E0F1
:1008B00060E071E00E94B70882E292E0BE010E940F
:1008C000A00982E292E06BE071E00E94D60808E2A3
:1008D00011E0C0E0D0E0E62EFF240FC0B7010C2EDF
:1008E00002C0759567950A94E2F76170F8018081FE
:1008F0000E94D10521960E5F1F4F80912201909199
:1009000023010197C817D9074CF3DF91CF911F91AD
:100910000F91FF90EF900895809126010E941E068E
:1009200020E0019709F421E0209372018091730186
:10093000281751F00E94B5066093780170937901F1
:1009400080937A0190937B0180917201809373016F
:100950000E94B506209178013091790140917A0189
:1009600050917B01621B730B840B950B6093740198
:1009700070937501809376019093770120914A01DD
:1009800030914B0140914C0150914D012617370792
:100990004807590744F59091720180917C018917AD
:1009A00011F190937C010E94B50620917E01309157
:1009B0007F014091800150918101621B730B840B78
:1009C000950B6093820170938301809384019093CF
:1009D00085010E94B50660937E0170937F0180932C
:1009E00080019093810180917C01882311F5809191
:1009F0007D018823F1F08091820190918301A09183
:100A00008401B0918501895E9340A040B0407CF0A4
:100A100080914E0190914F019093940180939301A6
:100A20008FEF9FEF909351018093500102C00E947D
:100A3000BC0380917C0180937D0180917401909131
:100A40007501A0917601B0917701895E9340A04035
:100A5000B04074F0809150019091510197FD08C011
:100A600080919101909192019093940180939301D0
:100A70002091930130919401809191019091920184
:100A800028173907E1F40E94D703882361F0809189
:100A9000500190915101181619062CF4019790936A
:100AA0005101809350018091500190915101029722
:100AB00024F481E080938C0102C010928C0120917B
:100AC00093013091940180914E0190914F0128172C
:100AD000390711F410928C018091500190915101CD
:100AE0000E9429040E94F80308950F931F93CF9347
:100AF000DF938091240161E00E94B105809126017D
:100B000060E00E94B10508E211E0C0E0D0E008C05A
:100B1000F801808161E00E94B10521960E5F1F4FB0
:100B20008091220190912301C817D9078CF382E2AA
:100B300092E040E855E260E070E00E943A078AE8FF
:100B400091E0609124010E948F00DF91CF911F916D
:100B50000F9108950E94C3060E9475050E948C049F
:100B6000FDCF282F30E0C90183569F4FFC0194919F
:100B700027573F4FF9018491882391F0E82FF0E047
:100B8000EE0FFF1FE559FF4FA591B491662329F49D
:100B90008C91909589238C9308958C91892B8C93BB
:100BA0000895482F50E0CA018F549F4FFC012491B3
:100BB000CA0183569F4FFC01949147575F4FFA013A
:100BC00034913323D1F1222331F1233021F4809168
:100BD00080008F7705C0243031F4809180008F7DB4
:100BE0008093800018C0213019F484B58F7704C039
:100BF000223021F484B58F7D84BD0DC0263021F4D0
:100C00008091B0008F7705C0273029F48091B00023
:100C10008F7D8093B000E32FF0E0EE0FFF1FEB58C5
:100C2000FF4FA591B491662329F48C919095892367
:100C30008C9308958C91892B8C930895682F70E084
:100C4000CB018F549F4FFC012491CB0183569F4FC2
:100C5000FC01449167577F4FFB019491992319F44C
:100C600020E030E038C0222331F1233021F480919C
:100C700080008F7705C0243031F4809180008F7D13
:100C80008093800018C0213019F484B58F7704C098
:100C9000223021F484B58F7D84BD0DC0263021F42F
:100CA0008091B0008F7705C0273029F48091B00083
:100CB0008F7D8093B000892F90E0880F991F815815
:100CC0009F4FFC01A591B4918C9120E030E08423EA
:100CD00011F021E030E0C90108951F920F920FB684
:100CE0000F9211242F933F938F939F93AF93BF93B2
:100CF0008091990190919A01A0919B01B0919C01E2
:100D000030919D010196A11DB11D232F2D5F2D371F
:100D100020F02D570196A11DB11D20939D018093B8
:100D2000990190939A01A0939B01B0939C018091AB
:100D3000950190919601A0919701B091980101962B
:100D4000A11DB11D8093950190939601A0939701E9
:100D5000B0939801BF91AF919F918F913F912F9147
:100D60000F900FBE0F901F9018958FB7F894209199
:100D7000990130919A0140919B0150919C018FBF44
:100D8000B901CA010895789484B5826084BD84B5A0
:100D9000816084BD85B5826085BD85B5816085BD76
:100DA000EEE6F0E0808181608083E1E8F0E0808120
:100DB00082608083808181608083E0E8F0E08081D0
:100DC00081608083E1EBF0E0808184608083E0EBF0
:100DD000F0E0808181608083EAE7F0E080818460D8
:100DE0008083808182608083808181608083808134
:100DF000806880831092C10008951F920F920FB6F1
:100E00000F9211242F933F934F935F936F937F9390
:100E10008F939F93AF93BF93EF93FF934091C6003F
:100E2000E0911E02F0911F02CF01019660E870E090
:100E30000E94C7099C0180912002909121022817ED
:100E4000390739F0E256FE4F408330931F0220935A
:100E50001E02FF91EF91BF91AF919F918F917F9172
:100E60006F915F914F913F912F910F900FBE0F9017
:100E70001F9018955F926F927F928F929F92AF9280
:100E8000BF92CF92DF92EF92FF920F931F93CF9377
:100E9000DF93EC013A014B01413482E458078FE0C3
:100EA000680780E078070CF07FC060E874E88EE1A6
:100EB00090E0A40193010E94FC0921503040404081
:100EC0005040CA01B90122E030E040E050E00E9409
:100ED000FC0959016A01A6019501209530954095BC
:100EE000509594E0220F331F441F551F9A95D1F758
:100EF00060E074E284EF90E00E94FC09CA01B9014D
:100F00002FEF30E040E050E00E94A809A4019301D7
:100F10000E94FC09C90181509F4F181619061CF444
:100F2000522E5A9403C055245394521A60E079E02B
:100F30008DE390E0A40193010E94FC092150304010
:100F400040405040CA01B90122E030E040E050E0AA
:100F50000E94FC09209530954095509583E0220F22
:100F6000331F441F551F8A95D1F760E074E284EF68
:100F700090E00E94FC09CA01B9012FEF30E040E087
:100F800050E00E94A809A40193010E94FC09C90134
:100F900081509F4F181619061CF4822F815002C0F1
:100FA00081E0821B851500F5E885F98581E090E0F8
:100FB0000A8802C0880F991F0A94E2F7808360E0D4
:100FC00079E08DE390E0A40193010E94FC09215097
:100FD000304040405040CA01B90122E030E040E0DA
:100FE00050E00E94FC0904C0E885F9851082950153
:100FF000EC81FD813083EE81FF812083EA85FB85D2
:10100000208141E050E0CA010E8402C0880F991F80
:101010000A94E2F7282B2083EA85FB852081CA0108
:101020000F8402C0880F991F0A94E2F7282B2083AF
:10103000EA85FB858081088802C0440F551F0A9409
:10104000E2F7842B8083DF91CF911F910F91FF9066
:10105000EF90DF90CF90BF90AF909F908F907F9058
:101060006F905F900895FC01A085B18521898C91D6
:1010700090E0022E02C0959587950A94E2F780FFD2
:10108000F6CF0484F585E02D6083089586E591E030
:1010900090932302809322028EE991E0909325029F
:1010A0008093240285EC90E090932702809326029F
:1010B00084EC90E0909329028093280280EC90E0E9
:1010C00090932B0280932A0281EC90E090932D0262
:1010D00080932C0286EC90E090932F0280932E0256
:1010E00084E08093300283E08093310287E0809334
:1010F000320285E08093330281E0809334020895C8
:101100000F931F93CF93DF938C01EB0109C02196BE
:10111000D801ED91FC910190F081E02DC801099575
:1011200068816623A1F7DF91CF911F910F910895F8
:10113000EF92FF920F931F93CF93DF938C017B016C
:10114000EA010CC0D7016D917D01D801ED91FC91B0
:101150000190F081E02DC80109952197209791F722
:10116000DF91CF911F910F91FF90EF900895DC01D7
:10117000ED91FC910280F381E02D099508950F9384
:101180001F938C01DC01ED91FC910190F081E02D29
:101190006DE00995D801ED91FC910190F081E02D71
:1011A000C8016AE009951F910F9108950F931F934D
:1011B0008C010E94B708C8010E94BF081F910F91BF
:1011C00008952F923F924F925F926F927F928F92EB
:1011D0009F92AF92BF92CF92DF92EF92FF920F93C6
:1011E0001F93DF93CF93CDB7DEB7A0970FB6F894D8
:1011F000DEBF0FBECDBF1C016A017B014115510549
:101200006105710549F4DC01ED91FC910190F081DB
:10121000E02D60E3099554C0882499245401422E9E
:1012200055246624772401E010E00C0F1D1F080DE3
:10123000191DC701B601A30192010E94DA09F80144
:1012400060830894811C911CA11CB11CC701B601CC
:10125000A30192010E94DA09C901DA016C017D0142
:10126000C114D104E104F104F1F681E0E82EF12C7F
:10127000EC0EFD1EE80CF91C3E010894611C711C6B
:10128000D501C4010197A109B1096C01C818D90899
:1012900014C0F601EE0DFF1D60816A3010F4605D30
:1012A00001C0695CD101ED91FC910190F081E02DCC
:1012B000C10109950894E108F1086E147F0449F70B
:1012C000A0960FB6F894DEBF0FBECDBFCF91DF91D1
:1012D0001F910F91FF90EF90DF90CF90BF90AF9054
:1012E0009F908F907F906F905F904F903F902F9046
:1012F0000895EF92FF920F931F93CF93DF93EC012A
:101300007A018B0177FF0FC0E881F9810190F081AC
:10131000E02D6DE2099510950095F094E094E11CA4
:10132000F11C011D111DCE01B801A7012AE00E9488
:10133000E108DF91CF911F910F91FF90EF900895F9
:10134000AB01662757FD6095762F0E9479090895B5
:10135000629FD001739FF001829FE00DF11D649F99
:10136000E00DF11D929FF00D839FF00D749FF00D25
:10137000659FF00D9927729FB00DE11DF91F639FC6
:10138000B00DE11DF91FBD01CF011124089597FB98
:10139000092E07260AD077FD04D049D006D00020B8
:1013A0001AF4709561957F4F0895F6F790958195A1
:1013B0009F4F0895A1E21A2EAA1BBB1BFD010DC071
:1013C000AA1FBB1FEE1FFF1FA217B307E407F507F5
:1013D00020F0A21BB30BE40BF50B661F771F881FD1
:1013E000991F1A9469F760957095809590959B0167
:1013F000AC01BD01CF01089597FB092E05260ED043
:1014000057FD04D0D7DF0AD0001C38F45095409522
:10141000309521953F4F4F4F5F4F0895F6F79095C8
:101420008095709561957F4F8F4F9F4F0895AA1BB0
:10143000BB1B51E107C0AA1FBB1FA617B70710F0BF
:10144000A61BB70B881F991F5A95A9F780959095F1
:10145000BC01CD010895EE0FFF1F0590F491E02D22
:061460000994F894FFCF8F
:10146600446967697420776173200020616E642087
:1014760063616E6E6F74206265207772697474653D
:101486006E00080009000C000700060004000300B7
:1014960002000A000B0005003F065B4F666D7D07E4
:1014A6007F6F377C395E79710A00320000000100D7
:0C14B600FFFF00000000330880089808C9
:00000001FF
